{
  "contractName": "D4ppGovernance",
  "abi": [
    {
      "inputs": [
        {
          "internalType": "address",
          "name": "_token",
          "type": "address"
        }
      ],
      "stateMutability": "nonpayable",
      "type": "constructor"
    },
    {
      "anonymous": false,
      "inputs": [
        {
          "indexed": true,
          "internalType": "address",
          "name": "user",
          "type": "address"
        },
        {
          "indexed": true,
          "internalType": "uint256",
          "name": "projectId",
          "type": "uint256"
        },
        {
          "indexed": true,
          "internalType": "uint256",
          "name": "amount",
          "type": "uint256"
        }
      ],
      "name": "GrantFunds",
      "type": "event"
    },
    {
      "anonymous": false,
      "inputs": [
        {
          "indexed": true,
          "internalType": "address",
          "name": "previousOwner",
          "type": "address"
        },
        {
          "indexed": true,
          "internalType": "address",
          "name": "newOwner",
          "type": "address"
        }
      ],
      "name": "OwnershipTransferred",
      "type": "event"
    },
    {
      "anonymous": false,
      "inputs": [
        {
          "indexed": true,
          "internalType": "address",
          "name": "creator",
          "type": "address"
        },
        {
          "indexed": true,
          "internalType": "uint256",
          "name": "projectId",
          "type": "uint256"
        }
      ],
      "name": "ProjectCreated",
      "type": "event"
    },
    {
      "anonymous": false,
      "inputs": [
        {
          "indexed": false,
          "internalType": "bytes32",
          "name": "description",
          "type": "bytes32"
        },
        {
          "indexed": true,
          "internalType": "address",
          "name": "proposer",
          "type": "address"
        },
        {
          "indexed": true,
          "internalType": "uint256",
          "name": "projectId",
          "type": "uint256"
        },
        {
          "indexed": false,
          "internalType": "uint256",
          "name": "startTime",
          "type": "uint256"
        },
        {
          "indexed": false,
          "internalType": "uint256",
          "name": "endTime",
          "type": "uint256"
        }
      ],
      "name": "ProposalCreated",
      "type": "event"
    },
    {
      "anonymous": false,
      "inputs": [
        {
          "indexed": true,
          "internalType": "uint256",
          "name": "proposalId",
          "type": "uint256"
        }
      ],
      "name": "ProposalExecuted",
      "type": "event"
    },
    {
      "anonymous": false,
      "inputs": [
        {
          "indexed": true,
          "internalType": "uint256",
          "name": "proposalId",
          "type": "uint256"
        },
        {
          "indexed": true,
          "internalType": "address",
          "name": "voter",
          "type": "address"
        },
        {
          "indexed": false,
          "internalType": "uint256",
          "name": "votes",
          "type": "uint256"
        }
      ],
      "name": "Voted",
      "type": "event"
    },
    {
      "inputs": [
        {
          "internalType": "uint256",
          "name": "_projectId",
          "type": "uint256"
        },
        {
          "internalType": "uint256",
          "name": "_amount",
          "type": "uint256"
        }
      ],
      "name": "grantFunds",
      "outputs": [],
      "stateMutability": "nonpayable",
      "type": "function"
    },
    {
      "inputs": [
        {
          "internalType": "uint256",
          "name": "",
          "type": "uint256"
        },
        {
          "internalType": "address",
          "name": "",
          "type": "address"
        }
      ],
      "name": "grants",
      "outputs": [
        {
          "internalType": "uint256",
          "name": "",
          "type": "uint256"
        }
      ],
      "stateMutability": "view",
      "type": "function"
    },
    {
      "inputs": [],
      "name": "owner",
      "outputs": [
        {
          "internalType": "address",
          "name": "",
          "type": "address"
        }
      ],
      "stateMutability": "view",
      "type": "function"
    },
    {
      "inputs": [],
      "name": "projectCount",
      "outputs": [
        {
          "internalType": "uint256",
          "name": "",
          "type": "uint256"
        }
      ],
      "stateMutability": "view",
      "type": "function"
    },
    {
      "inputs": [
        {
          "internalType": "uint256",
          "name": "",
          "type": "uint256"
        }
      ],
      "name": "projects",
      "outputs": [
        {
          "internalType": "address",
          "name": "creator",
          "type": "address"
        },
        {
          "internalType": "uint256",
          "name": "projectId",
          "type": "uint256"
        },
        {
          "internalType": "uint256",
          "name": "startTime",
          "type": "uint256"
        },
        {
          "internalType": "uint256",
          "name": "endTime",
          "type": "uint256"
        },
        {
          "internalType": "uint256",
          "name": "softCap",
          "type": "uint256"
        },
        {
          "internalType": "uint256",
          "name": "hardCap",
          "type": "uint256"
        },
        {
          "internalType": "uint256",
          "name": "currentRaised",
          "type": "uint256"
        }
      ],
      "stateMutability": "view",
      "type": "function"
    },
    {
      "inputs": [
        {
          "internalType": "uint256",
          "name": "",
          "type": "uint256"
        }
      ],
      "name": "proposals",
      "outputs": [
        {
          "internalType": "bytes32",
          "name": "description",
          "type": "bytes32"
        },
        {
          "internalType": "address",
          "name": "proposer",
          "type": "address"
        },
        {
          "internalType": "uint256",
          "name": "projectId",
          "type": "uint256"
        },
        {
          "internalType": "uint256",
          "name": "startTime",
          "type": "uint256"
        },
        {
          "internalType": "uint256",
          "name": "endTime",
          "type": "uint256"
        },
        {
          "internalType": "uint256",
          "name": "forVotes",
          "type": "uint256"
        },
        {
          "internalType": "uint256",
          "name": "againstVotes",
          "type": "uint256"
        },
        {
          "internalType": "uint256",
          "name": "totalVotes",
          "type": "uint256"
        },
        {
          "internalType": "bool",
          "name": "executed",
          "type": "bool"
        },
        {
          "internalType": "bool",
          "name": "extended",
          "type": "bool"
        }
      ],
      "stateMutability": "view",
      "type": "function"
    },
    {
      "inputs": [
        {
          "internalType": "uint256",
          "name": "",
          "type": "uint256"
        },
        {
          "internalType": "address",
          "name": "",
          "type": "address"
        }
      ],
      "name": "receipts",
      "outputs": [
        {
          "internalType": "uint256",
          "name": "projectId",
          "type": "uint256"
        },
        {
          "internalType": "bool",
          "name": "hasVoted",
          "type": "bool"
        }
      ],
      "stateMutability": "view",
      "type": "function"
    },
    {
      "inputs": [
        {
          "internalType": "uint256",
          "name": "_startTime",
          "type": "uint256"
        },
        {
          "internalType": "uint256",
          "name": "_endTime",
          "type": "uint256"
        },
        {
          "internalType": "uint256",
          "name": "_softCap",
          "type": "uint256"
        },
        {
          "internalType": "uint256",
          "name": "_hardCap",
          "type": "uint256"
        }
      ],
      "name": "registerProject",
      "outputs": [],
      "stateMutability": "nonpayable",
      "type": "function"
    },
    {
      "inputs": [],
      "name": "renounceOwnership",
      "outputs": [],
      "stateMutability": "nonpayable",
      "type": "function"
    },
    {
      "inputs": [
        {
          "internalType": "address",
          "name": "",
          "type": "address"
        }
      ],
      "name": "rewardsPaid",
      "outputs": [
        {
          "internalType": "bool",
          "name": "",
          "type": "bool"
        }
      ],
      "stateMutability": "view",
      "type": "function"
    },
    {
      "inputs": [
        {
          "internalType": "uint256",
          "name": "",
          "type": "uint256"
        }
      ],
      "name": "rewardsPool",
      "outputs": [
        {
          "internalType": "address",
          "name": "token",
          "type": "address"
        },
        {
          "internalType": "uint256",
          "name": "projectId",
          "type": "uint256"
        },
        {
          "internalType": "uint256",
          "name": "amount",
          "type": "uint256"
        }
      ],
      "stateMutability": "view",
      "type": "function"
    },
    {
      "inputs": [
        {
          "internalType": "uint256",
          "name": "_projectId",
          "type": "uint256"
        },
        {
          "internalType": "address",
          "name": "_token",
          "type": "address"
        },
        {
          "internalType": "uint256",
          "name": "_amount",
          "type": "uint256"
        }
      ],
      "name": "seedTokensToProject",
      "outputs": [],
      "stateMutability": "nonpayable",
      "type": "function"
    },
    {
      "inputs": [],
      "name": "token",
      "outputs": [
        {
          "internalType": "address",
          "name": "",
          "type": "address"
        }
      ],
      "stateMutability": "view",
      "type": "function"
    },
    {
      "inputs": [
        {
          "internalType": "address",
          "name": "newOwner",
          "type": "address"
        }
      ],
      "name": "transferOwnership",
      "outputs": [],
      "stateMutability": "nonpayable",
      "type": "function"
    },
    {
      "inputs": [
        {
          "internalType": "address",
          "name": "_tokenAddress",
          "type": "address"
        }
      ],
      "name": "withdarAnyERC20Tokens",
      "outputs": [],
      "stateMutability": "nonpayable",
      "type": "function"
    },
    {
      "inputs": [
        {
          "internalType": "uint256",
          "name": "_projectId",
          "type": "uint256"
        }
      ],
      "name": "withdrawRewards",
      "outputs": [],
      "stateMutability": "nonpayable",
      "type": "function"
    },
    {
      "stateMutability": "payable",
      "type": "receive"
    },
    {
      "inputs": [
        {
          "internalType": "uint256",
          "name": "_projectId",
          "type": "uint256"
        },
        {
          "internalType": "bytes32",
          "name": "_proposeDescription",
          "type": "bytes32"
        },
        {
          "internalType": "uint256",
          "name": "_startTime",
          "type": "uint256"
        },
        {
          "internalType": "uint256",
          "name": "_endTime",
          "type": "uint256"
        },
        {
          "internalType": "bool",
          "name": "_extended",
          "type": "bool"
        }
      ],
      "name": "createProposal",
      "outputs": [],
      "stateMutability": "nonpayable",
      "type": "function"
    },
    {
      "inputs": [
        {
          "internalType": "uint256",
          "name": "_projectId",
          "type": "uint256"
        },
        {
          "internalType": "bool",
          "name": "support",
          "type": "bool"
        }
      ],
      "name": "vote",
      "outputs": [],
      "stateMutability": "nonpayable",
      "type": "function"
    }
  ],
  "bytecode": "0x60806040523480156200001157600080fd5b50604051620030ec380380620030ec833981810160405260208110156200003757600080fd5b810190808051906020019092919050505060006200005a620001e760201b60201c565b9050806000806101000a81548173ffffffffffffffffffffffffffffffffffffffff021916908373ffffffffffffffffffffffffffffffffffffffff1602179055508073ffffffffffffffffffffffffffffffffffffffff16600073ffffffffffffffffffffffffffffffffffffffff167f8be0079c531659141344cd1fd0a4f28419497f9722a3daafe3b4186f6b6457e060405160405180910390a350600180819055506000600381905550600073ffffffffffffffffffffffffffffffffffffffff168173ffffffffffffffffffffffffffffffffffffffff1614156200018f576040517f08c379a0000000000000000000000000000000000000000000000000000000008152600401808060200182810382526029815260200180620030c36029913960400191505060405180910390fd5b80600260006101000a81548173ffffffffffffffffffffffffffffffffffffffff021916908373ffffffffffffffffffffffffffffffffffffffff160217905550620001e0620001ef60201b60201c565b5062000493565b600033905090565b6000806000429050600042905060007f496e697469616c2070726f706f73616c0000000000000000000000000000000090506040518061014001604052808281526020018673ffffffffffffffffffffffffffffffffffffffff16815260200185815260200184815260200183815260200160008152602001600081526020016001815260200160001515815260200160001515815250600860008681526020019081526020016000206000820151816000015560208201518160010160006101000a81548173ffffffffffffffffffffffffffffffffffffffff021916908373ffffffffffffffffffffffffffffffffffffffff16021790555060408201518160020155606082015181600301556080820151816004015560a0820151816005015560c0820151816006015560e082015181600701556101008201518160080160006101000a81548160ff0219169083151502179055506101208201518160080160016101000a81548160ff0219169083151502179055509050506040518060400160405280858152602001600115158152506009600086815260200190815260200160002060008073ffffffffffffffffffffffffffffffffffffffff1673ffffffffffffffffffffffffffffffffffffffff1681526020019081526020016000206000820151816000015560208201518160010160006101000a81548160ff021916908315150217905550905050838573ffffffffffffffffffffffffffffffffffffffff167f9a04d35e5beebc8236e4119d4176dc83cd0d7160c7d5843520171b176ede9a7983868660405180848152602001838152602001828152602001935050505060405180910390a3837f712ae1383f79ac853f8d882153778e0260ef8f03b504e2866e0593e04d2b291f60405160405180910390a25050505050565b612c2080620004a36000396000f3fe60806040526004361061010d5760003560e01c80637526f51711610095578063c9d27afe11610064578063c9d27afe1461060d578063cbd8ac9a14610654578063d3dc1a75146106b9578063f2fde38b1461071e578063fc0c546a1461076f57610163565b80637526f517146104dd5780638da5cb5b1461054c5780638e0b8e091461058d5780639342c8f4146105d257610163565b80634178b249116100dc5780634178b24914610323578063459f3e421461039b5780635947b9451461040e578063700a4a741461045f578063715018a6146104c657610163565b8063013cf08b14610168578063107046bd14610210578063229149ed1461029f57806336fbad26146102f857610163565b36610163576040517f08c379a000000000000000000000000000000000000000000000000000000000815260040180806020018281038252602e815260200180612b67602e913960400191505060405180910390fd5b600080fd5b34801561017457600080fd5b506101a16004803603602081101561018b57600080fd5b81019080803590602001909291905050506107b0565b604051808b81526020018a73ffffffffffffffffffffffffffffffffffffffff168152602001898152602001888152602001878152602001868152602001858152602001848152602001831515815260200182151581526020019a505050505050505050505060405180910390f35b34801561021c57600080fd5b506102496004803603602081101561023357600080fd5b810190808035906020019092919050505061083e565b604051808873ffffffffffffffffffffffffffffffffffffffff16815260200187815260200186815260200185815260200184815260200183815260200182815260200197505050505050505060405180910390f35b3480156102ab57600080fd5b506102f6600480360360808110156102c257600080fd5b81019080803590602001909291908035906020019092919080359060200190929190803590602001909291905050506108a0565b005b34801561030457600080fd5b5061030d610b76565b6040518082815260200191505060405180910390f35b34801561032f57600080fd5b5061037c6004803603604081101561034657600080fd5b8101908080359060200190929190803573ffffffffffffffffffffffffffffffffffffffff169060200190929190505050610b7c565b6040518083815260200182151581526020019250505060405180910390f35b3480156103a757600080fd5b506103d4600480360360208110156103be57600080fd5b8101908080359060200190929190505050610bba565b604051808473ffffffffffffffffffffffffffffffffffffffff168152602001838152602001828152602001935050505060405180910390f35b34801561041a57600080fd5b5061045d6004803603602081101561043157600080fd5b81019080803573ffffffffffffffffffffffffffffffffffffffff169060200190929190505050610c04565b005b34801561046b57600080fd5b506104ae6004803603602081101561048257600080fd5b81019080803573ffffffffffffffffffffffffffffffffffffffff169060200190929190505050610e2a565b60405180821515815260200191505060405180910390f35b3480156104d257600080fd5b506104db610e4a565b005b3480156104e957600080fd5b506105366004803603604081101561050057600080fd5b8101908080359060200190929190803573ffffffffffffffffffffffffffffffffffffffff169060200190929190505050610fd0565b6040518082815260200191505060405180910390f35b34801561055857600080fd5b50610561610ff5565b604051808273ffffffffffffffffffffffffffffffffffffffff16815260200191505060405180910390f35b34801561059957600080fd5b506105d0600480360360408110156105b057600080fd5b81019080803590602001909291908035906020019092919050505061101e565b005b3480156105de57600080fd5b5061060b600480360360208110156105f557600080fd5b8101908080359060200190929190505050611466565b005b34801561061957600080fd5b506106526004803603604081101561063057600080fd5b8101908080359060200190929190803515159060200190929190505050611808565b005b34801561066057600080fd5b506106b7600480360360a081101561067757600080fd5b8101908080359060200190929190803590602001909291908035906020019092919080359060200190929190803515159060200190929190505050611c85565b005b3480156106c557600080fd5b5061071c600480360360608110156106dc57600080fd5b8101908080359060200190929190803573ffffffffffffffffffffffffffffffffffffffff16906020019092919080359060200190929190505050611e74565b005b34801561072a57600080fd5b5061076d6004803603602081101561074157600080fd5b81019080803573ffffffffffffffffffffffffffffffffffffffff1690602001909291905050506120d6565b005b34801561077b57600080fd5b506107846122e1565b604051808273ffffffffffffffffffffffffffffffffffffffff16815260200191505060405180910390f35b60086020528060005260406000206000915090508060000154908060010160009054906101000a900473ffffffffffffffffffffffffffffffffffffffff16908060020154908060030154908060040154908060050154908060060154908060070154908060080160009054906101000a900460ff16908060080160019054906101000a900460ff1690508a565b60046020528060005260406000206000915090508060000160009054906101000a900473ffffffffffffffffffffffffffffffffffffffff16908060010154908060020154908060030154908060040154908060050154908060060154905087565b42841180156108ae57504283115b610903576040517f08c379a00000000000000000000000000000000000000000000000000000000081526004018080602001828103825260508152602001806129ad6050913960600191505060405180910390fd5b83831161095b576040517f08c379a0000000000000000000000000000000000000000000000000000000008152600401808060200182810382526030815260200180612b956030913960400191505060405180910390fd5b60008211801561096b5750600081115b6109c0576040517f08c379a0000000000000000000000000000000000000000000000000000000008152600401808060200182810382526036815260200180612a586036913960400191505060405180910390fd5b80821415610a19576040517f08c379a0000000000000000000000000000000000000000000000000000000008152600401808060200182810382526028815260200180612ad66028913960400191505060405180910390fd5b610a2f600160035461230790919063ffffffff16565b6003819055506040518060e00160405280610a4861238f565b73ffffffffffffffffffffffffffffffffffffffff1681526020016003548152602001858152602001848152602001838152602001828152602001600081525060046000600354815260200190815260200160002060008201518160000160006101000a81548173ffffffffffffffffffffffffffffffffffffffff021916908373ffffffffffffffffffffffffffffffffffffffff1602179055506020820151816001015560408201518160020155606082015181600301556080820151816004015560a0820151816005015560c08201518160060155905050600354610b2e61238f565b73ffffffffffffffffffffffffffffffffffffffff167f20bfd29f3d906f96fc35742fac45a554b19cbd4e21f8c4c1d84cb58fdfc32c8960405160405180910390a350505050565b60035481565b6009602052816000526040600020602052806000526040600020600091509150508060000154908060010160009054906101000a900460ff16905082565b60066020528060005260406000206000915090508060000160009054906101000a900473ffffffffffffffffffffffffffffffffffffffff16908060010154908060020154905083565b610c0c61238f565b73ffffffffffffffffffffffffffffffffffffffff1660008054906101000a900473ffffffffffffffffffffffffffffffffffffffff1673ffffffffffffffffffffffffffffffffffffffff1614610ccc576040517f08c379a00000000000000000000000000000000000000000000000000000000081526004018080602001828103825260208152602001807f4f776e61626c653a2063616c6c6572206973206e6f7420746865206f776e657281525060200191505060405180910390fd5b60008173ffffffffffffffffffffffffffffffffffffffff166370a08231306040518263ffffffff1660e01b8152600401808273ffffffffffffffffffffffffffffffffffffffff16815260200191505060206040518083038186803b158015610d3557600080fd5b505afa158015610d49573d6000803e3d6000fd5b505050506040513d6020811015610d5f57600080fd5b810190808051906020019092919050505090508173ffffffffffffffffffffffffffffffffffffffff1663a9059cbb610d9661238f565b836040518363ffffffff1660e01b8152600401808373ffffffffffffffffffffffffffffffffffffffff16815260200182815260200192505050602060405180830381600087803b158015610dea57600080fd5b505af1158015610dfe573d6000803e3d6000fd5b505050506040513d6020811015610e1457600080fd5b8101908080519060200190929190505050505050565b60076020528060005260406000206000915054906101000a900460ff1681565b610e5261238f565b73ffffffffffffffffffffffffffffffffffffffff1660008054906101000a900473ffffffffffffffffffffffffffffffffffffffff1673ffffffffffffffffffffffffffffffffffffffff1614610f12576040517f08c379a00000000000000000000000000000000000000000000000000000000081526004018080602001828103825260208152602001807f4f776e61626c653a2063616c6c6572206973206e6f7420746865206f776e657281525060200191505060405180910390fd5b600073ffffffffffffffffffffffffffffffffffffffff1660008054906101000a900473ffffffffffffffffffffffffffffffffffffffff1673ffffffffffffffffffffffffffffffffffffffff167f8be0079c531659141344cd1fd0a4f28419497f9722a3daafe3b4186f6b6457e060405160405180910390a360008060006101000a81548173ffffffffffffffffffffffffffffffffffffffff021916908373ffffffffffffffffffffffffffffffffffffffff160217905550565b6005602052816000526040600020602052806000526040600020600091509150505481565b60008060009054906101000a900473ffffffffffffffffffffffffffffffffffffffff16905090565b6000600460008481526020019081526020016000206040518060e00160405290816000820160009054906101000a900473ffffffffffffffffffffffffffffffffffffffff1673ffffffffffffffffffffffffffffffffffffffff1673ffffffffffffffffffffffffffffffffffffffff16815260200160018201548152602001600282015481526020016003820154815260200160048201548152602001600582015481526020016006820154815250509050600073ffffffffffffffffffffffffffffffffffffffff16816000015173ffffffffffffffffffffffffffffffffffffffff16141561115c576040517f08c379a000000000000000000000000000000000000000000000000000000000815260040180806020018281038252602181526020018061291e6021913960400191505060405180910390fd5b428160600151116111b8576040517f08c379a00000000000000000000000000000000000000000000000000000000081526004018080602001828103825260238152602001806128fb6023913960400191505060405180910390fd5b8060a001516111d4838360c0015161230790919063ffffffff16565b111561122b576040517f08c379a000000000000000000000000000000000000000000000000000000000815260040180806020018281038252602781526020018061287d6027913960400191505060405180910390fd5b600260009054906101000a900473ffffffffffffffffffffffffffffffffffffffff1673ffffffffffffffffffffffffffffffffffffffff166323b872dd61127161238f565b30856040518463ffffffff1660e01b8152600401808473ffffffffffffffffffffffffffffffffffffffff1681526020018373ffffffffffffffffffffffffffffffffffffffff1681526020018281526020019350505050602060405180830381600087803b1580156112e357600080fd5b505af11580156112f7573d6000803e3d6000fd5b505050506040513d602081101561130d57600080fd5b810190808051906020019092919050505050611336828260c0015161230790919063ffffffff16565b60046000858152602001908152602001600020600601819055506113ba8260056000868152602001908152602001600020600061137161238f565b73ffffffffffffffffffffffffffffffffffffffff1673ffffffffffffffffffffffffffffffffffffffff1681526020019081526020016000205461230790919063ffffffff16565b6005600085815260200190815260200160002060006113d761238f565b73ffffffffffffffffffffffffffffffffffffffff1673ffffffffffffffffffffffffffffffffffffffff16815260200190815260200160002081905550818361141f61238f565b73ffffffffffffffffffffffffffffffffffffffff167f069f395fd833af2bf669bcfe3672d02bf3c3e5fe1ec9d2ba309f60f3855bd64f60405160405180910390a4505050565b600060056000838152602001908152602001600020600061148561238f565b73ffffffffffffffffffffffffffffffffffffffff1673ffffffffffffffffffffffffffffffffffffffff1681526020019081526020016000205411611516576040517f08c379a0000000000000000000000000000000000000000000000000000000008152600401808060200182810382526033815260200180612b346033913960400191505060405180910390fd5b6007600061152261238f565b73ffffffffffffffffffffffffffffffffffffffff1673ffffffffffffffffffffffffffffffffffffffff16815260200190815260200160002060009054906101000a900460ff16156115c0576040517f08c379a00000000000000000000000000000000000000000000000000000000081526004018080602001828103825260378152602001806128206037913960400191505060405180910390fd5b60006006600083815260200190815260200160002060000160009054906101000a900473ffffffffffffffffffffffffffffffffffffffff16905060006006600084815260200190815260200160002060020154905060006116aa8261169c600460008881526020019081526020016000206006015460056000898152602001908152602001600020600061165361238f565b73ffffffffffffffffffffffffffffffffffffffff1673ffffffffffffffffffffffffffffffffffffffff1681526020019081526020016000205461239790919063ffffffff16565b6123e190919063ffffffff16565b90506001600760006116ba61238f565b73ffffffffffffffffffffffffffffffffffffffff1673ffffffffffffffffffffffffffffffffffffffff16815260200190815260200160002060006101000a81548160ff02191690831515021790555061173481600660008781526020019081526020016000206002015461246790919063ffffffff16565b60066000868152602001908152602001600020600201819055508273ffffffffffffffffffffffffffffffffffffffff1663a9059cbb61177261238f565b836040518363ffffffff1660e01b8152600401808373ffffffffffffffffffffffffffffffffffffffff16815260200182815260200192505050602060405180830381600087803b1580156117c657600080fd5b505af11580156117da573d6000803e3d6000fd5b505050506040513d60208110156117f057600080fd5b81019080805190602001909291905050505050505050565b81600073ffffffffffffffffffffffffffffffffffffffff166004600083815260200190815260200160002060000160009054906101000a900473ffffffffffffffffffffffffffffffffffffffff1673ffffffffffffffffffffffffffffffffffffffff1614156118c5576040517f08c379a00000000000000000000000000000000000000000000000000000000081526004018080602001828103825260288152602001806128a46028913960400191505060405180910390fd5b60006005600083815260200190815260200160002060006118e461238f565b73ffffffffffffffffffffffffffffffffffffffff1673ffffffffffffffffffffffffffffffffffffffff1681526020019081526020016000205411611975576040517f08c379a000000000000000000000000000000000000000000000000000000000815260040180806020018281038252604181526020018061296c6041913960600191505060405180910390fd5b426008600083815260200190815260200160002060040154116119e3576040517f08c379a000000000000000000000000000000000000000000000000000000000815260040180806020018281038252602f8152602001806128cc602f913960400191505060405180910390fd5b600960008281526020019081526020016000206000611a0061238f565b73ffffffffffffffffffffffffffffffffffffffff1673ffffffffffffffffffffffffffffffffffffffff16815260200190815260200160002060010160009054906101000a900460ff1615611aa1576040517f08c379a0000000000000000000000000000000000000000000000000000000008152600401808060200182810382526026815260200180612bc56026913960400191505060405180910390fd5b81611aef57611ad06001600860008681526020019081526020016000206006015461230790919063ffffffff16565b6008600085815260200190815260200160002060060181905550611b34565b611b196001600860008681526020019081526020016000206005015461230790919063ffffffff16565b60086000858152602001908152602001600020600501819055505b611b5e6001600860008681526020019081526020016000206007015461230790919063ffffffff16565b6008600085815260200190815260200160002060070181905550604051806040016040528084815260200160011515815250600960008581526020019081526020016000206000611bad61238f565b73ffffffffffffffffffffffffffffffffffffffff1673ffffffffffffffffffffffffffffffffffffffff1681526020019081526020016000206000820151816000015560208201518160010160006101000a81548160ff021916908315150217905550905050611c1c61238f565b73ffffffffffffffffffffffffffffffffffffffff16837f1abe610cf2bf87e57dcc1181fcf5ac0934e843d8344ab9eed6e86c799f62585e60086000878152602001908152602001600020600701546040518082815260200191505060405180910390a3505050565b846004600082815260200190815260200160002060000160009054906101000a900473ffffffffffffffffffffffffffffffffffffffff1673ffffffffffffffffffffffffffffffffffffffff16611cdb61238f565b73ffffffffffffffffffffffffffffffffffffffff1614611d47576040517f08c379a000000000000000000000000000000000000000000000000000000000815260040180806020018281038252603a815260200180612a1e603a913960400191505060405180910390fd5b4284118015611d5557504283115b611daa576040517f08c379a0000000000000000000000000000000000000000000000000000000008152600401808060200182810382526048815260200180612a8e6048913960600191505060405180910390fd5b838311611e02576040517f08c379a0000000000000000000000000000000000000000000000000000000008152600401808060200182810382526036815260200180612afe6036913960400191505060405180910390fd5b6000801916851415611e5f576040517f08c379a000000000000000000000000000000000000000000000000000000000815260040180806020018281038252602d81526020018061293f602d913960400191505060405180910390fd5b611e6c85878686866124b1565b505050505050565b6004600084815260200190815260200160002060000160009054906101000a900473ffffffffffffffffffffffffffffffffffffffff1673ffffffffffffffffffffffffffffffffffffffff16611ec961238f565b73ffffffffffffffffffffffffffffffffffffffff1614611f35576040517f08c379a000000000000000000000000000000000000000000000000000000000815260040180806020018281038252602c8152602001806127f4602c913960400191505060405180910390fd5b8173ffffffffffffffffffffffffffffffffffffffff166323b872dd611f5961238f565b30846040518463ffffffff1660e01b8152600401808473ffffffffffffffffffffffffffffffffffffffff1681526020018373ffffffffffffffffffffffffffffffffffffffff1681526020018281526020019350505050602060405180830381600087803b158015611fcb57600080fd5b505af1158015611fdf573d6000803e3d6000fd5b505050506040513d6020811015611ff557600080fd5b81019080805190602001909291905050505060405180606001604052808373ffffffffffffffffffffffffffffffffffffffff16815260200184815260200161205d83600660008881526020019081526020016000206002015461230790919063ffffffff16565b8152506006600085815260200190815260200160002060008201518160000160006101000a81548173ffffffffffffffffffffffffffffffffffffffff021916908373ffffffffffffffffffffffffffffffffffffffff1602179055506020820151816001015560408201518160020155905050505050565b6120de61238f565b73ffffffffffffffffffffffffffffffffffffffff1660008054906101000a900473ffffffffffffffffffffffffffffffffffffffff1673ffffffffffffffffffffffffffffffffffffffff161461219e576040517f08c379a00000000000000000000000000000000000000000000000000000000081526004018080602001828103825260208152602001807f4f776e61626c653a2063616c6c6572206973206e6f7420746865206f776e657281525060200191505060405180910390fd5b600073ffffffffffffffffffffffffffffffffffffffff168173ffffffffffffffffffffffffffffffffffffffff161415612224576040517f08c379a00000000000000000000000000000000000000000000000000000000081526004018080602001828103825260268152602001806128576026913960400191505060405180910390fd5b8073ffffffffffffffffffffffffffffffffffffffff1660008054906101000a900473ffffffffffffffffffffffffffffffffffffffff1673ffffffffffffffffffffffffffffffffffffffff167f8be0079c531659141344cd1fd0a4f28419497f9722a3daafe3b4186f6b6457e060405160405180910390a3806000806101000a81548173ffffffffffffffffffffffffffffffffffffffff021916908373ffffffffffffffffffffffffffffffffffffffff16021790555050565b600260009054906101000a900473ffffffffffffffffffffffffffffffffffffffff1681565b600080828401905083811015612385576040517f08c379a000000000000000000000000000000000000000000000000000000000815260040180806020018281038252601b8152602001807f536166654d6174683a206164646974696f6e206f766572666c6f77000000000081525060200191505060405180910390fd5b8091505092915050565b600033905090565b60006123d983836040518060400160405280601a81526020017f536166654d6174683a206469766973696f6e206279207a65726f00000000000081525061266d565b905092915050565b6000808314156123f45760009050612461565b600082840290508284828161240557fe5b041461245c576040517f08c379a00000000000000000000000000000000000000000000000000000000081526004018080602001828103825260218152602001806129fd6021913960400191505060405180910390fd5b809150505b92915050565b60006124a983836040518060400160405280601e81526020017f536166654d6174683a207375627472616374696f6e206f766572666c6f770000815250612733565b905092915050565b60006124bb61238f565b90506040518061014001604052808781526020018273ffffffffffffffffffffffffffffffffffffffff168152602001868152602001858152602001848152602001600081526020016000815260200160008152602001600015158152602001831515815250600860008781526020019081526020016000206000820151816000015560208201518160010160006101000a81548173ffffffffffffffffffffffffffffffffffffffff021916908373ffffffffffffffffffffffffffffffffffffffff16021790555060408201518160020155606082015181600301556080820151816004015560a0820151816005015560c0820151816006015560e082015181600701556101008201518160080160006101000a81548160ff0219169083151502179055506101208201518160080160016101000a81548160ff021916908315150217905550905050848173ffffffffffffffffffffffffffffffffffffffff167f9a04d35e5beebc8236e4119d4176dc83cd0d7160c7d5843520171b176ede9a7988878760405180848152602001838152602001828152602001935050505060405180910390a3505050505050565b60008083118290612719576040517f08c379a00000000000000000000000000000000000000000000000000000000081526004018080602001828103825283818151815260200191508051906020019080838360005b838110156126de5780820151818401526020810190506126c3565b50505050905090810190601f16801561270b5780820380516001836020036101000a031916815260200191505b509250505060405180910390fd5b50600083858161272557fe5b049050809150509392505050565b60008383111582906127e0576040517f08c379a00000000000000000000000000000000000000000000000000000000081526004018080602001828103825283818151815260200191508051906020019080838360005b838110156127a557808201518184015260208101905061278a565b50505050905090810190601f1680156127d25780820380516001836020036101000a031916815260200191505b509250505060405180910390fd5b506000838503905080915050939250505056fe44347070436f72653a204f6e6c792076616c69642063726561746f722063616e207365656420746f6b656e7344347070436f72653a204e6f7420656c696769626c6520746f20616e7920726577617264732066726f6d20746869732070726f6a6563744f776e61626c653a206e6577206f776e657220697320746865207a65726f206164647265737344347070436f72653a2050726f6a65637420686173206265656e2066756c6c792066756e64656444347070476f7665726e616e63653a2070726f6a656374496420646f6573206e6f7420657869737444347070476f7665726e616e63653a2050726f706f73616c2074696d6520686173206265656e20657863656564656444347070436f72653a20456e6454696d6520686173206265656e20657863656564656444347070436f72653a2050726f6a656374496420646f65736e277420657869737444347070476f7665726e616e63653a20496e76616c69642070726f706f73616c2064657363726970746f696f6e44347070476f7665726e616e63653a204e6f7420616c6c6f77656420746f20706172746970696361746520696e207468697320766f74696e672070726f6365737344347070436f72653a20737461727454696d6520616e6420656e6454696d652073686f756c642062652067726561746572207468616e206f7220657175616c20746f2063757272656e7420626c6f636b536166654d6174683a206d756c7469706c69636174696f6e206f766572666c6f7744347070476f7665726e616e63653a204163636573736564207265737472696374656420746f206f6e6c792076616c6c69642063726561746f7244347070436f72653a20536f6643617020616e642048617264436170206d7573742062652067726561746572207468616e207a65726f44347070476f7665726e616e63653a20737461727454696d65202620656e6454696d65206d7573742062652067726561746572207468616e20626c6f636b2e74696d657374616d7044347070436f72653a20536f6674436170206d757374206e6f7420657175616c204861726443617044347070476f7665726e616e63653a20656e6454696d65206d7573742062652067726561746572207468616e20737461727454696d6544347070436f72653a204e6f7420656c696769626c6520746f20726577617264732066726f6d20746869732070726f6a65637444347070476f7665726e616e63653a204574686572206465706f73697473206973206e6f7420616c6c6f7765642144347070436f72653a20656e6454696d65206d7573742062652067726561746572207468616e20737461727454696d6544347070476f7665726e616e63653a206475706c696361746520766f74657320666f756e6421a26469706673582212202ebe8ecf83c0af09647d51a1259ebedab37f3d3d9a7cc434420ce80ddcb74af264736f6c6343000706003344347070476f7665726e616e63653a20746f6b656e20697320746865207a65726f2061646472657373",
  "immutableReferences": {},
  "source": "// SPDX-License-Identifier: MIT\r\npragma solidity 0.7.6;\r\n// pragma abicoder v2;\r\n\r\nimport \"./D4ppCore.sol\";\r\nimport \"@openzeppelin/contracts/math/SafeMath.sol\";\r\n\r\ncontract D4ppGovernance is D4ppCore {\r\n    using SafeMath for uint;\r\n\r\n    /// @notice Records Proposal\r\n    struct Proposal {\r\n        // Propose subject\r\n        bytes32 description;\r\n        // Creator of the proposal\r\n        address proposer;\r\n        // Id of the project the call is to be made\r\n        uint projectId;\r\n        // The block at which voting begins\r\n        uint startTime;\r\n        // The block at which voting ends: votes must be cast prior to this block\r\n        uint endTime;\r\n        // Current number of votes in favor of this proposal\r\n        uint forVotes;\r\n        // Current number of votes in opposition to this proposal\r\n        uint againstVotes;\r\n        // Total number of votes that has been registered;\r\n        uint totalVotes;\r\n        // Flag marking whether the proposal has been executed\r\n        bool executed;\r\n        // Flag marking whether the proposal voting time has been extended\r\n        // Voting time can be extended once, if the proposal outcome has changed during CLOSING_PERIOD\r\n        bool extended;\r\n    }\r\n\r\n    /// @notice Ballot receipt record for a voter\r\n    struct Receipt {\r\n        // Project Id of the proposed vote\r\n        uint projectId;\r\n        // Whether or not a vote has been cast\r\n        bool hasVoted;\r\n    }\r\n\r\n\r\n    /// @notice The official record of all proposals ever proposed\r\n    mapping(uint => Proposal) public proposals;\r\n\r\n    /// @notice Receipts of ballots for the entire set of voters\r\n    mapping(uint => mapping(address => Receipt)) public receipts;\r\n\r\n    /// @notice An event emitted when a new proposal is created\r\n    event ProposalCreated(\r\n        bytes32 description,\r\n        address indexed proposer,\r\n        uint indexed projectId,\r\n        uint startTime,\r\n        uint endTime\r\n    );\r\n\r\n    /// @notice An event emitted when a vote has been cast on a proposal\r\n    event Voted(uint indexed proposalId, address indexed voter, uint votes);\r\n\r\n    /// @notice An event emitted when a proposal has been executed\r\n    event ProposalExecuted(uint indexed proposalId);\r\n\r\n    /// @notice Only valid owner is allowed to call the fucntion\r\n    modifier onlyValidCreator(uint _projectId) {\r\n        require(\r\n            _msgSender() == projects[_projectId].creator,\r\n            \"D4ppGovernance: Accessed restricted to only vallid creator\"\r\n        );\r\n        _;\r\n    }\r\n\r\n    /// @notice Only vote while current time < endtime\r\n    modifier validateVote(uint _projectId) {\r\n        require(\r\n            projects[_projectId].creator != address(0),\r\n            \"D4ppGovernance: projectId does not exist\"\r\n        );\r\n        require(\r\n            grants[_projectId][_msgSender()] > 0,\r\n            \"D4ppGovernance: Not allowed to partipicate in this voting process\"\r\n        );\r\n        require(\r\n            proposals[_projectId].endTime > block.timestamp,\r\n            \"D4ppGovernance: Proposal time has been exceeded\"\r\n        );\r\n        require(\r\n            !receipts[_projectId][_msgSender()].hasVoted,\r\n            \"D4ppGovernance: duplicate votes found!\"\r\n        );\r\n        _;\r\n    }\r\n\r\n    /// @param _token: Address of D4PP token\r\n    constructor(address _token) {\r\n        projectCount = 0;\r\n        require(_token != address(0), \"D4ppGovernance: token is the zero address\");\r\n        token = _token;\r\n        _initialize();\r\n    }\r\n\r\n    receive() external payable {\r\n        revert(\"D4ppGovernance: Ether deposits is not allowed!\");\r\n    }\r\n\r\n    function _initialize() internal {\r\n        address _proposer = address(0);\r\n        uint _projectId = 0;\r\n        uint _startTime = block.timestamp;\r\n        uint _endTime = block.timestamp;\r\n        bytes32 _description = bytes32(\"Initial proposal\");\r\n        // Create a dummy proposal so that indexes start from 1\r\n        proposals[_projectId] = Proposal(\r\n            _description,\r\n            _proposer,\r\n            _projectId,\r\n            _startTime,\r\n            _endTime,\r\n            0,\r\n            0,\r\n            1,\r\n            false,\r\n            false\r\n        );\r\n\r\n        receipts[_projectId][address(0)] = Receipt(_projectId, true);\r\n        emit ProposalCreated(\r\n            _description, \r\n            _proposer,\r\n            _projectId,\r\n            _startTime,\r\n            _endTime\r\n        );\r\n        emit ProposalExecuted(_projectId);\r\n    }\r\n\r\n    function createProposal(uint _projectId, bytes32 _proposeDescription, uint _startTime, uint _endTime, bool _extended) public onlyValidCreator(_projectId) {\r\n        require(\r\n            _startTime > block.timestamp && \r\n            _endTime > block.timestamp,\r\n            \"D4ppGovernance: startTime & endTime must be greater than block.timestamp\"\r\n        );\r\n        require(\r\n            _endTime > _startTime,\r\n            \"D4ppGovernance: endTime must be greater than startTime\"\r\n        );\r\n        require(\r\n            _proposeDescription != bytes32(\"\"), \r\n            \"D4ppGovernance: Invalid proposal descriptoion\"\r\n        );\r\n        _propose(_proposeDescription, _projectId, _startTime, _endTime, _extended);\r\n    }\r\n\r\n    function _propose(bytes32 _description, uint _projectId, uint _startTime, uint _endTime, bool _extended) internal {\r\n        address _proposer = _msgSender();\r\n        proposals[_projectId] = Proposal(\r\n            _description,\r\n            _proposer,\r\n            _projectId,\r\n            _startTime,\r\n            _endTime,\r\n            0,\r\n            0,\r\n            0,\r\n            false,\r\n            _extended\r\n        );\r\n        emit ProposalCreated(\r\n            _description, \r\n            _proposer,\r\n            _projectId,\r\n            _startTime,\r\n            _endTime\r\n        );\r\n    }\r\n\r\n    function vote(uint _projectId, bool support) public validateVote(_projectId) {\r\n        if(!support) {\r\n            proposals[_projectId].againstVotes = proposals[_projectId].againstVotes.add(1);\r\n        } else {\r\n            proposals[_projectId].forVotes = proposals[_projectId].forVotes.add(1);\r\n        }\r\n\r\n        proposals[_projectId].totalVotes = proposals[_projectId].totalVotes.add(1);\r\n        receipts[_projectId][_msgSender()] = Receipt(_projectId, true);\r\n        emit Voted(_projectId, _msgSender(), proposals[_projectId].totalVotes);\r\n    }\r\n\r\n}",
  "sourcePath": "C:/Users/DragonLord/Desktop/dApp/d4pp_project/contracts/D4ppGovernance.sol",
  "compiler": {
    "name": "solc",
    "version": "0.7.6+commit.7338295f.Emscripten.clang"
  },
  "schemaVersion": "3.3.3",
  "updatedAt": "2021-01-06T21:29:22.160Z",
  "devdoc": {
    "kind": "dev",
    "methods": {
      "constructor": {
        "params": {
          "_token": ": Address of D4PP token"
        }
      },
      "owner()": {
        "details": "Returns the address of the current owner."
      },
      "registerProject(uint256,uint256,uint256,uint256)": {
        "details": "Register new project",
        "params": {
          "_endTime": ": End time of when the crowdfund will end",
          "_softCap": ": ",
          "_startTime": ": Timestamp of when the crowdfund will start"
        }
      },
      "renounceOwnership()": {
        "details": "Leaves the contract without owner. It will not be possible to call `onlyOwner` functions anymore. Can only be called by the current owner. NOTE: Renouncing ownership will leave the contract without an owner, thereby removing any functionality that is only available to the owner."
      },
      "transferOwnership(address)": {
        "details": "Transfers ownership of the contract to a new account (`newOwner`). Can only be called by the current owner."
      }
    },
    "version": 1
  },
  "userdoc": {
    "events": {
      "GrantFunds(address,uint256,uint256)": {
        "notice": "An event emitted when a user grants funds to a specific project"
      },
      "ProjectCreated(address,uint256)": {
        "notice": "An event emitted when a Project is been created"
      },
      "ProposalCreated(bytes32,address,uint256,uint256,uint256)": {
        "notice": "An event emitted when a new proposal is created"
      },
      "ProposalExecuted(uint256)": {
        "notice": "An event emitted when a proposal has been executed"
      },
      "Voted(uint256,address,uint256)": {
        "notice": "An event emitted when a vote has been cast on a proposal"
      }
    },
    "kind": "user",
    "methods": {
      "grants(uint256,address)": {
        "notice": "Stores a record of all the grants made"
      },
      "projectCount()": {
        "notice": "Keeps track of total projects count"
      },
      "projects(uint256)": {
        "notice": "Stores a record of all the registered projects"
      },
      "proposals(uint256)": {
        "notice": "The official record of all proposals ever proposed"
      },
      "receipts(uint256,address)": {
        "notice": "Receipts of ballots for the entire set of voters"
      },
      "rewardsPaid(address)": {
        "notice": "Keeps tracks of the paid rewards"
      },
      "rewardsPool(uint256)": {
        "notice": "Keeps track of tokens seeded to the rewardPool "
      },
      "token()": {
        "notice": "Stores D4PP Token address"
      }
    },
    "version": 1
  }
}