{
  "contractName": "D4ppGovernance",
  "abi": [
    {
      "inputs": [
        {
          "internalType": "address",
          "name": "_token",
          "type": "address"
        }
      ],
      "stateMutability": "nonpayable",
      "type": "constructor"
    },
    {
      "anonymous": false,
      "inputs": [
        {
          "indexed": true,
          "internalType": "address",
          "name": "user",
          "type": "address"
        },
        {
          "indexed": true,
          "internalType": "uint256",
          "name": "projectId",
          "type": "uint256"
        },
        {
          "indexed": true,
          "internalType": "uint256",
          "name": "amount",
          "type": "uint256"
        }
      ],
      "name": "GrantFunds",
      "type": "event"
    },
    {
      "anonymous": false,
      "inputs": [
        {
          "indexed": true,
          "internalType": "address",
          "name": "previousOwner",
          "type": "address"
        },
        {
          "indexed": true,
          "internalType": "address",
          "name": "newOwner",
          "type": "address"
        }
      ],
      "name": "OwnershipTransferred",
      "type": "event"
    },
    {
      "anonymous": false,
      "inputs": [
        {
          "indexed": true,
          "internalType": "address",
          "name": "creator",
          "type": "address"
        },
        {
          "indexed": true,
          "internalType": "uint256",
          "name": "projectId",
          "type": "uint256"
        }
      ],
      "name": "ProjectCreated",
      "type": "event"
    },
    {
      "anonymous": false,
      "inputs": [
        {
          "indexed": false,
          "internalType": "bytes32",
          "name": "description",
          "type": "bytes32"
        },
        {
          "indexed": true,
          "internalType": "address",
          "name": "proposer",
          "type": "address"
        },
        {
          "indexed": true,
          "internalType": "uint256",
          "name": "projectId",
          "type": "uint256"
        },
        {
          "indexed": false,
          "internalType": "uint256",
          "name": "startTime",
          "type": "uint256"
        },
        {
          "indexed": false,
          "internalType": "uint256",
          "name": "endTime",
          "type": "uint256"
        }
      ],
      "name": "ProposalCreated",
      "type": "event"
    },
    {
      "anonymous": false,
      "inputs": [
        {
          "indexed": true,
          "internalType": "uint256",
          "name": "proposalId",
          "type": "uint256"
        }
      ],
      "name": "ProposalExecuted",
      "type": "event"
    },
    {
      "anonymous": false,
      "inputs": [
        {
          "indexed": true,
          "internalType": "uint256",
          "name": "proposalId",
          "type": "uint256"
        },
        {
          "indexed": true,
          "internalType": "address",
          "name": "voter",
          "type": "address"
        },
        {
          "indexed": true,
          "internalType": "bool",
          "name": "support",
          "type": "bool"
        },
        {
          "indexed": false,
          "internalType": "uint256",
          "name": "votes",
          "type": "uint256"
        }
      ],
      "name": "Voted",
      "type": "event"
    },
    {
      "inputs": [
        {
          "internalType": "uint256",
          "name": "_projectId",
          "type": "uint256"
        },
        {
          "internalType": "uint256",
          "name": "_amount",
          "type": "uint256"
        }
      ],
      "name": "grantFunds",
      "outputs": [],
      "stateMutability": "nonpayable",
      "type": "function"
    },
    {
      "inputs": [
        {
          "internalType": "uint256",
          "name": "",
          "type": "uint256"
        },
        {
          "internalType": "address",
          "name": "",
          "type": "address"
        }
      ],
      "name": "grants",
      "outputs": [
        {
          "internalType": "uint256",
          "name": "",
          "type": "uint256"
        }
      ],
      "stateMutability": "view",
      "type": "function"
    },
    {
      "inputs": [],
      "name": "owner",
      "outputs": [
        {
          "internalType": "address",
          "name": "",
          "type": "address"
        }
      ],
      "stateMutability": "view",
      "type": "function"
    },
    {
      "inputs": [],
      "name": "projectCount",
      "outputs": [
        {
          "internalType": "uint256",
          "name": "",
          "type": "uint256"
        }
      ],
      "stateMutability": "view",
      "type": "function"
    },
    {
      "inputs": [
        {
          "internalType": "uint256",
          "name": "",
          "type": "uint256"
        }
      ],
      "name": "projects",
      "outputs": [
        {
          "internalType": "address",
          "name": "creator",
          "type": "address"
        },
        {
          "internalType": "uint256",
          "name": "projectId",
          "type": "uint256"
        },
        {
          "internalType": "uint256",
          "name": "startTime",
          "type": "uint256"
        },
        {
          "internalType": "uint256",
          "name": "endTime",
          "type": "uint256"
        },
        {
          "internalType": "uint256",
          "name": "softCap",
          "type": "uint256"
        },
        {
          "internalType": "uint256",
          "name": "hardCap",
          "type": "uint256"
        },
        {
          "internalType": "uint256",
          "name": "currentRaised",
          "type": "uint256"
        }
      ],
      "stateMutability": "view",
      "type": "function"
    },
    {
      "inputs": [
        {
          "internalType": "uint256",
          "name": "",
          "type": "uint256"
        }
      ],
      "name": "proposals",
      "outputs": [
        {
          "internalType": "bytes32",
          "name": "description",
          "type": "bytes32"
        },
        {
          "internalType": "address",
          "name": "proposer",
          "type": "address"
        },
        {
          "internalType": "uint256",
          "name": "projectId",
          "type": "uint256"
        },
        {
          "internalType": "uint256",
          "name": "startTime",
          "type": "uint256"
        },
        {
          "internalType": "uint256",
          "name": "endTime",
          "type": "uint256"
        },
        {
          "internalType": "uint256",
          "name": "forVotes",
          "type": "uint256"
        },
        {
          "internalType": "uint256",
          "name": "againstVotes",
          "type": "uint256"
        },
        {
          "internalType": "uint256",
          "name": "totalVotes",
          "type": "uint256"
        },
        {
          "internalType": "bool",
          "name": "executed",
          "type": "bool"
        },
        {
          "internalType": "bool",
          "name": "extended",
          "type": "bool"
        }
      ],
      "stateMutability": "view",
      "type": "function"
    },
    {
      "inputs": [
        {
          "internalType": "address",
          "name": "",
          "type": "address"
        }
      ],
      "name": "receipts",
      "outputs": [
        {
          "internalType": "uint256",
          "name": "projectId",
          "type": "uint256"
        },
        {
          "internalType": "bool",
          "name": "hasVoted",
          "type": "bool"
        }
      ],
      "stateMutability": "view",
      "type": "function"
    },
    {
      "inputs": [
        {
          "internalType": "uint256",
          "name": "_startTime",
          "type": "uint256"
        },
        {
          "internalType": "uint256",
          "name": "_endTime",
          "type": "uint256"
        },
        {
          "internalType": "uint256",
          "name": "_softCap",
          "type": "uint256"
        },
        {
          "internalType": "uint256",
          "name": "_hardCap",
          "type": "uint256"
        }
      ],
      "name": "registerProject",
      "outputs": [],
      "stateMutability": "nonpayable",
      "type": "function"
    },
    {
      "inputs": [],
      "name": "renounceOwnership",
      "outputs": [],
      "stateMutability": "nonpayable",
      "type": "function"
    },
    {
      "inputs": [
        {
          "internalType": "address",
          "name": "",
          "type": "address"
        }
      ],
      "name": "rewardsPaid",
      "outputs": [
        {
          "internalType": "bool",
          "name": "",
          "type": "bool"
        }
      ],
      "stateMutability": "view",
      "type": "function"
    },
    {
      "inputs": [
        {
          "internalType": "uint256",
          "name": "",
          "type": "uint256"
        }
      ],
      "name": "rewardsPool",
      "outputs": [
        {
          "internalType": "address",
          "name": "token",
          "type": "address"
        },
        {
          "internalType": "uint256",
          "name": "projectId",
          "type": "uint256"
        },
        {
          "internalType": "uint256",
          "name": "amount",
          "type": "uint256"
        }
      ],
      "stateMutability": "view",
      "type": "function"
    },
    {
      "inputs": [
        {
          "internalType": "uint256",
          "name": "_projectId",
          "type": "uint256"
        },
        {
          "internalType": "address",
          "name": "_token",
          "type": "address"
        },
        {
          "internalType": "uint256",
          "name": "_amount",
          "type": "uint256"
        }
      ],
      "name": "seedTokensToProject",
      "outputs": [],
      "stateMutability": "nonpayable",
      "type": "function"
    },
    {
      "inputs": [],
      "name": "token",
      "outputs": [
        {
          "internalType": "address",
          "name": "",
          "type": "address"
        }
      ],
      "stateMutability": "view",
      "type": "function"
    },
    {
      "inputs": [
        {
          "internalType": "address",
          "name": "newOwner",
          "type": "address"
        }
      ],
      "name": "transferOwnership",
      "outputs": [],
      "stateMutability": "nonpayable",
      "type": "function"
    },
    {
      "inputs": [
        {
          "internalType": "address",
          "name": "_tokenAddress",
          "type": "address"
        }
      ],
      "name": "withdarAnyERC20Tokens",
      "outputs": [],
      "stateMutability": "nonpayable",
      "type": "function"
    },
    {
      "inputs": [
        {
          "internalType": "uint256",
          "name": "_projectId",
          "type": "uint256"
        }
      ],
      "name": "withdrawRewards",
      "outputs": [],
      "stateMutability": "nonpayable",
      "type": "function"
    },
    {
      "stateMutability": "payable",
      "type": "receive"
    },
    {
      "inputs": [
        {
          "internalType": "uint256",
          "name": "_projectId",
          "type": "uint256"
        },
        {
          "internalType": "bytes32",
          "name": "_proposeDescription",
          "type": "bytes32"
        },
        {
          "internalType": "uint256",
          "name": "_startTime",
          "type": "uint256"
        },
        {
          "internalType": "uint256",
          "name": "_endTime",
          "type": "uint256"
        }
      ],
      "name": "createProposal",
      "outputs": [],
      "stateMutability": "nonpayable",
      "type": "function"
    },
    {
      "inputs": [
        {
          "internalType": "uint256",
          "name": "_projectId",
          "type": "uint256"
        }
      ],
      "name": "vote",
      "outputs": [
        {
          "components": [
            {
              "internalType": "uint256",
              "name": "projectId",
              "type": "uint256"
            },
            {
              "internalType": "bool",
              "name": "hasVoted",
              "type": "bool"
            }
          ],
          "internalType": "struct D4ppGovernance.Receipt",
          "name": "",
          "type": "tuple"
        }
      ],
      "stateMutability": "nonpayable",
      "type": "function"
    }
  ],
  "bytecode": "0x60806040523480156200001157600080fd5b506040516200310c3803806200310c833981810160405281019062000037919062000480565b8060006200004a620001d860201b60201c565b9050806000806101000a81548173ffffffffffffffffffffffffffffffffffffffff021916908373ffffffffffffffffffffffffffffffffffffffff1602179055508073ffffffffffffffffffffffffffffffffffffffff16600073ffffffffffffffffffffffffffffffffffffffff167f8be0079c531659141344cd1fd0a4f28419497f9722a3daafe3b4186f6b6457e060405160405180910390a350600180819055506000600381905550600073ffffffffffffffffffffffffffffffffffffffff168173ffffffffffffffffffffffffffffffffffffffff1614156200017f576040517f08c379a0000000000000000000000000000000000000000000000000000000008152600401808060200182810382526029815260200180620030e36029913960400191505060405180910390fd5b80600260006101000a81548173ffffffffffffffffffffffffffffffffffffffff021916908373ffffffffffffffffffffffffffffffffffffffff16021790555050620001d1620001e060201b60201c565b506200056d565b600033905090565b6000806000429050600042905060007f496e697469616c2070726f706f73616c0000000000000000000000000000000090506040518061014001604052808281526020018673ffffffffffffffffffffffffffffffffffffffff16815260200185815260200184815260200183815260200160008152602001600081526020016001815260200160001515815260200160001515815250600860008681526020019081526020016000206000820151816000015560208201518160010160006101000a81548173ffffffffffffffffffffffffffffffffffffffff021916908373ffffffffffffffffffffffffffffffffffffffff16021790555060408201518160020155606082015181600301556080820151816004015560a0820151816005015560c0820151816006015560e082015181600701556101008201518160080160006101000a81548160ff0219169083151502179055506101208201518160080160016101000a81548160ff021916908315150217905550905050604051806040016040528085815260200160011515815250600960008773ffffffffffffffffffffffffffffffffffffffff1673ffffffffffffffffffffffffffffffffffffffff1681526020019081526020016000206000820151816000015560208201518160010160006101000a81548160ff021916908315150217905550905050837f712ae1383f79ac853f8d882153778e0260ef8f03b504e2866e0593e04d2b291f60405160405180910390a2838573ffffffffffffffffffffffffffffffffffffffff167f9a04d35e5beebc8236e4119d4176dc83cd0d7160c7d5843520171b176ede9a798386866040516200045a93929190620004ce565b60405180910390a35050505050565b6000815190506200047a8162000553565b92915050565b6000602082840312156200049357600080fd5b6000620004a38482850162000469565b91505092915050565b620004b7816200051f565b82525050565b620004c88162000549565b82525050565b6000606082019050620004e56000830186620004ac565b620004f46020830185620004bd565b620005036040830184620004bd565b949350505050565b6000620005188262000529565b9050919050565b6000819050919050565b600073ffffffffffffffffffffffffffffffffffffffff82169050919050565b6000819050919050565b6200055e816200050b565b81146200056a57600080fd5b50565b612b66806200057d6000396000f3fe60806040526004361061010d5760003560e01c8063700a4a74116100955780638e0b8e09116100645780638e0b8e09146103f75780639342c8f414610420578063d3dc1a7514610449578063f2fde38b14610472578063fc0c546a1461049b5761014d565b8063700a4a741461033b578063715018a6146103785780637526f5171461038f5780638da5cb5b146103cc5761014d565b806336fbad26116100dc57806336fbad2614610241578063459f3e421461026c5780634de4797b146102ab578063521865a9146102e95780635947b945146103125761014d565b80630121b93f14610152578063013cf08b1461018f578063107046bd146101d5578063229149ed146102185761014d565b3661014d576040517f08c379a0000000000000000000000000000000000000000000000000000000008152600401610144906127a3565b60405180910390fd5b600080fd5b34801561015e57600080fd5b50610179600480360381019061017491906120f1565b6104c6565b6040516101869190612803565b60405180910390f35b34801561019b57600080fd5b506101b660048036038101906101b191906120f1565b6105c7565b6040516101cc9a99989796959493929190612670565b60405180910390f35b3480156101e157600080fd5b506101fc60048036038101906101f791906120f1565b610655565b60405161020f97969594939291906125e6565b60405180910390f35b34801561022457600080fd5b5061023f600480360381019061023a9190612244565b6106b7565b005b34801561024d57600080fd5b5061025661098d565b604051610263919061281e565b60405180910390f35b34801561027857600080fd5b50610293600480360381019061028e91906120f1565b610993565b6040516102a2939291906125af565b60405180910390f35b3480156102b757600080fd5b506102d260048036038101906102cd91906120c8565b6109dd565b6040516102e0929190612839565b60405180910390f35b3480156102f557600080fd5b50610310600480360381019061030b91906121a5565b610a0e565b005b34801561031e57600080fd5b50610339600480360381019061033491906120c8565b610af6565b005b34801561034757600080fd5b50610362600480360381019061035d91906120c8565b610d1c565b60405161036f9190612655565b60405180910390f35b34801561038457600080fd5b5061038d610d3c565b005b34801561039b57600080fd5b506103b660048036038101906103b1919061211a565b610ec2565b6040516103c3919061281e565b60405180910390f35b3480156103d857600080fd5b506103e1610ee7565b6040516103ee9190612594565b60405180910390f35b34801561040357600080fd5b5061041e60048036038101906104199190612208565b610f10565b005b34801561042c57600080fd5b50610447600480360381019061044291906120f1565b611358565b005b34801561045557600080fd5b50610470600480360381019061046b9190612156565b6116fa565b005b34801561047e57600080fd5b50610499600480360381019061049491906120c8565b61195c565b005b3480156104a757600080fd5b506104b0611b67565b6040516104bd9190612594565b60405180910390f35b6104ce61206d565b8160006005600083815260200190815260200160002060006104ee611b8d565b73ffffffffffffffffffffffffffffffffffffffff1673ffffffffffffffffffffffffffffffffffffffff1681526020019081526020016000205411610569576040517f08c379a0000000000000000000000000000000000000000000000000000000008152600401610560906127e3565b60405180910390fd5b426008600083815260200190815260200160002060040154116105c1576040517f08c379a00000000000000000000000000000000000000000000000000000000081526004016105b890612743565b60405180910390fd5b50919050565b60086020528060005260406000206000915090508060000154908060010160009054906101000a900473ffffffffffffffffffffffffffffffffffffffff16908060020154908060030154908060040154908060050154908060060154908060070154908060080160009054906101000a900460ff16908060080160019054906101000a900460ff1690508a565b60046020528060005260406000206000915090508060000160009054906101000a900473ffffffffffffffffffffffffffffffffffffffff16908060010154908060020154908060030154908060040154908060050154908060060154905087565b42841180156106c557504283115b61071a576040517f08c379a00000000000000000000000000000000000000000000000000000000081526004018080602001828103825260508152602001806129ff6050913960600191505060405180910390fd5b838311610772576040517f08c379a0000000000000000000000000000000000000000000000000000000008152600401808060200182810382526030815260200180612b016030913960400191505060405180910390fd5b6000821180156107825750600081115b6107d7576040517f08c379a0000000000000000000000000000000000000000000000000000000008152600401808060200182810382526036815260200180612a706036913960400191505060405180910390fd5b80821415610830576040517f08c379a0000000000000000000000000000000000000000000000000000000008152600401808060200182810382526028815260200180612aa66028913960400191505060405180910390fd5b6108466001600354611b9590919063ffffffff16565b6003819055506040518060e0016040528061085f611b8d565b73ffffffffffffffffffffffffffffffffffffffff1681526020016003548152602001858152602001848152602001838152602001828152602001600081525060046000600354815260200190815260200160002060008201518160000160006101000a81548173ffffffffffffffffffffffffffffffffffffffff021916908373ffffffffffffffffffffffffffffffffffffffff1602179055506020820151816001015560408201518160020155606082015181600301556080820151816004015560a0820151816005015560c08201518160060155905050600354610945611b8d565b73ffffffffffffffffffffffffffffffffffffffff167f20bfd29f3d906f96fc35742fac45a554b19cbd4e21f8c4c1d84cb58fdfc32c8960405160405180910390a350505050565b60035481565b60066020528060005260406000206000915090508060000160009054906101000a900473ffffffffffffffffffffffffffffffffffffffff16908060010154908060020154905083565b60096020528060005260406000206000915090508060000154908060010160009054906101000a900460ff16905082565b4282118015610a1c57504281115b610a5b576040517f08c379a0000000000000000000000000000000000000000000000000000000008152600401610a5290612763565b60405180910390fd5b818111610a9d576040517f08c379a0000000000000000000000000000000000000000000000000000000008152600401610a94906127c3565b60405180910390fd5b6000801916831415610ae4576040517f08c379a0000000000000000000000000000000000000000000000000000000008152600401610adb90612783565b60405180910390fd5b610af083858484611c1d565b50505050565b610afe611b8d565b73ffffffffffffffffffffffffffffffffffffffff1660008054906101000a900473ffffffffffffffffffffffffffffffffffffffff1673ffffffffffffffffffffffffffffffffffffffff1614610bbe576040517f08c379a00000000000000000000000000000000000000000000000000000000081526004018080602001828103825260208152602001807f4f776e61626c653a2063616c6c6572206973206e6f7420746865206f776e657281525060200191505060405180910390fd5b60008173ffffffffffffffffffffffffffffffffffffffff166370a08231306040518263ffffffff1660e01b8152600401808273ffffffffffffffffffffffffffffffffffffffff16815260200191505060206040518083038186803b158015610c2757600080fd5b505afa158015610c3b573d6000803e3d6000fd5b505050506040513d6020811015610c5157600080fd5b810190808051906020019092919050505090508173ffffffffffffffffffffffffffffffffffffffff1663a9059cbb610c88611b8d565b836040518363ffffffff1660e01b8152600401808373ffffffffffffffffffffffffffffffffffffffff16815260200182815260200192505050602060405180830381600087803b158015610cdc57600080fd5b505af1158015610cf0573d6000803e3d6000fd5b505050506040513d6020811015610d0657600080fd5b8101908080519060200190929190505050505050565b60076020528060005260406000206000915054906101000a900460ff1681565b610d44611b8d565b73ffffffffffffffffffffffffffffffffffffffff1660008054906101000a900473ffffffffffffffffffffffffffffffffffffffff1673ffffffffffffffffffffffffffffffffffffffff1614610e04576040517f08c379a00000000000000000000000000000000000000000000000000000000081526004018080602001828103825260208152602001807f4f776e61626c653a2063616c6c6572206973206e6f7420746865206f776e657281525060200191505060405180910390fd5b600073ffffffffffffffffffffffffffffffffffffffff1660008054906101000a900473ffffffffffffffffffffffffffffffffffffffff1673ffffffffffffffffffffffffffffffffffffffff167f8be0079c531659141344cd1fd0a4f28419497f9722a3daafe3b4186f6b6457e060405160405180910390a360008060006101000a81548173ffffffffffffffffffffffffffffffffffffffff021916908373ffffffffffffffffffffffffffffffffffffffff160217905550565b6005602052816000526040600020602052806000526040600020600091509150505481565b60008060009054906101000a900473ffffffffffffffffffffffffffffffffffffffff16905090565b6000600460008481526020019081526020016000206040518060e00160405290816000820160009054906101000a900473ffffffffffffffffffffffffffffffffffffffff1673ffffffffffffffffffffffffffffffffffffffff1673ffffffffffffffffffffffffffffffffffffffff16815260200160018201548152602001600282015481526020016003820154815260200160048201548152602001600582015481526020016006820154815250509050600073ffffffffffffffffffffffffffffffffffffffff16816000015173ffffffffffffffffffffffffffffffffffffffff16141561104e576040517f08c379a00000000000000000000000000000000000000000000000000000000081526004018080602001828103825260218152602001806129de6021913960400191505060405180910390fd5b428160600151116110aa576040517f08c379a00000000000000000000000000000000000000000000000000000000081526004018080602001828103825260238152602001806129bb6023913960400191505060405180910390fd5b8060a001516110c6838360c00151611b9590919063ffffffff16565b111561111d576040517f08c379a00000000000000000000000000000000000000000000000000000000081526004018080602001828103825260278152602001806129946027913960400191505060405180910390fd5b600260009054906101000a900473ffffffffffffffffffffffffffffffffffffffff1673ffffffffffffffffffffffffffffffffffffffff166323b872dd611163611b8d565b30856040518463ffffffff1660e01b8152600401808473ffffffffffffffffffffffffffffffffffffffff1681526020018373ffffffffffffffffffffffffffffffffffffffff1681526020018281526020019350505050602060405180830381600087803b1580156111d557600080fd5b505af11580156111e9573d6000803e3d6000fd5b505050506040513d60208110156111ff57600080fd5b810190808051906020019092919050505050611228828260c00151611b9590919063ffffffff16565b60046000858152602001908152602001600020600601819055506112ac82600560008681526020019081526020016000206000611263611b8d565b73ffffffffffffffffffffffffffffffffffffffff1673ffffffffffffffffffffffffffffffffffffffff16815260200190815260200160002054611b9590919063ffffffff16565b6005600085815260200190815260200160002060006112c9611b8d565b73ffffffffffffffffffffffffffffffffffffffff1673ffffffffffffffffffffffffffffffffffffffff168152602001908152602001600020819055508183611311611b8d565b73ffffffffffffffffffffffffffffffffffffffff167f069f395fd833af2bf669bcfe3672d02bf3c3e5fe1ec9d2ba309f60f3855bd64f60405160405180910390a4505050565b6000600560008381526020019081526020016000206000611377611b8d565b73ffffffffffffffffffffffffffffffffffffffff1673ffffffffffffffffffffffffffffffffffffffff1681526020019081526020016000205411611408576040517f08c379a0000000000000000000000000000000000000000000000000000000008152600401808060200182810382526033815260200180612ace6033913960400191505060405180910390fd5b60076000611414611b8d565b73ffffffffffffffffffffffffffffffffffffffff1673ffffffffffffffffffffffffffffffffffffffff16815260200190815260200160002060009054906101000a900460ff16156114b2576040517f08c379a00000000000000000000000000000000000000000000000000000000081526004018080602001828103825260378152602001806129376037913960400191505060405180910390fd5b60006006600083815260200190815260200160002060000160009054906101000a900473ffffffffffffffffffffffffffffffffffffffff169050600060066000848152602001908152602001600020600201549050600061159c8261158e6004600088815260200190815260200160002060060154600560008981526020019081526020016000206000611545611b8d565b73ffffffffffffffffffffffffffffffffffffffff1673ffffffffffffffffffffffffffffffffffffffff16815260200190815260200160002054611dcd90919063ffffffff16565b611e1790919063ffffffff16565b90506001600760006115ac611b8d565b73ffffffffffffffffffffffffffffffffffffffff1673ffffffffffffffffffffffffffffffffffffffff16815260200190815260200160002060006101000a81548160ff021916908315150217905550611626816006600087815260200190815260200160002060020154611e9d90919063ffffffff16565b60066000868152602001908152602001600020600201819055508273ffffffffffffffffffffffffffffffffffffffff1663a9059cbb611664611b8d565b836040518363ffffffff1660e01b8152600401808373ffffffffffffffffffffffffffffffffffffffff16815260200182815260200192505050602060405180830381600087803b1580156116b857600080fd5b505af11580156116cc573d6000803e3d6000fd5b505050506040513d60208110156116e257600080fd5b81019080805190602001909291905050505050505050565b6004600084815260200190815260200160002060000160009054906101000a900473ffffffffffffffffffffffffffffffffffffffff1673ffffffffffffffffffffffffffffffffffffffff1661174f611b8d565b73ffffffffffffffffffffffffffffffffffffffff16146117bb576040517f08c379a000000000000000000000000000000000000000000000000000000000815260040180806020018281038252602c81526020018061290b602c913960400191505060405180910390fd5b8173ffffffffffffffffffffffffffffffffffffffff166323b872dd6117df611b8d565b30846040518463ffffffff1660e01b8152600401808473ffffffffffffffffffffffffffffffffffffffff1681526020018373ffffffffffffffffffffffffffffffffffffffff1681526020018281526020019350505050602060405180830381600087803b15801561185157600080fd5b505af1158015611865573d6000803e3d6000fd5b505050506040513d602081101561187b57600080fd5b81019080805190602001909291905050505060405180606001604052808373ffffffffffffffffffffffffffffffffffffffff1681526020018481526020016118e3836006600088815260200190815260200160002060020154611b9590919063ffffffff16565b8152506006600085815260200190815260200160002060008201518160000160006101000a81548173ffffffffffffffffffffffffffffffffffffffff021916908373ffffffffffffffffffffffffffffffffffffffff1602179055506020820151816001015560408201518160020155905050505050565b611964611b8d565b73ffffffffffffffffffffffffffffffffffffffff1660008054906101000a900473ffffffffffffffffffffffffffffffffffffffff1673ffffffffffffffffffffffffffffffffffffffff1614611a24576040517f08c379a00000000000000000000000000000000000000000000000000000000081526004018080602001828103825260208152602001807f4f776e61626c653a2063616c6c6572206973206e6f7420746865206f776e657281525060200191505060405180910390fd5b600073ffffffffffffffffffffffffffffffffffffffff168173ffffffffffffffffffffffffffffffffffffffff161415611aaa576040517f08c379a000000000000000000000000000000000000000000000000000000000815260040180806020018281038252602681526020018061296e6026913960400191505060405180910390fd5b8073ffffffffffffffffffffffffffffffffffffffff1660008054906101000a900473ffffffffffffffffffffffffffffffffffffffff1673ffffffffffffffffffffffffffffffffffffffff167f8be0079c531659141344cd1fd0a4f28419497f9722a3daafe3b4186f6b6457e060405160405180910390a3806000806101000a81548173ffffffffffffffffffffffffffffffffffffffff021916908373ffffffffffffffffffffffffffffffffffffffff16021790555050565b600260009054906101000a900473ffffffffffffffffffffffffffffffffffffffff1681565b600033905090565b600080828401905083811015611c13576040517f08c379a000000000000000000000000000000000000000000000000000000000815260040180806020018281038252601b8152602001807f536166654d6174683a206164646974696f6e206f766572666c6f77000000000081525060200191505060405180910390fd5b8091505092915050565b6000611c27611b8d565b90506040518061014001604052808681526020018273ffffffffffffffffffffffffffffffffffffffff16815260200185815260200184815260200183815260200160008152602001600081526020016000815260200160001515815260200160001515815250600860008681526020019081526020016000206000820151816000015560208201518160010160006101000a81548173ffffffffffffffffffffffffffffffffffffffff021916908373ffffffffffffffffffffffffffffffffffffffff16021790555060408201518160020155606082015181600301556080820151816004015560a0820151816005015560c0820151816006015560e082015181600701556101008201518160080160006101000a81548160ff0219169083151502179055506101208201518160080160016101000a81548160ff021916908315150217905550905050838173ffffffffffffffffffffffffffffffffffffffff167f9a04d35e5beebc8236e4119d4176dc83cd0d7160c7d5843520171b176ede9a79878686604051611dbe9392919061270c565b60405180910390a35050505050565b6000611e0f83836040518060400160405280601a81526020017f536166654d6174683a206469766973696f6e206279207a65726f000000000000815250611ee7565b905092915050565b600080831415611e2a5760009050611e97565b6000828402905082848281611e3b57fe5b0414611e92576040517f08c379a0000000000000000000000000000000000000000000000000000000008152600401808060200182810382526021815260200180612a4f6021913960400191505060405180910390fd5b809150505b92915050565b6000611edf83836040518060400160405280601e81526020017f536166654d6174683a207375627472616374696f6e206f766572666c6f770000815250611fad565b905092915050565b60008083118290611f93576040517f08c379a00000000000000000000000000000000000000000000000000000000081526004018080602001828103825283818151815260200191508051906020019080838360005b83811015611f58578082015181840152602081019050611f3d565b50505050905090810190601f168015611f855780820380516001836020036101000a031916815260200191505b509250505060405180910390fd5b506000838581611f9f57fe5b049050809150509392505050565b600083831115829061205a576040517f08c379a00000000000000000000000000000000000000000000000000000000081526004018080602001828103825283818151815260200191508051906020019080838360005b8381101561201f578082015181840152602081019050612004565b50505050905090810190601f16801561204c5780820380516001836020036101000a031916815260200191505b509250505060405180910390fd5b5060008385039050809150509392505050565b6040518060400160405280600081526020016000151581525090565b600081359050612098816128c5565b92915050565b6000813590506120ad816128dc565b92915050565b6000813590506120c2816128f3565b92915050565b6000602082840312156120da57600080fd5b60006120e884828501612089565b91505092915050565b60006020828403121561210357600080fd5b6000612111848285016120b3565b91505092915050565b6000806040838503121561212d57600080fd5b600061213b858286016120b3565b925050602061214c85828601612089565b9150509250929050565b60008060006060848603121561216b57600080fd5b6000612179868287016120b3565b935050602061218a86828701612089565b925050604061219b868287016120b3565b9150509250925092565b600080600080608085870312156121bb57600080fd5b60006121c9878288016120b3565b94505060206121da8782880161209e565b93505060406121eb878288016120b3565b92505060606121fc878288016120b3565b91505092959194509250565b6000806040838503121561221b57600080fd5b6000612229858286016120b3565b925050602061223a858286016120b3565b9150509250929050565b6000806000806080858703121561225a57600080fd5b6000612268878288016120b3565b9450506020612279878288016120b3565b935050604061228a878288016120b3565b925050606061229b878288016120b3565b91505092959194509250565b6122b081612873565b82525050565b6122bf81612885565b82525050565b6122ce81612885565b82525050565b6122dd81612891565b82525050565b60006122f0602783612862565b91507f44347070476f7665726e616e63653a2050726f706f73616c20646f6573206e6f60008301527f74206578697374000000000000000000000000000000000000000000000000006020830152604082019050919050565b6000612356604883612862565b91507f44347070476f7665726e616e63653a20737461727454696d65202620656e645460008301527f696d65206d7573742062652067726561746572207468616e20626c6f636b2e7460208301527f696d657374616d700000000000000000000000000000000000000000000000006040830152606082019050919050565b60006123e2602983612862565b91507f476f7665726e616e63653a20496e76616c69642070726f706f73616c2064657360008301527f63726970746f696f6e00000000000000000000000000000000000000000000006020830152604082019050919050565b6000612448602e83612862565b91507f44347070476f7665726e616e63653a204574686572206465706f73697473206960008301527f73206e6f7420616c6c6f776564210000000000000000000000000000000000006020830152604082019050919050565b60006124ae603683612862565b91507f44347070476f7665726e616e63653a20656e6454496d65206d7573742062652060008301527f67726561746572207468616e20737461727454696d65000000000000000000006020830152604082019050919050565b6000612514601c83612862565b91507f44347070476f7665726e616e63653a20496e76616c696420766f7465000000006000830152602082019050919050565b60408201600082015161255d6000850182612576565b50602082015161257060208501826122b6565b50505050565b61257f816128bb565b82525050565b61258e816128bb565b82525050565b60006020820190506125a960008301846122a7565b92915050565b60006060820190506125c460008301866122a7565b6125d16020830185612585565b6125de6040830184612585565b949350505050565b600060e0820190506125fb600083018a6122a7565b6126086020830189612585565b6126156040830188612585565b6126226060830187612585565b61262f6080830186612585565b61263c60a0830185612585565b61264960c0830184612585565b98975050505050505050565b600060208201905061266a60008301846122c5565b92915050565b600061014082019050612686600083018d6122d4565b612693602083018c6122a7565b6126a0604083018b612585565b6126ad606083018a612585565b6126ba6080830189612585565b6126c760a0830188612585565b6126d460c0830187612585565b6126e160e0830186612585565b6126ef6101008301856122c5565b6126fd6101208301846122c5565b9b9a5050505050505050505050565b600060608201905061272160008301866122d4565b61272e6020830185612585565b61273b6040830184612585565b949350505050565b6000602082019050818103600083015261275c816122e3565b9050919050565b6000602082019050818103600083015261277c81612349565b9050919050565b6000602082019050818103600083015261279c816123d5565b9050919050565b600060208201905081810360008301526127bc8161243b565b9050919050565b600060208201905081810360008301526127dc816124a1565b9050919050565b600060208201905081810360008301526127fc81612507565b9050919050565b60006040820190506128186000830184612547565b92915050565b60006020820190506128336000830184612585565b92915050565b600060408201905061284e6000830185612585565b61285b60208301846122c5565b9392505050565b600082825260208201905092915050565b600061287e8261289b565b9050919050565b60008115159050919050565b6000819050919050565b600073ffffffffffffffffffffffffffffffffffffffff82169050919050565b6000819050919050565b6128ce81612873565b81146128d957600080fd5b50565b6128e581612891565b81146128f057600080fd5b50565b6128fc816128bb565b811461290757600080fd5b5056fe44347070436f72653a204f6e6c792076616c69642063726561746f722063616e207365656420746f6b656e7344347070436f72653a204e6f7420656c696769626c6520746f20616e7920726577617264732066726f6d20746869732070726f6a6563744f776e61626c653a206e6577206f776e657220697320746865207a65726f206164647265737344347070436f72653a2050726f6a65637420686173206265656e2066756c6c792066756e64656444347070436f72653a20456e6454696d6520686173206265656e20657863656564656444347070436f72653a2050726f6a656374496420646f65736e277420657869737444347070436f72653a20737461727454696d6520616e6420656e6454696d652073686f756c642062652067726561746572207468616e206f7220657175616c20746f2063757272656e7420626c6f636b536166654d6174683a206d756c7469706c69636174696f6e206f766572666c6f7744347070436f72653a20536f6643617020616e642048617264436170206d7573742062652067726561746572207468616e207a65726f44347070436f72653a20536f6674436170206d757374206e6f7420657175616c204861726443617044347070436f72653a204e6f7420656c696769626c6520746f20726577617264732066726f6d20746869732070726f6a65637444347070436f72653a20656e6454696d65206d7573742062652067726561746572207468616e20737461727454696d65a2646970667358221220695ff513961094bba263a7130bf84b81e790a8754fa7e7fbaf06d4360b0d95ff64736f6c6343000706003344347070476f7665726e616e63653a20746f6b656e20697320746865207a65726f2061646472657373",
  "immutableReferences": {},
  "source": "// SPDX-License-Identifier: MIT\r\npragma solidity 0.7.6;\r\npragma abicoder v2;\r\n\r\nimport \"@openzeppelin/contracts/math/SafeMath.sol\";\r\nimport \"./D4ppCore.sol\";\r\n\r\ncontract D4ppGovernance is D4ppCore {\r\n    using SafeMath for uint;\r\n\r\n    /// @notice Records Proposal\r\n    struct Proposal {\r\n        // Propose subject\r\n        bytes32 description;\r\n        // Creator of the proposal\r\n        address proposer;\r\n        // Id of the project the call is to be made\r\n        uint projectId;\r\n        // The block at which voting begins\r\n        uint startTime;\r\n        // The block at which voting ends: votes must be cast prior to this block\r\n        uint endTime;\r\n        // Current number of votes in favor of this proposal\r\n        uint forVotes;\r\n        // Current number of votes in opposition to this proposal\r\n        uint againstVotes;\r\n        // Total number of votes that has been registered;\r\n        uint totalVotes;\r\n        // Flag marking whether the proposal has been executed\r\n        bool executed;\r\n        // Flag marking whether the proposal voting time has been extended\r\n        // Voting time can be extended once, if the proposal outcome has changed during CLOSING_PERIOD\r\n        bool extended;\r\n    }\r\n\r\n    /// @notice Ballot receipt record for a voter\r\n    struct Receipt {\r\n        // Project Id of the proposed vote\r\n        uint projectId;\r\n        // Whether or not a vote has been cast\r\n        bool hasVoted;\r\n    }\r\n\r\n\r\n    /// @notice The official record of all proposals ever proposed\r\n    mapping(uint => Proposal) public proposals;\r\n\r\n    /// @notice Receipts of ballots for the entire set of voters\r\n    mapping(address => Receipt) public receipts;\r\n\r\n    /// @notice An event emitted when a new proposal is created\r\n    event ProposalCreated(\r\n        bytes32 description,\r\n        address indexed proposer,\r\n        uint indexed projectId,\r\n        uint startTime,\r\n        uint endTime\r\n    );\r\n\r\n    /// @notice An event emitted when a vote has been cast on a proposal\r\n    event Voted(uint indexed proposalId, address indexed voter, bool indexed support, uint votes);\r\n\r\n    /// @notice An event emitted when a proposal has been executed\r\n    event ProposalExecuted(uint indexed proposalId);\r\n\r\n    /// @notice Only valid owner is allowed to call the fucntion\r\n    modifier onlyValidCreator(uint _projectId) {\r\n        require(\r\n            _msgSender() == projects[_projectId].creator,\r\n            \"D4ppGovernance: Only valid owner is allowed to create proposal\"\r\n        );\r\n        _;\r\n    }\r\n\r\n    /// @notice Only vote while current time < endtime\r\n    modifier onlyWhileActive(uint _projectId) {\r\n        require(\r\n            grants[_projectId][_msgSender()] > 0,\r\n            \"D4ppGovernance: Invalid vote\"\r\n        );\r\n        require(\r\n            proposals[_projectId].endTime > block.timestamp,\r\n            \"D4ppGovernance: Proposal does not exist\"\r\n        );\r\n        _;\r\n    }\r\n\r\n    constructor(address _token) D4ppCore(_token) {\r\n        _initialize();\r\n    }\r\n\r\n    receive() external payable {\r\n        revert(\"D4ppGovernance: Ether deposits is not allowed!\");\r\n    }\r\n\r\n    function _initialize() internal {\r\n        address _proposer = address(0);\r\n        uint _projectId = 0;\r\n        uint _startTime = block.timestamp;\r\n        uint _endTime = block.timestamp;\r\n        bytes32 _description = bytes32(\"Initial proposal\");\r\n        // Create a dummy proposal so that indexes start from 1\r\n        proposals[_projectId] = Proposal(\r\n            _description,\r\n            _proposer,\r\n            _projectId,\r\n            _startTime,\r\n            _endTime,\r\n            0,\r\n            0,\r\n            1,\r\n            false,\r\n            false\r\n        );\r\n\r\n        receipts[_proposer] = Receipt(_projectId, true);\r\n        emit ProposalExecuted(_projectId);\r\n        emit ProposalCreated(\r\n            _description, \r\n            _proposer,\r\n            _projectId,\r\n            _startTime,\r\n            _endTime\r\n        );\r\n    }\r\n\r\n    function createProposal(uint _projectId, bytes32 _proposeDescription, uint _startTime, uint _endTime) public {\r\n        require(\r\n            _startTime > block.timestamp && \r\n            _endTime > block.timestamp,\r\n            \"D4ppGovernance: startTime & endTime must be greater than block.timestamp\"\r\n        );\r\n        require(\r\n            _endTime > _startTime,\r\n            \"D4ppGovernance: endTIme must be greater than startTime\"\r\n        );\r\n        require(\r\n            _proposeDescription != bytes32(\"\"), \r\n            \"Governance: Invalid proposal descriptoion\"\r\n        );\r\n        _propose(_proposeDescription, _projectId, _startTime, _endTime);\r\n    }\r\n\r\n    function _propose(bytes32 _description, uint _projectId, uint _startTime, uint _endTime) internal {\r\n        address _proposer = _msgSender();\r\n        proposals[_projectId] = Proposal(\r\n            _description,\r\n            _proposer,\r\n            _projectId,\r\n            _startTime,\r\n            _endTime,\r\n            0,\r\n            0,\r\n            0,\r\n            false,\r\n            false\r\n        );\r\n        emit ProposalCreated(\r\n            _description, \r\n            _proposer,\r\n            _projectId,\r\n            _startTime,\r\n            _endTime\r\n        );\r\n    }\r\n\r\n    function vote(uint _projectId) public onlyWhileActive(_projectId) returns(Receipt memory) {\r\n        \r\n    }\r\n\r\n}",
  "sourcePath": "C:/Users/DragonLord/Desktop/dApp/d4pp_project/contracts/D4ppGovernance.sol",
  "compiler": {
    "name": "solc",
    "version": "0.7.6+commit.7338295f.Emscripten.clang"
  },
  "schemaVersion": "3.3.3",
  "updatedAt": "2021-01-05T17:31:23.462Z",
  "devdoc": {
    "kind": "dev",
    "methods": {
      "owner()": {
        "details": "Returns the address of the current owner."
      },
      "registerProject(uint256,uint256,uint256,uint256)": {
        "details": "Register new project",
        "params": {
          "_endTime": ": End time of when the crowdfund will end",
          "_softCap": ": ",
          "_startTime": ": Timestamp of when the crowdfund will start"
        }
      },
      "renounceOwnership()": {
        "details": "Leaves the contract without owner. It will not be possible to call `onlyOwner` functions anymore. Can only be called by the current owner. NOTE: Renouncing ownership will leave the contract without an owner, thereby removing any functionality that is only available to the owner."
      },
      "transferOwnership(address)": {
        "details": "Transfers ownership of the contract to a new account (`newOwner`). Can only be called by the current owner."
      }
    },
    "version": 1
  },
  "userdoc": {
    "events": {
      "GrantFunds(address,uint256,uint256)": {
        "notice": "An event emitted when a user grants funds to a specific project"
      },
      "ProjectCreated(address,uint256)": {
        "notice": "An event emitted when a Project is been created"
      },
      "ProposalCreated(bytes32,address,uint256,uint256,uint256)": {
        "notice": "An event emitted when a new proposal is created"
      },
      "ProposalExecuted(uint256)": {
        "notice": "An event emitted when a proposal has been executed"
      },
      "Voted(uint256,address,bool,uint256)": {
        "notice": "An event emitted when a vote has been cast on a proposal"
      }
    },
    "kind": "user",
    "methods": {
      "grants(uint256,address)": {
        "notice": "Stores a record of all the grants made"
      },
      "projectCount()": {
        "notice": "Keeps track of total projects count"
      },
      "projects(uint256)": {
        "notice": "Stores a record of all the registered projects"
      },
      "proposals(uint256)": {
        "notice": "The official record of all proposals ever proposed"
      },
      "receipts(address)": {
        "notice": "Receipts of ballots for the entire set of voters"
      },
      "rewardsPaid(address)": {
        "notice": "Keeps tracks of the paid rewards"
      },
      "rewardsPool(uint256)": {
        "notice": "Keeps track of tokens seeded to the rewardPool "
      },
      "token()": {
        "notice": "Stores D4PP Token address"
      }
    },
    "version": 1
  }
}