{
  "contractName": "D4ppGovernance",
  "abi": [
    {
      "inputs": [
        {
          "internalType": "address",
          "name": "_token",
          "type": "address"
        }
      ],
      "stateMutability": "nonpayable",
      "type": "constructor"
    },
    {
      "anonymous": false,
      "inputs": [
        {
          "indexed": true,
          "internalType": "address",
          "name": "user",
          "type": "address"
        },
        {
          "indexed": true,
          "internalType": "address",
          "name": "beneficiary",
          "type": "address"
        },
        {
          "indexed": true,
          "internalType": "uint256",
          "name": "amount",
          "type": "uint256"
        }
      ],
      "name": "GrantedFunds",
      "type": "event"
    },
    {
      "anonymous": false,
      "inputs": [
        {
          "indexed": true,
          "internalType": "address",
          "name": "previousOwner",
          "type": "address"
        },
        {
          "indexed": true,
          "internalType": "address",
          "name": "newOwner",
          "type": "address"
        }
      ],
      "name": "OwnershipTransferred",
      "type": "event"
    },
    {
      "anonymous": false,
      "inputs": [
        {
          "indexed": true,
          "internalType": "address",
          "name": "creator",
          "type": "address"
        },
        {
          "indexed": true,
          "internalType": "uint256",
          "name": "projectId",
          "type": "uint256"
        }
      ],
      "name": "ProjectCreated",
      "type": "event"
    },
    {
      "anonymous": false,
      "inputs": [
        {
          "indexed": false,
          "internalType": "bytes32",
          "name": "description",
          "type": "bytes32"
        },
        {
          "indexed": true,
          "internalType": "address",
          "name": "proposer",
          "type": "address"
        },
        {
          "indexed": true,
          "internalType": "uint256",
          "name": "projectId",
          "type": "uint256"
        },
        {
          "indexed": false,
          "internalType": "uint256",
          "name": "startTime",
          "type": "uint256"
        },
        {
          "indexed": false,
          "internalType": "uint256",
          "name": "endTime",
          "type": "uint256"
        }
      ],
      "name": "ProposalCreated",
      "type": "event"
    },
    {
      "anonymous": false,
      "inputs": [
        {
          "indexed": true,
          "internalType": "uint256",
          "name": "proposalId",
          "type": "uint256"
        }
      ],
      "name": "ProposalExecuted",
      "type": "event"
    },
    {
      "anonymous": false,
      "inputs": [
        {
          "indexed": true,
          "internalType": "uint256",
          "name": "proposalId",
          "type": "uint256"
        },
        {
          "indexed": true,
          "internalType": "address",
          "name": "voter",
          "type": "address"
        },
        {
          "indexed": true,
          "internalType": "bool",
          "name": "support",
          "type": "bool"
        },
        {
          "indexed": false,
          "internalType": "uint256",
          "name": "votes",
          "type": "uint256"
        }
      ],
      "name": "Voted",
      "type": "event"
    },
    {
      "inputs": [
        {
          "internalType": "address",
          "name": "_token",
          "type": "address"
        },
        {
          "internalType": "uint256",
          "name": "_projectId",
          "type": "uint256"
        },
        {
          "internalType": "uint256",
          "name": "_amount",
          "type": "uint256"
        }
      ],
      "name": "grantFunds",
      "outputs": [],
      "stateMutability": "nonpayable",
      "type": "function"
    },
    {
      "inputs": [
        {
          "internalType": "address",
          "name": "",
          "type": "address"
        }
      ],
      "name": "grants",
      "outputs": [
        {
          "internalType": "address",
          "name": "user",
          "type": "address"
        },
        {
          "internalType": "uint256",
          "name": "amount",
          "type": "uint256"
        },
        {
          "internalType": "uint256",
          "name": "timestamp",
          "type": "uint256"
        }
      ],
      "stateMutability": "view",
      "type": "function"
    },
    {
      "inputs": [],
      "name": "owner",
      "outputs": [
        {
          "internalType": "address",
          "name": "",
          "type": "address"
        }
      ],
      "stateMutability": "view",
      "type": "function"
    },
    {
      "inputs": [
        {
          "internalType": "uint256",
          "name": "",
          "type": "uint256"
        }
      ],
      "name": "projects",
      "outputs": [
        {
          "internalType": "address",
          "name": "creator",
          "type": "address"
        },
        {
          "internalType": "uint256",
          "name": "projectId",
          "type": "uint256"
        },
        {
          "internalType": "uint256",
          "name": "startTime",
          "type": "uint256"
        },
        {
          "internalType": "uint256",
          "name": "duration",
          "type": "uint256"
        },
        {
          "internalType": "uint256",
          "name": "softCap",
          "type": "uint256"
        },
        {
          "internalType": "uint256",
          "name": "hardCap",
          "type": "uint256"
        },
        {
          "internalType": "uint256",
          "name": "currentRaised",
          "type": "uint256"
        }
      ],
      "stateMutability": "view",
      "type": "function"
    },
    {
      "inputs": [],
      "name": "proposalCount",
      "outputs": [
        {
          "internalType": "uint256",
          "name": "",
          "type": "uint256"
        }
      ],
      "stateMutability": "view",
      "type": "function"
    },
    {
      "inputs": [
        {
          "internalType": "uint256",
          "name": "",
          "type": "uint256"
        }
      ],
      "name": "proposals",
      "outputs": [
        {
          "internalType": "bytes32",
          "name": "description",
          "type": "bytes32"
        },
        {
          "internalType": "address",
          "name": "proposer",
          "type": "address"
        },
        {
          "internalType": "uint256",
          "name": "projectId",
          "type": "uint256"
        },
        {
          "internalType": "uint256",
          "name": "startTime",
          "type": "uint256"
        },
        {
          "internalType": "uint256",
          "name": "endTime",
          "type": "uint256"
        },
        {
          "internalType": "uint256",
          "name": "forVotes",
          "type": "uint256"
        },
        {
          "internalType": "uint256",
          "name": "againstVotes",
          "type": "uint256"
        },
        {
          "internalType": "uint256",
          "name": "totalVotes",
          "type": "uint256"
        },
        {
          "internalType": "bool",
          "name": "executed",
          "type": "bool"
        },
        {
          "internalType": "bool",
          "name": "extended",
          "type": "bool"
        }
      ],
      "stateMutability": "view",
      "type": "function"
    },
    {
      "inputs": [
        {
          "internalType": "address",
          "name": "",
          "type": "address"
        }
      ],
      "name": "receipts",
      "outputs": [
        {
          "internalType": "uint256",
          "name": "projectId",
          "type": "uint256"
        },
        {
          "internalType": "bool",
          "name": "hasVoted",
          "type": "bool"
        }
      ],
      "stateMutability": "view",
      "type": "function"
    },
    {
      "inputs": [
        {
          "internalType": "uint256",
          "name": "_startTime",
          "type": "uint256"
        },
        {
          "internalType": "uint256",
          "name": "_duration",
          "type": "uint256"
        },
        {
          "internalType": "uint256",
          "name": "_softCap",
          "type": "uint256"
        },
        {
          "internalType": "uint256",
          "name": "_hardCap",
          "type": "uint256"
        }
      ],
      "name": "registerProject",
      "outputs": [],
      "stateMutability": "nonpayable",
      "type": "function"
    },
    {
      "inputs": [],
      "name": "renounceOwnership",
      "outputs": [],
      "stateMutability": "nonpayable",
      "type": "function"
    },
    {
      "inputs": [],
      "name": "token",
      "outputs": [
        {
          "internalType": "address",
          "name": "",
          "type": "address"
        }
      ],
      "stateMutability": "view",
      "type": "function"
    },
    {
      "inputs": [],
      "name": "totalProjectCount",
      "outputs": [
        {
          "internalType": "uint256",
          "name": "",
          "type": "uint256"
        }
      ],
      "stateMutability": "view",
      "type": "function"
    },
    {
      "inputs": [
        {
          "internalType": "address",
          "name": "newOwner",
          "type": "address"
        }
      ],
      "name": "transferOwnership",
      "outputs": [],
      "stateMutability": "nonpayable",
      "type": "function"
    },
    {
      "inputs": [
        {
          "internalType": "address",
          "name": "_tokenAddress",
          "type": "address"
        }
      ],
      "name": "withdarAnyERC20Tokens",
      "outputs": [],
      "stateMutability": "nonpayable",
      "type": "function"
    },
    {
      "stateMutability": "payable",
      "type": "receive"
    },
    {
      "inputs": [
        {
          "internalType": "uint256",
          "name": "_projectId",
          "type": "uint256"
        },
        {
          "internalType": "bytes32",
          "name": "_proposeDescription",
          "type": "bytes32"
        },
        {
          "internalType": "uint256",
          "name": "_startTime",
          "type": "uint256"
        },
        {
          "internalType": "uint256",
          "name": "_endTime",
          "type": "uint256"
        }
      ],
      "name": "createProposal",
      "outputs": [],
      "stateMutability": "nonpayable",
      "type": "function"
    },
    {
      "inputs": [
        {
          "internalType": "uint256",
          "name": "_projectId",
          "type": "uint256"
        }
      ],
      "name": "vote",
      "outputs": [
        {
          "components": [
            {
              "internalType": "uint256",
              "name": "projectId",
              "type": "uint256"
            },
            {
              "internalType": "bool",
              "name": "hasVoted",
              "type": "bool"
            }
          ],
          "internalType": "struct D4ppGovernance.Receipt",
          "name": "",
          "type": "tuple"
        }
      ],
      "stateMutability": "nonpayable",
      "type": "function"
    }
  ],
  "bytecode": "0x60806040523480156200001157600080fd5b506040516200267538038062002675833981810160405281019062000037919062000471565b600062000049620001c160201b60201c565b9050806000806101000a81548173ffffffffffffffffffffffffffffffffffffffff021916908373ffffffffffffffffffffffffffffffffffffffff1602179055508073ffffffffffffffffffffffffffffffffffffffff16600073ffffffffffffffffffffffffffffffffffffffff167f8be0079c531659141344cd1fd0a4f28419497f9722a3daafe3b4186f6b6457e060405160405180910390a35060018081905550600073ffffffffffffffffffffffffffffffffffffffff168173ffffffffffffffffffffffffffffffffffffffff16141562000161576040517f08c379a0000000000000000000000000000000000000000000000000000000008152600401620001589062000564565b60405180910390fd5b80600260006101000a81548173ffffffffffffffffffffffffffffffffffffffff021916908373ffffffffffffffffffffffffffffffffffffffff1602179055506000600381905550620001ba620001c960201b60201c565b50620005f9565b600033905090565b60006006819055506000806000429050600042905060007f496e697469616c2070726f706f73616c0000000000000000000000000000000090506040518061014001604052808281526020018673ffffffffffffffffffffffffffffffffffffffff16815260200185815260200184815260200183815260200160008152602001600081526020016001815260200160001515815260200160001515815250600760008681526020019081526020016000206000820151816000015560208201518160010160006101000a81548173ffffffffffffffffffffffffffffffffffffffff021916908373ffffffffffffffffffffffffffffffffffffffff16021790555060408201518160020155606082015181600301556080820151816004015560a0820151816005015560c0820151816006015560e082015181600701556101008201518160080160006101000a81548160ff0219169083151502179055506101208201518160080160016101000a81548160ff021916908315150217905550905050604051806040016040528085815260200160011515815250600860008773ffffffffffffffffffffffffffffffffffffffff1673ffffffffffffffffffffffffffffffffffffffff1681526020019081526020016000206000820151816000015560208201518160010160006101000a81548160ff021916908315150217905550905050837f712ae1383f79ac853f8d882153778e0260ef8f03b504e2866e0593e04d2b291f60405160405180910390a2838573ffffffffffffffffffffffffffffffffffffffff167f9a04d35e5beebc8236e4119d4176dc83cd0d7160c7d5843520171b176ede9a798386866040516200044b9392919062000527565b60405180910390a35050505050565b6000815190506200046b81620005df565b92915050565b6000602082840312156200048457600080fd5b600062000494848285016200045a565b91505092915050565b620004a881620005ab565b82525050565b6000620004bd60298362000586565b91507f44347070476f7665726e616e63653a20746f6b656e20697320746865207a657260008301527f6f206164647265737300000000000000000000000000000000000000000000006020830152604082019050919050565b6200052181620005d5565b82525050565b60006060820190506200053e60008301866200049d565b6200054d602083018562000516565b6200055c604083018462000516565b949350505050565b600060208201905081810360008301526200057f81620004ae565b9050919050565b600082825260208201905092915050565b6000620005a482620005b5565b9050919050565b6000819050919050565b600073ffffffffffffffffffffffffffffffffffffffff82169050919050565b6000819050919050565b620005ea8162000597565b8114620005f657600080fd5b50565b61206c80620006096000396000f3fe6080604052600436106100ec5760003560e01c80636a11eeb31161008a578063b869cea311610059578063b869cea31461035c578063da35c6641461039b578063f2fde38b146103c6578063fc0c546a146103ef57610142565b80636a11eeb3146102c6578063715018a6146102f157806372c2cb51146103085780638da5cb5b1461033157610142565b8063229149ed116100c6578063229149ed1461020d5780634de4797b14610236578063521865a9146102745780635947b9451461029d57610142565b80630121b93f14610147578063013cf08b14610184578063107046bd146101ca57610142565b36610142576040517f08c379a000000000000000000000000000000000000000000000000000000000815260040180806020018281038252602e815260200180611fd7602e913960400191505060405180910390fd5b600080fd5b34801561015357600080fd5b5061016e60048036038101906101699190611852565b61041a565b60405161017b9190611d9c565b60405180910390f35b34801561019057600080fd5b506101ab60048036038101906101a69190611852565b610527565b6040516101c19a99989796959493929190611c49565b60405180910390f35b3480156101d657600080fd5b506101f160048036038101906101ec9190611852565b6105b5565b6040516102049796959493929190611bda565b60405180910390f35b34801561021957600080fd5b50610234600480360381019061022f91906118de565b610617565b005b34801561024257600080fd5b5061025d600480360381019061025891906117da565b6108e4565b60405161026b929190611dd2565b60405180910390f35b34801561028057600080fd5b5061029b6004803603810190610296919061187b565b610915565b005b3480156102a957600080fd5b506102c460048036038101906102bf91906117da565b6109fd565b005b3480156102d257600080fd5b506102db610c23565b6040516102e89190611db7565b60405180910390f35b3480156102fd57600080fd5b50610306610c29565b005b34801561031457600080fd5b5061032f600480360381019061032a9190611803565b610daf565b005b34801561033d57600080fd5b50610346611295565b6040516103539190611b88565b60405180910390f35b34801561036857600080fd5b50610383600480360381019061037e91906117da565b6112be565b60405161039293929190611ba3565b60405180910390f35b3480156103a757600080fd5b506103b0611308565b6040516103bd9190611db7565b60405180910390f35b3480156103d257600080fd5b506103ed60048036038101906103e891906117da565b61130e565b005b3480156103fb57600080fd5b50610404611519565b6040516104119190611b88565b60405180910390f35b61042261177f565b81600073ffffffffffffffffffffffffffffffffffffffff166007600083815260200190815260200160002060010160009054906101000a900473ffffffffffffffffffffffffffffffffffffffff1673ffffffffffffffffffffffffffffffffffffffff1614156104c9576040517f08c379a00000000000000000000000000000000000000000000000000000000081526004016104c090611d1c565b60405180910390fd5b42600760008381526020019081526020016000206004015411610521576040517f08c379a000000000000000000000000000000000000000000000000000000000815260040161051890611d1c565b60405180910390fd5b50919050565b60076020528060005260406000206000915090508060000154908060010160009054906101000a900473ffffffffffffffffffffffffffffffffffffffff16908060020154908060030154908060040154908060050154908060060154908060070154908060080160009054906101000a900460ff16908060080160019054906101000a900460ff1690508a565b60046020528060005260406000206000915090508060000160009054906101000a900473ffffffffffffffffffffffffffffffffffffffff16908060010154908060020154908060030154908060040154908060050154908060060154905087565b42841015610670576040517f08c379a000000000000000000000000000000000000000000000000000000000815260040180806020018281038252604a815260200180611f8d604a913960600191505060405180910390fd5b600083116106c9576040517f08c379a00000000000000000000000000000000000000000000000000000000081526004018080602001828103825260328152602001806120056032913960400191505060405180910390fd5b6000821180156106d95750600081115b61072e576040517f08c379a000000000000000000000000000000000000000000000000000000000815260040180806020018281038252603c815260200180611ef8603c913960400191505060405180910390fd5b80821415610787576040517f08c379a000000000000000000000000000000000000000000000000000000000815260040180806020018281038252602e815260200180611eca602e913960400191505060405180910390fd5b61079d600160035461153f90919063ffffffff16565b6003819055506040518060e001604052806107b66115c7565b73ffffffffffffffffffffffffffffffffffffffff1681526020016003548152602001858152602001848152602001838152602001828152602001600081525060046000600354815260200190815260200160002060008201518160000160006101000a81548173ffffffffffffffffffffffffffffffffffffffff021916908373ffffffffffffffffffffffffffffffffffffffff1602179055506020820151816001015560408201518160020155606082015181600301556080820151816004015560a0820151816005015560c0820151816006015590505060035461089c6115c7565b73ffffffffffffffffffffffffffffffffffffffff167f20bfd29f3d906f96fc35742fac45a554b19cbd4e21f8c4c1d84cb58fdfc32c8960405160405180910390a350505050565b60086020528060005260406000206000915090508060000154908060010160009054906101000a900460ff16905082565b428211801561092357504281115b610962576040517f08c379a000000000000000000000000000000000000000000000000000000000815260040161095990611d3c565b60405180910390fd5b8181116109a4576040517f08c379a000000000000000000000000000000000000000000000000000000000815260040161099b90611d7c565b60405180910390fd5b60008019168314156109eb576040517f08c379a00000000000000000000000000000000000000000000000000000000081526004016109e290611d5c565b60405180910390fd5b6109f7838584846115cf565b50505050565b610a056115c7565b73ffffffffffffffffffffffffffffffffffffffff1660008054906101000a900473ffffffffffffffffffffffffffffffffffffffff1673ffffffffffffffffffffffffffffffffffffffff1614610ac5576040517f08c379a00000000000000000000000000000000000000000000000000000000081526004018080602001828103825260208152602001807f4f776e61626c653a2063616c6c6572206973206e6f7420746865206f776e657281525060200191505060405180910390fd5b60008173ffffffffffffffffffffffffffffffffffffffff166370a08231306040518263ffffffff1660e01b8152600401808273ffffffffffffffffffffffffffffffffffffffff16815260200191505060206040518083038186803b158015610b2e57600080fd5b505afa158015610b42573d6000803e3d6000fd5b505050506040513d6020811015610b5857600080fd5b810190808051906020019092919050505090508173ffffffffffffffffffffffffffffffffffffffff1663a9059cbb610b8f6115c7565b836040518363ffffffff1660e01b8152600401808373ffffffffffffffffffffffffffffffffffffffff16815260200182815260200192505050602060405180830381600087803b158015610be357600080fd5b505af1158015610bf7573d6000803e3d6000fd5b505050506040513d6020811015610c0d57600080fd5b8101908080519060200190929190505050505050565b60035481565b610c316115c7565b73ffffffffffffffffffffffffffffffffffffffff1660008054906101000a900473ffffffffffffffffffffffffffffffffffffffff1673ffffffffffffffffffffffffffffffffffffffff1614610cf1576040517f08c379a00000000000000000000000000000000000000000000000000000000081526004018080602001828103825260208152602001807f4f776e61626c653a2063616c6c6572206973206e6f7420746865206f776e657281525060200191505060405180910390fd5b600073ffffffffffffffffffffffffffffffffffffffff1660008054906101000a900473ffffffffffffffffffffffffffffffffffffffff1673ffffffffffffffffffffffffffffffffffffffff167f8be0079c531659141344cd1fd0a4f28419497f9722a3daafe3b4186f6b6457e060405160405180910390a360008060006101000a81548173ffffffffffffffffffffffffffffffffffffffff021916908373ffffffffffffffffffffffffffffffffffffffff160217905550565b6000600460008481526020019081526020016000206040518060e00160405290816000820160009054906101000a900473ffffffffffffffffffffffffffffffffffffffff1673ffffffffffffffffffffffffffffffffffffffff1673ffffffffffffffffffffffffffffffffffffffff16815260200160018201548152602001600282015481526020016003820154815260200160048201548152602001600582015481526020016006820154815250509050600073ffffffffffffffffffffffffffffffffffffffff16816000015173ffffffffffffffffffffffffffffffffffffffff161415610eed576040517f08c379a0000000000000000000000000000000000000000000000000000000008152600401808060200182810382526027815260200180611f346027913960400191505060405180910390fd5b42610f098260600151836040015161153f90919063ffffffff16565b11610f5f576040517f08c379a0000000000000000000000000000000000000000000000000000000008152600401808060200182810382526032815260200180611f5b6032913960400191505060405180910390fd5b8060a00151610f7b838360c0015161153f90919063ffffffff16565b1115610fef576040517f08c379a000000000000000000000000000000000000000000000000000000000815260040180806020018281038252601d8152602001807f50726f6a65637420686173206265656e2066756c6c792066756e64656400000081525060200191505060405180910390fd5b8373ffffffffffffffffffffffffffffffffffffffff166323b872dd6110136115c7565b30856040518463ffffffff1660e01b8152600401808473ffffffffffffffffffffffffffffffffffffffff1681526020018373ffffffffffffffffffffffffffffffffffffffff1681526020018281526020019350505050602060405180830381600087803b15801561108557600080fd5b505af1158015611099573d6000803e3d6000fd5b505050506040513d60208110156110af57600080fd5b8101908080519060200190929190505050506110d8828260c0015161153f90919063ffffffff16565b600460008581526020019081526020016000206006018190555060405180606001604052806111056115c7565b73ffffffffffffffffffffffffffffffffffffffff16815260200161117c84600560006111306115c7565b73ffffffffffffffffffffffffffffffffffffffff1673ffffffffffffffffffffffffffffffffffffffff1681526020019081526020016000206001015461153f90919063ffffffff16565b815260200142815250600560006111916115c7565b73ffffffffffffffffffffffffffffffffffffffff1673ffffffffffffffffffffffffffffffffffffffff16815260200190815260200160002060008201518160000160006101000a81548173ffffffffffffffffffffffffffffffffffffffff021916908373ffffffffffffffffffffffffffffffffffffffff160217905550602082015181600101556040820151816002015590505081816000015173ffffffffffffffffffffffffffffffffffffffff1661124d6115c7565b73ffffffffffffffffffffffffffffffffffffffff167f508556561e0c4228bfc0a5a87f803c3e9ca577e97723e64a933ba8e00fcdb83960405160405180910390a450505050565b60008060009054906101000a900473ffffffffffffffffffffffffffffffffffffffff16905090565b60056020528060005260406000206000915090508060000160009054906101000a900473ffffffffffffffffffffffffffffffffffffffff16908060010154908060020154905083565b60065481565b6113166115c7565b73ffffffffffffffffffffffffffffffffffffffff1660008054906101000a900473ffffffffffffffffffffffffffffffffffffffff1673ffffffffffffffffffffffffffffffffffffffff16146113d6576040517f08c379a00000000000000000000000000000000000000000000000000000000081526004018080602001828103825260208152602001807f4f776e61626c653a2063616c6c6572206973206e6f7420746865206f776e657281525060200191505060405180910390fd5b600073ffffffffffffffffffffffffffffffffffffffff168173ffffffffffffffffffffffffffffffffffffffff16141561145c576040517f08c379a0000000000000000000000000000000000000000000000000000000008152600401808060200182810382526026815260200180611ea46026913960400191505060405180910390fd5b8073ffffffffffffffffffffffffffffffffffffffff1660008054906101000a900473ffffffffffffffffffffffffffffffffffffffff1673ffffffffffffffffffffffffffffffffffffffff167f8be0079c531659141344cd1fd0a4f28419497f9722a3daafe3b4186f6b6457e060405160405180910390a3806000806101000a81548173ffffffffffffffffffffffffffffffffffffffff021916908373ffffffffffffffffffffffffffffffffffffffff16021790555050565b600260009054906101000a900473ffffffffffffffffffffffffffffffffffffffff1681565b6000808284019050838110156115bd576040517f08c379a000000000000000000000000000000000000000000000000000000000815260040180806020018281038252601b8152602001807f536166654d6174683a206164646974696f6e206f766572666c6f77000000000081525060200191505060405180910390fd5b8091505092915050565b600033905090565b60006115d96115c7565b90506040518061014001604052808681526020018273ffffffffffffffffffffffffffffffffffffffff16815260200185815260200184815260200183815260200160008152602001600081526020016000815260200160001515815260200160001515815250600760008681526020019081526020016000206000820151816000015560208201518160010160006101000a81548173ffffffffffffffffffffffffffffffffffffffff021916908373ffffffffffffffffffffffffffffffffffffffff16021790555060408201518160020155606082015181600301556080820151816004015560a0820151816005015560c0820151816006015560e082015181600701556101008201518160080160006101000a81548160ff0219169083151502179055506101208201518160080160016101000a81548160ff021916908315150217905550905050838173ffffffffffffffffffffffffffffffffffffffff167f9a04d35e5beebc8236e4119d4176dc83cd0d7160c7d5843520171b176ede9a7987868660405161177093929190611ce5565b60405180910390a35050505050565b6040518060400160405280600081526020016000151581525090565b6000813590506117aa81611e5e565b92915050565b6000813590506117bf81611e75565b92915050565b6000813590506117d481611e8c565b92915050565b6000602082840312156117ec57600080fd5b60006117fa8482850161179b565b91505092915050565b60008060006060848603121561181857600080fd5b60006118268682870161179b565b9350506020611837868287016117c5565b9250506040611848868287016117c5565b9150509250925092565b60006020828403121561186457600080fd5b6000611872848285016117c5565b91505092915050565b6000806000806080858703121561189157600080fd5b600061189f878288016117c5565b94505060206118b0878288016117b0565b93505060406118c1878288016117c5565b92505060606118d2878288016117c5565b91505092959194509250565b600080600080608085870312156118f457600080fd5b6000611902878288016117c5565b9450506020611913878288016117c5565b9350506040611924878288016117c5565b9250506060611935878288016117c5565b91505092959194509250565b61194a81611e0c565b82525050565b61195981611e1e565b82525050565b61196881611e1e565b82525050565b61197781611e2a565b82525050565b600061198a602783611dfb565b91507f44347070476f7665726e616e63653a2050726f706f73616c20646f6573206e6f60008301527f74206578697374000000000000000000000000000000000000000000000000006020830152604082019050919050565b60006119f0604883611dfb565b91507f44347070476f7665726e616e63653a20737461727454696d65202620656e645460008301527f696d65206d7573742062652067726561746572207468616e20626c6f636b2e7460208301527f696d657374616d700000000000000000000000000000000000000000000000006040830152606082019050919050565b6000611a7c602983611dfb565b91507f476f7665726e616e63653a20496e76616c69642070726f706f73616c2064657360008301527f63726970746f696f6e00000000000000000000000000000000000000000000006020830152604082019050919050565b6000611ae2603683611dfb565b91507f44347070476f7665726e616e63653a20656e6454496d65206d7573742062652060008301527f67726561746572207468616e20737461727454696d65000000000000000000006020830152604082019050919050565b604082016000820151611b516000850182611b6a565b506020820151611b646020850182611950565b50505050565b611b7381611e54565b82525050565b611b8281611e54565b82525050565b6000602082019050611b9d6000830184611941565b92915050565b6000606082019050611bb86000830186611941565b611bc56020830185611b79565b611bd26040830184611b79565b949350505050565b600060e082019050611bef600083018a611941565b611bfc6020830189611b79565b611c096040830188611b79565b611c166060830187611b79565b611c236080830186611b79565b611c3060a0830185611b79565b611c3d60c0830184611b79565b98975050505050505050565b600061014082019050611c5f600083018d61196e565b611c6c602083018c611941565b611c79604083018b611b79565b611c86606083018a611b79565b611c936080830189611b79565b611ca060a0830188611b79565b611cad60c0830187611b79565b611cba60e0830186611b79565b611cc861010083018561195f565b611cd661012083018461195f565b9b9a5050505050505050505050565b6000606082019050611cfa600083018661196e565b611d076020830185611b79565b611d146040830184611b79565b949350505050565b60006020820190508181036000830152611d358161197d565b9050919050565b60006020820190508181036000830152611d55816119e3565b9050919050565b60006020820190508181036000830152611d7581611a6f565b9050919050565b60006020820190508181036000830152611d9581611ad5565b9050919050565b6000604082019050611db16000830184611b3b565b92915050565b6000602082019050611dcc6000830184611b79565b92915050565b6000604082019050611de76000830185611b79565b611df4602083018461195f565b9392505050565b600082825260208201905092915050565b6000611e1782611e34565b9050919050565b60008115159050919050565b6000819050919050565b600073ffffffffffffffffffffffffffffffffffffffff82169050919050565b6000819050919050565b611e6781611e0c565b8114611e7257600080fd5b50565b611e7e81611e2a565b8114611e8957600080fd5b50565b611e9581611e54565b8114611ea057600080fd5b5056fe4f776e61626c653a206e6577206f776e657220697320746865207a65726f206164647265737344347070476f7665726e616e63653a20536f6674436170206d757374206e6f7420657175616c204861726443617044347070476f7665726e616e63653a20536f6643617020616e642048617264436170206d7573742062652067726561746572207468616e207a65726f44347070476f7665726e616e63653a2050726f6a656374496420646f65736e277420657869737444347070476f7665726e616e63653a2050726f6a656374206475726174696f6e20686173206265656e20657863656564656444347070476f7665726e616e63653a20737461727454496d652073686f756c642062652067726561746572207468616e206f7220657175616c20746f2063757272656e7420626c6f636b44347070476f7665726e616e63653a204574686572206465706f73697473206973206e6f7420616c6c6f7765642144347070476f7665726e616e63653a206475726174696f6e206d7573742062652067726561746572207468616e207a65726fa264697066735822122038e0e92bfde065cb6421e56467d0cd9d8d268d03ed10b3db9eeb51e5f5acb84364736f6c63430007060033",
  "immutableReferences": {},
  "source": "// SPDX-License-Identifier: MIT\r\npragma solidity 0.7.6;\r\npragma abicoder v2;\r\n\r\nimport \"@openzeppelin/contracts/math/SafeMath.sol\";\r\nimport \"./D4ppCore.sol\";\r\n\r\ncontract D4ppGovernance is D4ppCore {\r\n    using SafeMath for uint;\r\n    uint public proposalCount;\r\n\r\n    // /// @notice Possible states that a proposal may be in\r\n    // enum ProposalState { Pending, Active, Defeated, Timelocked, AwaitingExecution, Executed, Expired }\r\n\r\n    struct Proposal {\r\n        // Propose subject\r\n        bytes32 description;\r\n        // Creator of the proposal\r\n        address proposer;\r\n        // Id of the project the call is to be made\r\n        uint projectId;\r\n        // The block at which voting begins\r\n        uint startTime;\r\n        // The block at which voting ends: votes must be cast prior to this block\r\n        uint endTime;\r\n        // Current number of votes in favor of this proposal\r\n        uint forVotes;\r\n        // Current number of votes in opposition to this proposal\r\n        uint againstVotes;\r\n        // Total number of votes that has been registered;\r\n        uint totalVotes;\r\n        // Flag marking whether the proposal has been executed\r\n        bool executed;\r\n        // Flag marking whether the proposal voting time has been extended\r\n        // Voting time can be extended once, if the proposal outcome has changed during CLOSING_PERIOD\r\n        bool extended;\r\n    }\r\n\r\n    /// @notice Ballot receipt record for a voter\r\n    struct Receipt {\r\n        // Project Id of the proposed vote\r\n        uint projectId;\r\n        // Whether or not a vote has been cast\r\n        bool hasVoted;\r\n    }\r\n\r\n\r\n    /// @notice The official record of all proposals ever proposed\r\n    mapping(uint => Proposal) public proposals;\r\n\r\n    /// @notice Receipts of ballots for the entire set of voters\r\n    mapping(address => Receipt) public receipts;\r\n\r\n    // /// @notice The latest proposal for each proposer\r\n    // mapping(address => uint) public latestProposalIds;\r\n\r\n    // /// @notice Timestamp when a user can withdraw tokens\r\n    // mapping(address => uint) public canWithdrawAfter;\r\n\r\n\r\n    /// @notice An event emitted when a new proposal is created\r\n    event ProposalCreated(\r\n        bytes32 description,\r\n        address indexed proposer,\r\n        uint indexed projectId,\r\n        uint startTime,\r\n        uint endTime\r\n    );\r\n\r\n    /// @notice An event emitted when a vote has been cast on a proposal\r\n    event Voted(uint indexed proposalId, address indexed voter, bool indexed support, uint votes);\r\n\r\n    /// @notice An event emitted when a proposal has been executed\r\n    event ProposalExecuted(uint indexed proposalId);\r\n\r\n    /// @notice Only valid owner is allowed to call the fucntion\r\n    modifier onlyValidCreator(uint _projectId) {\r\n        require(\r\n            _msgSender() == projects[_projectId].creator,\r\n            \"D4ppGovernance: Only valid owner is allowed to create proposal\"\r\n        );\r\n        _;\r\n    }\r\n\r\n    /// @notice Only vote while current time < endtime\r\n    modifier onlyWhileActive(uint _projectId) {\r\n        require(\r\n            proposals[_projectId].proposer != address(0),\r\n            \"D4ppGovernance: Proposal does not exist\"\r\n        );\r\n        require(\r\n            proposals[_projectId].endTime > block.timestamp,\r\n            \"D4ppGovernance: Proposal does not exist\"\r\n        );\r\n        _;\r\n    }\r\n\r\n    constructor(address _token) {\r\n        require(_token != address(0), \"D4ppGovernance: token is the zero address\");\r\n        token = _token;\r\n        totalProjectCount = 0;\r\n        _initialize();\r\n    }\r\n\r\n    function _initialize() internal {\r\n        proposalCount = 0;\r\n\r\n        address _proposer = address(0);\r\n        uint _projectId = 0;\r\n        uint _startTime = block.timestamp;\r\n        uint _endTime = block.timestamp;\r\n        bytes32 _description = bytes32(\"Initial proposal\");\r\n        // Create a dummy proposal so that indexes start from 1\r\n        proposals[_projectId] = Proposal(\r\n            _description,\r\n            _proposer,\r\n            _projectId,\r\n            _startTime,\r\n            _endTime,\r\n            0,\r\n            0,\r\n            1,\r\n            false,\r\n            false\r\n        );\r\n\r\n        receipts[_proposer] = Receipt(_projectId, true);\r\n        emit ProposalExecuted(_projectId);\r\n        emit ProposalCreated(\r\n            _description, \r\n            _proposer,\r\n            _projectId,\r\n            _startTime,\r\n            _endTime\r\n        );\r\n    }\r\n\r\n    function createProposal(uint _projectId, bytes32 _proposeDescription, uint _startTime, uint _endTime) public {\r\n        require(\r\n            _startTime > block.timestamp && \r\n            _endTime > block.timestamp,\r\n            \"D4ppGovernance: startTime & endTime must be greater than block.timestamp\"\r\n        );\r\n        require(\r\n            _endTime > _startTime,\r\n            \"D4ppGovernance: endTIme must be greater than startTime\"\r\n        );\r\n        require(\r\n            _proposeDescription != bytes32(\"\"), \r\n            \"Governance: Invalid proposal descriptoion\"\r\n        );\r\n        _propose(_proposeDescription, _projectId, _startTime, _endTime);\r\n    }\r\n\r\n    function _propose(bytes32 _description, uint _projectId, uint _startTime, uint _endTime) internal {\r\n        address _proposer = _msgSender();\r\n        proposals[_projectId] = Proposal(\r\n            _description,\r\n            _proposer,\r\n            _projectId,\r\n            _startTime,\r\n            _endTime,\r\n            0,\r\n            0,\r\n            0,\r\n            false,\r\n            false\r\n        );\r\n        emit ProposalCreated(\r\n            _description, \r\n            _proposer,\r\n            _projectId,\r\n            _startTime,\r\n            _endTime\r\n        );\r\n    }\r\n\r\n    function vote(uint _projectId) public onlyWhileActive(_projectId) returns(Receipt memory) {\r\n        \r\n    }\r\n\r\n}",
  "sourcePath": "C:/Users/DragonLord/Desktop/dApp/d4pp_project/contracts/D4ppGovernance.sol",
  "compiler": {
    "name": "solc",
    "version": "0.7.6+commit.7338295f.Emscripten.clang"
  },
  "schemaVersion": "3.3.3",
  "updatedAt": "2021-01-04T11:54:23.576Z",
  "devdoc": {
    "kind": "dev",
    "methods": {
      "owner()": {
        "details": "Returns the address of the current owner."
      },
      "renounceOwnership()": {
        "details": "Leaves the contract without owner. It will not be possible to call `onlyOwner` functions anymore. Can only be called by the current owner. NOTE: Renouncing ownership will leave the contract without an owner, thereby removing any functionality that is only available to the owner."
      },
      "transferOwnership(address)": {
        "details": "Transfers ownership of the contract to a new account (`newOwner`). Can only be called by the current owner."
      }
    },
    "version": 1
  },
  "userdoc": {
    "events": {
      "ProposalCreated(bytes32,address,uint256,uint256,uint256)": {
        "notice": "An event emitted when a new proposal is created"
      },
      "ProposalExecuted(uint256)": {
        "notice": "An event emitted when a proposal has been executed"
      },
      "Voted(uint256,address,bool,uint256)": {
        "notice": "An event emitted when a vote has been cast on a proposal"
      }
    },
    "kind": "user",
    "methods": {
      "proposals(uint256)": {
        "notice": "The official record of all proposals ever proposed"
      },
      "receipts(address)": {
        "notice": "Receipts of ballots for the entire set of voters"
      }
    },
    "version": 1
  }
}