{
  "contractName": "D4ppCore",
  "abi": [
    {
      "inputs": [
        {
          "internalType": "address",
          "name": "_token",
          "type": "address"
        }
      ],
      "stateMutability": "nonpayable",
      "type": "constructor"
    },
    {
      "anonymous": false,
      "inputs": [
        {
          "indexed": true,
          "internalType": "address",
          "name": "user",
          "type": "address"
        },
        {
          "indexed": true,
          "internalType": "uint256",
          "name": "projectId",
          "type": "uint256"
        },
        {
          "indexed": true,
          "internalType": "uint256",
          "name": "amount",
          "type": "uint256"
        }
      ],
      "name": "GrantFunds",
      "type": "event"
    },
    {
      "anonymous": false,
      "inputs": [
        {
          "indexed": true,
          "internalType": "address",
          "name": "previousOwner",
          "type": "address"
        },
        {
          "indexed": true,
          "internalType": "address",
          "name": "newOwner",
          "type": "address"
        }
      ],
      "name": "OwnershipTransferred",
      "type": "event"
    },
    {
      "anonymous": false,
      "inputs": [
        {
          "indexed": true,
          "internalType": "address",
          "name": "creator",
          "type": "address"
        },
        {
          "indexed": true,
          "internalType": "uint256",
          "name": "projectId",
          "type": "uint256"
        }
      ],
      "name": "ProjectCreated",
      "type": "event"
    },
    {
      "inputs": [
        {
          "internalType": "uint256",
          "name": "",
          "type": "uint256"
        },
        {
          "internalType": "address",
          "name": "",
          "type": "address"
        }
      ],
      "name": "grants",
      "outputs": [
        {
          "internalType": "uint256",
          "name": "",
          "type": "uint256"
        }
      ],
      "stateMutability": "view",
      "type": "function"
    },
    {
      "inputs": [],
      "name": "owner",
      "outputs": [
        {
          "internalType": "address",
          "name": "",
          "type": "address"
        }
      ],
      "stateMutability": "view",
      "type": "function"
    },
    {
      "inputs": [],
      "name": "projectCount",
      "outputs": [
        {
          "internalType": "uint256",
          "name": "",
          "type": "uint256"
        }
      ],
      "stateMutability": "view",
      "type": "function"
    },
    {
      "inputs": [
        {
          "internalType": "uint256",
          "name": "",
          "type": "uint256"
        }
      ],
      "name": "projects",
      "outputs": [
        {
          "internalType": "address",
          "name": "creator",
          "type": "address"
        },
        {
          "internalType": "uint256",
          "name": "projectId",
          "type": "uint256"
        },
        {
          "internalType": "uint256",
          "name": "startTime",
          "type": "uint256"
        },
        {
          "internalType": "uint256",
          "name": "endTime",
          "type": "uint256"
        },
        {
          "internalType": "uint256",
          "name": "softCap",
          "type": "uint256"
        },
        {
          "internalType": "uint256",
          "name": "hardCap",
          "type": "uint256"
        },
        {
          "internalType": "uint256",
          "name": "currentRaised",
          "type": "uint256"
        }
      ],
      "stateMutability": "view",
      "type": "function"
    },
    {
      "inputs": [],
      "name": "renounceOwnership",
      "outputs": [],
      "stateMutability": "nonpayable",
      "type": "function"
    },
    {
      "inputs": [
        {
          "internalType": "address",
          "name": "",
          "type": "address"
        }
      ],
      "name": "rewardsPaid",
      "outputs": [
        {
          "internalType": "bool",
          "name": "",
          "type": "bool"
        }
      ],
      "stateMutability": "view",
      "type": "function"
    },
    {
      "inputs": [
        {
          "internalType": "uint256",
          "name": "",
          "type": "uint256"
        }
      ],
      "name": "rewardsPool",
      "outputs": [
        {
          "internalType": "address",
          "name": "token",
          "type": "address"
        },
        {
          "internalType": "uint256",
          "name": "projectId",
          "type": "uint256"
        },
        {
          "internalType": "uint256",
          "name": "amount",
          "type": "uint256"
        }
      ],
      "stateMutability": "view",
      "type": "function"
    },
    {
      "inputs": [],
      "name": "token",
      "outputs": [
        {
          "internalType": "address",
          "name": "",
          "type": "address"
        }
      ],
      "stateMutability": "view",
      "type": "function"
    },
    {
      "inputs": [
        {
          "internalType": "address",
          "name": "newOwner",
          "type": "address"
        }
      ],
      "name": "transferOwnership",
      "outputs": [],
      "stateMutability": "nonpayable",
      "type": "function"
    },
    {
      "inputs": [
        {
          "internalType": "uint256",
          "name": "_startTime",
          "type": "uint256"
        },
        {
          "internalType": "uint256",
          "name": "_endTime",
          "type": "uint256"
        },
        {
          "internalType": "uint256",
          "name": "_softCap",
          "type": "uint256"
        },
        {
          "internalType": "uint256",
          "name": "_hardCap",
          "type": "uint256"
        }
      ],
      "name": "registerProject",
      "outputs": [],
      "stateMutability": "nonpayable",
      "type": "function"
    },
    {
      "inputs": [
        {
          "internalType": "uint256",
          "name": "_projectId",
          "type": "uint256"
        },
        {
          "internalType": "uint256",
          "name": "_amount",
          "type": "uint256"
        }
      ],
      "name": "grantFunds",
      "outputs": [],
      "stateMutability": "nonpayable",
      "type": "function"
    },
    {
      "inputs": [
        {
          "internalType": "uint256",
          "name": "_projectId",
          "type": "uint256"
        },
        {
          "internalType": "address",
          "name": "_token",
          "type": "address"
        },
        {
          "internalType": "uint256",
          "name": "_amount",
          "type": "uint256"
        }
      ],
      "name": "seedTokensToProject",
      "outputs": [],
      "stateMutability": "nonpayable",
      "type": "function"
    },
    {
      "inputs": [
        {
          "internalType": "uint256",
          "name": "_projectId",
          "type": "uint256"
        }
      ],
      "name": "withdrawRewards",
      "outputs": [],
      "stateMutability": "nonpayable",
      "type": "function"
    },
    {
      "inputs": [
        {
          "internalType": "address",
          "name": "_tokenAddress",
          "type": "address"
        }
      ],
      "name": "withdarAnyERC20Tokens",
      "outputs": [],
      "stateMutability": "nonpayable",
      "type": "function"
    }
  ],
  "bytecode": "0x608060405234801561001057600080fd5b5060405161206e38038061206e8339818101604052602081101561003357600080fd5b810190808051906020019092919050505060006100546101ce60201b60201c565b9050806000806101000a81548173ffffffffffffffffffffffffffffffffffffffff021916908373ffffffffffffffffffffffffffffffffffffffff1602179055508073ffffffffffffffffffffffffffffffffffffffff16600073ffffffffffffffffffffffffffffffffffffffff167f8be0079c531659141344cd1fd0a4f28419497f9722a3daafe3b4186f6b6457e060405160405180910390a350600180819055506000600381905550600073ffffffffffffffffffffffffffffffffffffffff168173ffffffffffffffffffffffffffffffffffffffff161415610187576040517f08c379a00000000000000000000000000000000000000000000000000000000081526004018080602001828103825260298152602001806120456029913960400191505060405180910390fd5b80600260006101000a81548173ffffffffffffffffffffffffffffffffffffffff021916908373ffffffffffffffffffffffffffffffffffffffff160217905550506101d6565b600033905090565b611e60806101e56000396000f3fe608060405234801561001057600080fd5b50600436106100ea5760003560e01c80637526f5171161008c5780639342c8f4116100665780639342c8f4146103b7578063d3dc1a75146103e5578063f2fde38b1461043d578063fc0c546a14610481576100ea565b80637526f517146102e95780638da5cb5b1461034b5780638e0b8e091461037f576100ea565b8063459f3e42116100c8578063459f3e42146101db5780635947b94514610241578063700a4a7414610285578063715018a6146102df576100ea565b8063107046bd146100ef578063229149ed1461017157806336fbad26146101bd575b600080fd5b61011b6004803603602081101561010557600080fd5b81019080803590602001909291905050506104b5565b604051808873ffffffffffffffffffffffffffffffffffffffff16815260200187815260200186815260200185815260200184815260200183815260200182815260200197505050505050505060405180910390f35b6101bb6004803603608081101561018757600080fd5b8101908080359060200190929190803590602001909291908035906020019092919080359060200190929190505050610517565b005b6101c56107ed565b6040518082815260200191505060405180910390f35b610207600480360360208110156101f157600080fd5b81019080803590602001909291905050506107f3565b604051808473ffffffffffffffffffffffffffffffffffffffff168152602001838152602001828152602001935050505060405180910390f35b6102836004803603602081101561025757600080fd5b81019080803573ffffffffffffffffffffffffffffffffffffffff16906020019092919050505061083d565b005b6102c76004803603602081101561029b57600080fd5b81019080803573ffffffffffffffffffffffffffffffffffffffff169060200190929190505050610a63565b60405180821515815260200191505060405180910390f35b6102e7610a83565b005b610335600480360360408110156102ff57600080fd5b8101908080359060200190929190803573ffffffffffffffffffffffffffffffffffffffff169060200190929190505050610c09565b6040518082815260200191505060405180910390f35b610353610c2e565b604051808273ffffffffffffffffffffffffffffffffffffffff16815260200191505060405180910390f35b6103b56004803603604081101561039557600080fd5b810190808035906020019092919080359060200190929190505050610c57565b005b6103e3600480360360208110156103cd57600080fd5b810190808035906020019092919050505061109f565b005b61043b600480360360608110156103fb57600080fd5b8101908080359060200190929190803573ffffffffffffffffffffffffffffffffffffffff16906020019092919080359060200190929190505050611441565b005b61047f6004803603602081101561045357600080fd5b81019080803573ffffffffffffffffffffffffffffffffffffffff1690602001909291905050506116a3565b005b6104896118ae565b604051808273ffffffffffffffffffffffffffffffffffffffff16815260200191505060405180910390f35b60046020528060005260406000206000915090508060000160009054906101000a900473ffffffffffffffffffffffffffffffffffffffff16908060010154908060020154908060030154908060040154908060050154908060060154905087565b428411801561052557504283115b61057a576040517f08c379a0000000000000000000000000000000000000000000000000000000008152600401808060200182810382526050815260200180611cf96050913960600191505060405180910390fd5b8383116105d2576040517f08c379a0000000000000000000000000000000000000000000000000000000008152600401808060200182810382526030815260200180611dfb6030913960400191505060405180910390fd5b6000821180156105e25750600081115b610637576040517f08c379a0000000000000000000000000000000000000000000000000000000008152600401808060200182810382526036815260200180611d6a6036913960400191505060405180910390fd5b80821415610690576040517f08c379a0000000000000000000000000000000000000000000000000000000008152600401808060200182810382526028815260200180611da06028913960400191505060405180910390fd5b6106a660016003546118d490919063ffffffff16565b6003819055506040518060e001604052806106bf61195c565b73ffffffffffffffffffffffffffffffffffffffff1681526020016003548152602001858152602001848152602001838152602001828152602001600081525060046000600354815260200190815260200160002060008201518160000160006101000a81548173ffffffffffffffffffffffffffffffffffffffff021916908373ffffffffffffffffffffffffffffffffffffffff1602179055506020820151816001015560408201518160020155606082015181600301556080820151816004015560a0820151816005015560c082015181600601559050506003546107a561195c565b73ffffffffffffffffffffffffffffffffffffffff167f20bfd29f3d906f96fc35742fac45a554b19cbd4e21f8c4c1d84cb58fdfc32c8960405160405180910390a350505050565b60035481565b60066020528060005260406000206000915090508060000160009054906101000a900473ffffffffffffffffffffffffffffffffffffffff16908060010154908060020154905083565b61084561195c565b73ffffffffffffffffffffffffffffffffffffffff1660008054906101000a900473ffffffffffffffffffffffffffffffffffffffff1673ffffffffffffffffffffffffffffffffffffffff1614610905576040517f08c379a00000000000000000000000000000000000000000000000000000000081526004018080602001828103825260208152602001807f4f776e61626c653a2063616c6c6572206973206e6f7420746865206f776e657281525060200191505060405180910390fd5b60008173ffffffffffffffffffffffffffffffffffffffff166370a08231306040518263ffffffff1660e01b8152600401808273ffffffffffffffffffffffffffffffffffffffff16815260200191505060206040518083038186803b15801561096e57600080fd5b505afa158015610982573d6000803e3d6000fd5b505050506040513d602081101561099857600080fd5b810190808051906020019092919050505090508173ffffffffffffffffffffffffffffffffffffffff1663a9059cbb6109cf61195c565b836040518363ffffffff1660e01b8152600401808373ffffffffffffffffffffffffffffffffffffffff16815260200182815260200192505050602060405180830381600087803b158015610a2357600080fd5b505af1158015610a37573d6000803e3d6000fd5b505050506040513d6020811015610a4d57600080fd5b8101908080519060200190929190505050505050565b60076020528060005260406000206000915054906101000a900460ff1681565b610a8b61195c565b73ffffffffffffffffffffffffffffffffffffffff1660008054906101000a900473ffffffffffffffffffffffffffffffffffffffff1673ffffffffffffffffffffffffffffffffffffffff1614610b4b576040517f08c379a00000000000000000000000000000000000000000000000000000000081526004018080602001828103825260208152602001807f4f776e61626c653a2063616c6c6572206973206e6f7420746865206f776e657281525060200191505060405180910390fd5b600073ffffffffffffffffffffffffffffffffffffffff1660008054906101000a900473ffffffffffffffffffffffffffffffffffffffff1673ffffffffffffffffffffffffffffffffffffffff167f8be0079c531659141344cd1fd0a4f28419497f9722a3daafe3b4186f6b6457e060405160405180910390a360008060006101000a81548173ffffffffffffffffffffffffffffffffffffffff021916908373ffffffffffffffffffffffffffffffffffffffff160217905550565b6005602052816000526040600020602052806000526040600020600091509150505481565b60008060009054906101000a900473ffffffffffffffffffffffffffffffffffffffff16905090565b6000600460008481526020019081526020016000206040518060e00160405290816000820160009054906101000a900473ffffffffffffffffffffffffffffffffffffffff1673ffffffffffffffffffffffffffffffffffffffff1673ffffffffffffffffffffffffffffffffffffffff16815260200160018201548152602001600282015481526020016003820154815260200160048201548152602001600582015481526020016006820154815250509050600073ffffffffffffffffffffffffffffffffffffffff16816000015173ffffffffffffffffffffffffffffffffffffffff161415610d95576040517f08c379a0000000000000000000000000000000000000000000000000000000008152600401808060200182810382526021815260200180611cd86021913960400191505060405180910390fd5b42816060015111610df1576040517f08c379a0000000000000000000000000000000000000000000000000000000008152600401808060200182810382526023815260200180611cb56023913960400191505060405180910390fd5b8060a00151610e0d838360c001516118d490919063ffffffff16565b1115610e64576040517f08c379a0000000000000000000000000000000000000000000000000000000008152600401808060200182810382526027815260200180611c8e6027913960400191505060405180910390fd5b600260009054906101000a900473ffffffffffffffffffffffffffffffffffffffff1673ffffffffffffffffffffffffffffffffffffffff166323b872dd610eaa61195c565b30856040518463ffffffff1660e01b8152600401808473ffffffffffffffffffffffffffffffffffffffff1681526020018373ffffffffffffffffffffffffffffffffffffffff1681526020018281526020019350505050602060405180830381600087803b158015610f1c57600080fd5b505af1158015610f30573d6000803e3d6000fd5b505050506040513d6020811015610f4657600080fd5b810190808051906020019092919050505050610f6f828260c001516118d490919063ffffffff16565b6004600085815260200190815260200160002060060181905550610ff382600560008681526020019081526020016000206000610faa61195c565b73ffffffffffffffffffffffffffffffffffffffff1673ffffffffffffffffffffffffffffffffffffffff168152602001908152602001600020546118d490919063ffffffff16565b60056000858152602001908152602001600020600061101061195c565b73ffffffffffffffffffffffffffffffffffffffff1673ffffffffffffffffffffffffffffffffffffffff16815260200190815260200160002081905550818361105861195c565b73ffffffffffffffffffffffffffffffffffffffff167f069f395fd833af2bf669bcfe3672d02bf3c3e5fe1ec9d2ba309f60f3855bd64f60405160405180910390a4505050565b60006005600083815260200190815260200160002060006110be61195c565b73ffffffffffffffffffffffffffffffffffffffff1673ffffffffffffffffffffffffffffffffffffffff168152602001908152602001600020541161114f576040517f08c379a0000000000000000000000000000000000000000000000000000000008152600401808060200182810382526033815260200180611dc86033913960400191505060405180910390fd5b6007600061115b61195c565b73ffffffffffffffffffffffffffffffffffffffff1673ffffffffffffffffffffffffffffffffffffffff16815260200190815260200160002060009054906101000a900460ff16156111f9576040517f08c379a0000000000000000000000000000000000000000000000000000000008152600401808060200182810382526037815260200180611c316037913960400191505060405180910390fd5b60006006600083815260200190815260200160002060000160009054906101000a900473ffffffffffffffffffffffffffffffffffffffff16905060006006600084815260200190815260200160002060020154905060006112e3826112d5600460008881526020019081526020016000206006015460056000898152602001908152602001600020600061128c61195c565b73ffffffffffffffffffffffffffffffffffffffff1673ffffffffffffffffffffffffffffffffffffffff1681526020019081526020016000205461196490919063ffffffff16565b6119ae90919063ffffffff16565b90506001600760006112f361195c565b73ffffffffffffffffffffffffffffffffffffffff1673ffffffffffffffffffffffffffffffffffffffff16815260200190815260200160002060006101000a81548160ff02191690831515021790555061136d816006600087815260200190815260200160002060020154611a3490919063ffffffff16565b60066000868152602001908152602001600020600201819055508273ffffffffffffffffffffffffffffffffffffffff1663a9059cbb6113ab61195c565b836040518363ffffffff1660e01b8152600401808373ffffffffffffffffffffffffffffffffffffffff16815260200182815260200192505050602060405180830381600087803b1580156113ff57600080fd5b505af1158015611413573d6000803e3d6000fd5b505050506040513d602081101561142957600080fd5b81019080805190602001909291905050505050505050565b6004600084815260200190815260200160002060000160009054906101000a900473ffffffffffffffffffffffffffffffffffffffff1673ffffffffffffffffffffffffffffffffffffffff1661149661195c565b73ffffffffffffffffffffffffffffffffffffffff1614611502576040517f08c379a000000000000000000000000000000000000000000000000000000000815260040180806020018281038252602c815260200180611c05602c913960400191505060405180910390fd5b8173ffffffffffffffffffffffffffffffffffffffff166323b872dd61152661195c565b30846040518463ffffffff1660e01b8152600401808473ffffffffffffffffffffffffffffffffffffffff1681526020018373ffffffffffffffffffffffffffffffffffffffff1681526020018281526020019350505050602060405180830381600087803b15801561159857600080fd5b505af11580156115ac573d6000803e3d6000fd5b505050506040513d60208110156115c257600080fd5b81019080805190602001909291905050505060405180606001604052808373ffffffffffffffffffffffffffffffffffffffff16815260200184815260200161162a8360066000888152602001908152602001600020600201546118d490919063ffffffff16565b8152506006600085815260200190815260200160002060008201518160000160006101000a81548173ffffffffffffffffffffffffffffffffffffffff021916908373ffffffffffffffffffffffffffffffffffffffff1602179055506020820151816001015560408201518160020155905050505050565b6116ab61195c565b73ffffffffffffffffffffffffffffffffffffffff1660008054906101000a900473ffffffffffffffffffffffffffffffffffffffff1673ffffffffffffffffffffffffffffffffffffffff161461176b576040517f08c379a00000000000000000000000000000000000000000000000000000000081526004018080602001828103825260208152602001807f4f776e61626c653a2063616c6c6572206973206e6f7420746865206f776e657281525060200191505060405180910390fd5b600073ffffffffffffffffffffffffffffffffffffffff168173ffffffffffffffffffffffffffffffffffffffff1614156117f1576040517f08c379a0000000000000000000000000000000000000000000000000000000008152600401808060200182810382526026815260200180611c686026913960400191505060405180910390fd5b8073ffffffffffffffffffffffffffffffffffffffff1660008054906101000a900473ffffffffffffffffffffffffffffffffffffffff1673ffffffffffffffffffffffffffffffffffffffff167f8be0079c531659141344cd1fd0a4f28419497f9722a3daafe3b4186f6b6457e060405160405180910390a3806000806101000a81548173ffffffffffffffffffffffffffffffffffffffff021916908373ffffffffffffffffffffffffffffffffffffffff16021790555050565b600260009054906101000a900473ffffffffffffffffffffffffffffffffffffffff1681565b600080828401905083811015611952576040517f08c379a000000000000000000000000000000000000000000000000000000000815260040180806020018281038252601b8152602001807f536166654d6174683a206164646974696f6e206f766572666c6f77000000000081525060200191505060405180910390fd5b8091505092915050565b600033905090565b60006119a683836040518060400160405280601a81526020017f536166654d6174683a206469766973696f6e206279207a65726f000000000000815250611a7e565b905092915050565b6000808314156119c15760009050611a2e565b60008284029050828482816119d257fe5b0414611a29576040517f08c379a0000000000000000000000000000000000000000000000000000000008152600401808060200182810382526021815260200180611d496021913960400191505060405180910390fd5b809150505b92915050565b6000611a7683836040518060400160405280601e81526020017f536166654d6174683a207375627472616374696f6e206f766572666c6f770000815250611b44565b905092915050565b60008083118290611b2a576040517f08c379a00000000000000000000000000000000000000000000000000000000081526004018080602001828103825283818151815260200191508051906020019080838360005b83811015611aef578082015181840152602081019050611ad4565b50505050905090810190601f168015611b1c5780820380516001836020036101000a031916815260200191505b509250505060405180910390fd5b506000838581611b3657fe5b049050809150509392505050565b6000838311158290611bf1576040517f08c379a00000000000000000000000000000000000000000000000000000000081526004018080602001828103825283818151815260200191508051906020019080838360005b83811015611bb6578082015181840152602081019050611b9b565b50505050905090810190601f168015611be35780820380516001836020036101000a031916815260200191505b509250505060405180910390fd5b506000838503905080915050939250505056fe44347070436f72653a204f6e6c792076616c69642063726561746f722063616e207365656420746f6b656e7344347070436f72653a204e6f7420656c696769626c6520746f20616e7920726577617264732066726f6d20746869732070726f6a6563744f776e61626c653a206e6577206f776e657220697320746865207a65726f206164647265737344347070436f72653a2050726f6a65637420686173206265656e2066756c6c792066756e64656444347070436f72653a20456e6454696d6520686173206265656e20657863656564656444347070436f72653a2050726f6a656374496420646f65736e277420657869737444347070436f72653a20737461727454696d6520616e6420656e6454696d652073686f756c642062652067726561746572207468616e206f7220657175616c20746f2063757272656e7420626c6f636b536166654d6174683a206d756c7469706c69636174696f6e206f766572666c6f7744347070436f72653a20536f6643617020616e642048617264436170206d7573742062652067726561746572207468616e207a65726f44347070436f72653a20536f6674436170206d757374206e6f7420657175616c204861726443617044347070436f72653a204e6f7420656c696769626c6520746f20726577617264732066726f6d20746869732070726f6a65637444347070436f72653a20656e6454696d65206d7573742062652067726561746572207468616e20737461727454696d65a26469706673582212204e5b2794caa9eca0b0a096cee5b87e91c27e2e71915d5b88b1f8bb77e917d9f964736f6c6343000706003344347070476f7665726e616e63653a20746f6b656e20697320746865207a65726f2061646472657373",
  "immutableReferences": {},
  "source": "// SPDX-License-Identifier: MIT\r\npragma solidity 0.7.6;\r\n\r\nimport \"@openzeppelin/contracts/GSN/Context.sol\";\r\nimport \"@openzeppelin/contracts/access/Ownable.sol\";\r\nimport \"@openzeppelin/contracts/utils/ReentrancyGuard.sol\";\r\nimport \"@openzeppelin/contracts/math/SafeMath.sol\";\r\nimport \"@openzeppelin/contracts/token/ERC20/IERC20.sol\";\r\n\r\n\r\ncontract D4ppCore is Ownable, ReentrancyGuard {\r\n    using SafeMath for uint256;\r\n\r\n    /// @notice Stores D4PP Token address\r\n    address public token;\r\n\r\n    /// @notice Keeps track of total projects count\r\n    uint public projectCount;\r\n    \r\n    /// @notice An event emitted when a Project is been created\r\n    event ProjectCreated(address indexed creator, uint indexed projectId);\r\n\r\n    /// @notice An event emitted when a user grants funds to a specific project\r\n    event GrantFunds(address indexed user, uint indexed projectId, uint indexed amount);\r\n\r\n    struct Project{\r\n        address creator;\r\n        uint projectId;\r\n        uint startTime;\r\n        uint endTime;\r\n        uint softCap;\r\n        uint hardCap;\r\n        uint currentRaised;\r\n    }\r\n    struct Rewards {\r\n        address token;\r\n        uint projectId;\r\n        uint amount;\r\n    }\r\n\r\n    /// @notice Stores a record of all the registered projects\r\n    mapping(uint => Project) public projects;\r\n\r\n    /// @notice Stores a record of all the grants made\r\n    mapping(uint => mapping(address => uint)) public grants;\r\n\r\n    /// @notice Keeps track of tokens seeded to the rewardPool \r\n    mapping(uint => Rewards) public rewardsPool;\r\n\r\n    /// @notice Keeps tracks of the paid rewards\r\n    mapping(address => bool) public rewardsPaid;\r\n\r\n    /// @param _token: Address of D4PP token\r\n    constructor(address _token) {\r\n        projectCount = 0;\r\n        require(_token != address(0), \"D4ppGovernance: token is the zero address\");\r\n        token = _token;\r\n    }\r\n\r\n    /// @dev Register new project\r\n    /// @param _startTime: Timestamp of when the crowdfund will start\r\n    /// @param _endTime: End time of when the crowdfund will end\r\n    /// @param _softCap: \r\n    function registerProject(uint _startTime, uint _endTime, uint _softCap, uint _hardCap) external {\r\n        require(\r\n            _startTime > block.timestamp &&\r\n            _endTime > block.timestamp,\r\n            \"D4ppCore: startTime and endTime should be greater than or equal to current block\"\r\n        );\r\n        require(\r\n            _endTime > _startTime, \r\n            \"D4ppCore: endTime must be greater than startTime\"\r\n        );\r\n        require(_softCap > 0 && _hardCap > 0, \"D4ppCore: SofCap and HardCap must be greater than zero\");\r\n        require(_softCap != _hardCap, \"D4ppCore: SoftCap must not equal HardCap\");\r\n\r\n        projectCount = projectCount.add(1);\r\n        projects[projectCount] = Project(\r\n            _msgSender(),\r\n            projectCount,\r\n            _startTime,\r\n            _endTime,\r\n            _softCap,\r\n            _hardCap,\r\n            0\r\n        );\r\n        emit ProjectCreated(_msgSender(), projectCount);\r\n    }\r\n\r\n\r\n    function grantFunds(uint _projectId, uint _amount) external {\r\n        Project memory _project = projects[_projectId];\r\n        require(_project.creator != address(0), \"D4ppCore: ProjectId doesn't exist\");\r\n        require(\r\n            _project.endTime > block.timestamp, \r\n            \"D4ppCore: EndTime has been exceeded\"\r\n        );\r\n        require(\r\n            _project.currentRaised.add(_amount) <= _project.hardCap,\r\n            \"D4ppCore: Project has been fully funded\"\r\n        );\r\n        IERC20(token).transferFrom(_msgSender(), address(this), _amount);\r\n        projects[_projectId].currentRaised = _project.currentRaised.add(_amount);\r\n        grants[_projectId][_msgSender()] = grants[_projectId][_msgSender()].add(_amount);\r\n        emit GrantFunds(_msgSender(), _projectId, _amount);\r\n    }\r\n\r\n    function seedTokensToProject(uint _projectId, address _token, uint _amount) external {\r\n        require(\r\n            _msgSender() == projects[_projectId].creator,\r\n            \"D4ppCore: Only valid creator can seed tokens\"\r\n        );\r\n        IERC20(_token).transferFrom(_msgSender(), address(this), _amount);\r\n        rewardsPool[_projectId] = Rewards(\r\n            _token,\r\n            _projectId,\r\n            rewardsPool[_projectId].amount.add(_amount)\r\n        );\r\n    }\r\n\r\n    function withdrawRewards(uint _projectId) external {\r\n        require(\r\n            grants[_projectId][_msgSender()] > 0,\r\n            \"D4ppCore: Not eligible to rewards from this project\"\r\n        );\r\n        require(\r\n            !rewardsPaid[_msgSender()],\r\n            \"D4ppCore: Not eligible to any rewards from this project\"\r\n        );\r\n        address _token = rewardsPool[_projectId].token;\r\n        uint _totalRewards = rewardsPool[_projectId].amount;\r\n        uint _rewards = (grants[_projectId][_msgSender()].div(projects[_projectId].currentRaised)).mul(_totalRewards);\r\n        \r\n        rewardsPaid[_msgSender()] = true;\r\n        rewardsPool[_projectId].amount = rewardsPool[_projectId].amount.sub(_rewards);\r\n        IERC20(_token).transfer(_msgSender(), _rewards);\r\n    }\r\n\r\n    function withdarAnyERC20Tokens(address _tokenAddress) external onlyOwner {\r\n        uint _balance = IERC20(_tokenAddress).balanceOf(address(this));\r\n        IERC20(_tokenAddress).transfer(_msgSender(), _balance);\r\n    }\r\n}",
  "sourcePath": "C:\\Users\\DragonLord\\Desktop\\dApp\\d4pp_project\\contracts\\D4ppCore.sol",
  "compiler": {
    "name": "solc",
    "version": "0.7.6+commit.7338295f.Emscripten.clang"
  },
  "schemaVersion": "3.3.3",
  "updatedAt": "2021-01-05T17:31:23.352Z",
  "devdoc": {
    "kind": "dev",
    "methods": {
      "constructor": {
        "params": {
          "_token": ": Address of D4PP token"
        }
      },
      "owner()": {
        "details": "Returns the address of the current owner."
      },
      "registerProject(uint256,uint256,uint256,uint256)": {
        "details": "Register new project",
        "params": {
          "_endTime": ": End time of when the crowdfund will end",
          "_softCap": ": ",
          "_startTime": ": Timestamp of when the crowdfund will start"
        }
      },
      "renounceOwnership()": {
        "details": "Leaves the contract without owner. It will not be possible to call `onlyOwner` functions anymore. Can only be called by the current owner. NOTE: Renouncing ownership will leave the contract without an owner, thereby removing any functionality that is only available to the owner."
      },
      "transferOwnership(address)": {
        "details": "Transfers ownership of the contract to a new account (`newOwner`). Can only be called by the current owner."
      }
    },
    "version": 1
  },
  "userdoc": {
    "events": {
      "GrantFunds(address,uint256,uint256)": {
        "notice": "An event emitted when a user grants funds to a specific project"
      },
      "ProjectCreated(address,uint256)": {
        "notice": "An event emitted when a Project is been created"
      }
    },
    "kind": "user",
    "methods": {
      "grants(uint256,address)": {
        "notice": "Stores a record of all the grants made"
      },
      "projectCount()": {
        "notice": "Keeps track of total projects count"
      },
      "projects(uint256)": {
        "notice": "Stores a record of all the registered projects"
      },
      "rewardsPaid(address)": {
        "notice": "Keeps tracks of the paid rewards"
      },
      "rewardsPool(uint256)": {
        "notice": "Keeps track of tokens seeded to the rewardPool "
      },
      "token()": {
        "notice": "Stores D4PP Token address"
      }
    },
    "version": 1
  }
}