{
  "contractName": "D4ppGovernance",
  "abi": [
    {
      "inputs": [
        {
          "internalType": "address",
          "name": "_token",
          "type": "address"
        }
      ],
      "stateMutability": "nonpayable",
      "type": "constructor"
    },
    {
      "anonymous": false,
      "inputs": [
        {
          "indexed": true,
          "internalType": "address",
          "name": "user",
          "type": "address"
        },
        {
          "indexed": true,
          "internalType": "uint256",
          "name": "projectId",
          "type": "uint256"
        },
        {
          "indexed": true,
          "internalType": "uint256",
          "name": "amount",
          "type": "uint256"
        }
      ],
      "name": "GrantFunds",
      "type": "event"
    },
    {
      "anonymous": false,
      "inputs": [
        {
          "indexed": true,
          "internalType": "address",
          "name": "previousOwner",
          "type": "address"
        },
        {
          "indexed": true,
          "internalType": "address",
          "name": "newOwner",
          "type": "address"
        }
      ],
      "name": "OwnershipTransferred",
      "type": "event"
    },
    {
      "anonymous": false,
      "inputs": [
        {
          "indexed": true,
          "internalType": "address",
          "name": "creator",
          "type": "address"
        },
        {
          "indexed": true,
          "internalType": "uint256",
          "name": "projectId",
          "type": "uint256"
        }
      ],
      "name": "ProjectCreated",
      "type": "event"
    },
    {
      "anonymous": false,
      "inputs": [
        {
          "indexed": false,
          "internalType": "bytes32",
          "name": "description",
          "type": "bytes32"
        },
        {
          "indexed": true,
          "internalType": "address",
          "name": "proposer",
          "type": "address"
        },
        {
          "indexed": true,
          "internalType": "uint256",
          "name": "projectId",
          "type": "uint256"
        },
        {
          "indexed": false,
          "internalType": "uint256",
          "name": "startTime",
          "type": "uint256"
        },
        {
          "indexed": false,
          "internalType": "uint256",
          "name": "endTime",
          "type": "uint256"
        }
      ],
      "name": "ProposalCreated",
      "type": "event"
    },
    {
      "anonymous": false,
      "inputs": [
        {
          "indexed": true,
          "internalType": "uint256",
          "name": "proposalId",
          "type": "uint256"
        }
      ],
      "name": "ProposalExecuted",
      "type": "event"
    },
    {
      "anonymous": false,
      "inputs": [
        {
          "indexed": true,
          "internalType": "uint256",
          "name": "proposalId",
          "type": "uint256"
        },
        {
          "indexed": true,
          "internalType": "address",
          "name": "voter",
          "type": "address"
        },
        {
          "indexed": true,
          "internalType": "bool",
          "name": "support",
          "type": "bool"
        },
        {
          "indexed": false,
          "internalType": "uint256",
          "name": "votes",
          "type": "uint256"
        }
      ],
      "name": "Voted",
      "type": "event"
    },
    {
      "inputs": [
        {
          "internalType": "uint256",
          "name": "_projectId",
          "type": "uint256"
        },
        {
          "internalType": "uint256",
          "name": "_amount",
          "type": "uint256"
        }
      ],
      "name": "grantFunds",
      "outputs": [],
      "stateMutability": "nonpayable",
      "type": "function"
    },
    {
      "inputs": [
        {
          "internalType": "uint256",
          "name": "",
          "type": "uint256"
        },
        {
          "internalType": "address",
          "name": "",
          "type": "address"
        }
      ],
      "name": "grants",
      "outputs": [
        {
          "internalType": "uint256",
          "name": "",
          "type": "uint256"
        }
      ],
      "stateMutability": "view",
      "type": "function"
    },
    {
      "inputs": [],
      "name": "owner",
      "outputs": [
        {
          "internalType": "address",
          "name": "",
          "type": "address"
        }
      ],
      "stateMutability": "view",
      "type": "function"
    },
    {
      "inputs": [],
      "name": "projectCount",
      "outputs": [
        {
          "internalType": "uint256",
          "name": "",
          "type": "uint256"
        }
      ],
      "stateMutability": "view",
      "type": "function"
    },
    {
      "inputs": [
        {
          "internalType": "uint256",
          "name": "",
          "type": "uint256"
        }
      ],
      "name": "projects",
      "outputs": [
        {
          "internalType": "address",
          "name": "creator",
          "type": "address"
        },
        {
          "internalType": "uint256",
          "name": "projectId",
          "type": "uint256"
        },
        {
          "internalType": "uint256",
          "name": "startTime",
          "type": "uint256"
        },
        {
          "internalType": "uint256",
          "name": "endTime",
          "type": "uint256"
        },
        {
          "internalType": "uint256",
          "name": "softCap",
          "type": "uint256"
        },
        {
          "internalType": "uint256",
          "name": "hardCap",
          "type": "uint256"
        },
        {
          "internalType": "uint256",
          "name": "currentRaised",
          "type": "uint256"
        }
      ],
      "stateMutability": "view",
      "type": "function"
    },
    {
      "inputs": [
        {
          "internalType": "uint256",
          "name": "",
          "type": "uint256"
        }
      ],
      "name": "proposals",
      "outputs": [
        {
          "internalType": "bytes32",
          "name": "description",
          "type": "bytes32"
        },
        {
          "internalType": "address",
          "name": "proposer",
          "type": "address"
        },
        {
          "internalType": "uint256",
          "name": "projectId",
          "type": "uint256"
        },
        {
          "internalType": "uint256",
          "name": "startTime",
          "type": "uint256"
        },
        {
          "internalType": "uint256",
          "name": "endTime",
          "type": "uint256"
        },
        {
          "internalType": "uint256",
          "name": "forVotes",
          "type": "uint256"
        },
        {
          "internalType": "uint256",
          "name": "againstVotes",
          "type": "uint256"
        },
        {
          "internalType": "uint256",
          "name": "totalVotes",
          "type": "uint256"
        },
        {
          "internalType": "bool",
          "name": "executed",
          "type": "bool"
        },
        {
          "internalType": "bool",
          "name": "extended",
          "type": "bool"
        }
      ],
      "stateMutability": "view",
      "type": "function"
    },
    {
      "inputs": [
        {
          "internalType": "address",
          "name": "",
          "type": "address"
        }
      ],
      "name": "receipts",
      "outputs": [
        {
          "internalType": "uint256",
          "name": "projectId",
          "type": "uint256"
        },
        {
          "internalType": "bool",
          "name": "hasVoted",
          "type": "bool"
        }
      ],
      "stateMutability": "view",
      "type": "function"
    },
    {
      "inputs": [
        {
          "internalType": "uint256",
          "name": "_startTime",
          "type": "uint256"
        },
        {
          "internalType": "uint256",
          "name": "_endTime",
          "type": "uint256"
        },
        {
          "internalType": "uint256",
          "name": "_softCap",
          "type": "uint256"
        },
        {
          "internalType": "uint256",
          "name": "_hardCap",
          "type": "uint256"
        }
      ],
      "name": "registerProject",
      "outputs": [],
      "stateMutability": "nonpayable",
      "type": "function"
    },
    {
      "inputs": [],
      "name": "renounceOwnership",
      "outputs": [],
      "stateMutability": "nonpayable",
      "type": "function"
    },
    {
      "inputs": [
        {
          "internalType": "address",
          "name": "",
          "type": "address"
        }
      ],
      "name": "rewardsPaid",
      "outputs": [
        {
          "internalType": "bool",
          "name": "",
          "type": "bool"
        }
      ],
      "stateMutability": "view",
      "type": "function"
    },
    {
      "inputs": [
        {
          "internalType": "uint256",
          "name": "",
          "type": "uint256"
        }
      ],
      "name": "rewardsPool",
      "outputs": [
        {
          "internalType": "address",
          "name": "token",
          "type": "address"
        },
        {
          "internalType": "uint256",
          "name": "projectId",
          "type": "uint256"
        },
        {
          "internalType": "uint256",
          "name": "amount",
          "type": "uint256"
        }
      ],
      "stateMutability": "view",
      "type": "function"
    },
    {
      "inputs": [
        {
          "internalType": "uint256",
          "name": "_projectId",
          "type": "uint256"
        },
        {
          "internalType": "address",
          "name": "_token",
          "type": "address"
        },
        {
          "internalType": "uint256",
          "name": "_amount",
          "type": "uint256"
        }
      ],
      "name": "seedTokensToProject",
      "outputs": [],
      "stateMutability": "nonpayable",
      "type": "function"
    },
    {
      "inputs": [],
      "name": "token",
      "outputs": [
        {
          "internalType": "address",
          "name": "",
          "type": "address"
        }
      ],
      "stateMutability": "view",
      "type": "function"
    },
    {
      "inputs": [
        {
          "internalType": "address",
          "name": "newOwner",
          "type": "address"
        }
      ],
      "name": "transferOwnership",
      "outputs": [],
      "stateMutability": "nonpayable",
      "type": "function"
    },
    {
      "inputs": [
        {
          "internalType": "address",
          "name": "_tokenAddress",
          "type": "address"
        }
      ],
      "name": "withdarAnyERC20Tokens",
      "outputs": [],
      "stateMutability": "nonpayable",
      "type": "function"
    },
    {
      "inputs": [
        {
          "internalType": "uint256",
          "name": "_projectId",
          "type": "uint256"
        }
      ],
      "name": "withdrawRewards",
      "outputs": [],
      "stateMutability": "nonpayable",
      "type": "function"
    },
    {
      "stateMutability": "payable",
      "type": "receive"
    },
    {
      "inputs": [
        {
          "internalType": "uint256",
          "name": "_projectId",
          "type": "uint256"
        },
        {
          "internalType": "bytes32",
          "name": "_proposeDescription",
          "type": "bytes32"
        },
        {
          "internalType": "uint256",
          "name": "_startTime",
          "type": "uint256"
        },
        {
          "internalType": "uint256",
          "name": "_endTime",
          "type": "uint256"
        },
        {
          "internalType": "bool",
          "name": "_extended",
          "type": "bool"
        }
      ],
      "name": "createProposal",
      "outputs": [],
      "stateMutability": "nonpayable",
      "type": "function"
    },
    {
      "inputs": [
        {
          "internalType": "uint256",
          "name": "_projectId",
          "type": "uint256"
        }
      ],
      "name": "vote",
      "outputs": [
        {
          "components": [
            {
              "internalType": "uint256",
              "name": "projectId",
              "type": "uint256"
            },
            {
              "internalType": "bool",
              "name": "hasVoted",
              "type": "bool"
            }
          ],
          "internalType": "struct D4ppGovernance.Receipt",
          "name": "",
          "type": "tuple"
        }
      ],
      "stateMutability": "nonpayable",
      "type": "function"
    }
  ],
  "bytecode": "0x60806040523480156200001157600080fd5b50604051620032dc380380620032dc833981810160405281019062000037919062000469565b600062000049620001c160201b60201c565b9050806000806101000a81548173ffffffffffffffffffffffffffffffffffffffff021916908373ffffffffffffffffffffffffffffffffffffffff1602179055508073ffffffffffffffffffffffffffffffffffffffff16600073ffffffffffffffffffffffffffffffffffffffff167f8be0079c531659141344cd1fd0a4f28419497f9722a3daafe3b4186f6b6457e060405160405180910390a350600180819055506000600381905550600073ffffffffffffffffffffffffffffffffffffffff168173ffffffffffffffffffffffffffffffffffffffff16141562000169576040517f08c379a000000000000000000000000000000000000000000000000000000000815260040162000160906200055c565b60405180910390fd5b80600260006101000a81548173ffffffffffffffffffffffffffffffffffffffff021916908373ffffffffffffffffffffffffffffffffffffffff160217905550620001ba620001c960201b60201c565b50620005f1565b600033905090565b6000806000429050600042905060007f496e697469616c2070726f706f73616c0000000000000000000000000000000090506040518061014001604052808281526020018673ffffffffffffffffffffffffffffffffffffffff16815260200185815260200184815260200183815260200160008152602001600081526020016001815260200160001515815260200160001515815250600860008681526020019081526020016000206000820151816000015560208201518160010160006101000a81548173ffffffffffffffffffffffffffffffffffffffff021916908373ffffffffffffffffffffffffffffffffffffffff16021790555060408201518160020155606082015181600301556080820151816004015560a0820151816005015560c0820151816006015560e082015181600701556101008201518160080160006101000a81548160ff0219169083151502179055506101208201518160080160016101000a81548160ff021916908315150217905550905050604051806040016040528085815260200160011515815250600960008773ffffffffffffffffffffffffffffffffffffffff1673ffffffffffffffffffffffffffffffffffffffff1681526020019081526020016000206000820151816000015560208201518160010160006101000a81548160ff021916908315150217905550905050837f712ae1383f79ac853f8d882153778e0260ef8f03b504e2866e0593e04d2b291f60405160405180910390a2838573ffffffffffffffffffffffffffffffffffffffff167f9a04d35e5beebc8236e4119d4176dc83cd0d7160c7d5843520171b176ede9a7983868660405162000443939291906200051f565b60405180910390a35050505050565b6000815190506200046381620005d7565b92915050565b6000602082840312156200047c57600080fd5b60006200048c8482850162000452565b91505092915050565b620004a081620005a3565b82525050565b6000620004b56029836200057e565b91507f44347070476f7665726e616e63653a20746f6b656e20697320746865207a657260008301527f6f206164647265737300000000000000000000000000000000000000000000006020830152604082019050919050565b6200051981620005cd565b82525050565b600060608201905062000536600083018662000495565b6200054560208301856200050e565b6200055460408301846200050e565b949350505050565b600060208201905081810360008301526200057781620004a6565b9050919050565b600082825260208201905092915050565b60006200059c82620005ad565b9050919050565b6000819050919050565b600073ffffffffffffffffffffffffffffffffffffffff82169050919050565b6000819050919050565b620005e2816200058f565b8114620005ee57600080fd5b50565b612cdb80620006016000396000f3fe60806040526004361061010d5760003560e01c8063715018a6116100955780639342c8f4116100645780639342c8f4146103f7578063cbd8ac9a14610420578063d3dc1a7514610449578063f2fde38b14610472578063fc0c546a1461049b5761014d565b8063715018a61461034f5780637526f517146103665780638da5cb5b146103a35780638e0b8e09146103ce5761014d565b806336fbad26116100dc57806336fbad2614610241578063459f3e421461026c5780634de4797b146102ab5780635947b945146102e9578063700a4a74146103125761014d565b80630121b93f14610152578063013cf08b1461018f578063107046bd146101d5578063229149ed146102185761014d565b3661014d576040517f08c379a000000000000000000000000000000000000000000000000000000000815260040161014490612901565b60405180910390fd5b600080fd5b34801561015e57600080fd5b50610179600480360381019061017491906121b5565b6104c6565b6040516101869190612961565b60405180910390f35b34801561019b57600080fd5b506101b660048036038101906101b191906121b5565b6105c7565b6040516101cc9a999897969594939291906127ae565b60405180910390f35b3480156101e157600080fd5b506101fc60048036038101906101f791906121b5565b610655565b60405161020f9796959493929190612724565b60405180910390f35b34801561022457600080fd5b5061023f600480360381019061023a919061231c565b6106b7565b005b34801561024d57600080fd5b5061025661098d565b604051610263919061297c565b60405180910390f35b34801561027857600080fd5b50610293600480360381019061028e91906121b5565b610993565b6040516102a2939291906126ed565b60405180910390f35b3480156102b757600080fd5b506102d260048036038101906102cd919061218c565b6109dd565b6040516102e0929190612997565b60405180910390f35b3480156102f557600080fd5b50610310600480360381019061030b919061218c565b610a0e565b005b34801561031e57600080fd5b506103396004803603810190610334919061218c565b610c34565b6040516103469190612793565b60405180910390f35b34801561035b57600080fd5b50610364610c54565b005b34801561037257600080fd5b5061038d600480360381019061038891906121de565b610dda565b60405161039a919061297c565b60405180910390f35b3480156103af57600080fd5b506103b8610dff565b6040516103c591906126d2565b60405180910390f35b3480156103da57600080fd5b506103f560048036038101906103f091906122e0565b610e28565b005b34801561040357600080fd5b5061041e600480360381019061041991906121b5565b611270565b005b34801561042c57600080fd5b5061044760048036038101906104429190612269565b611612565b005b34801561045557600080fd5b50610470600480360381019061046b919061221a565b6117a9565b005b34801561047e57600080fd5b506104996004803603810190610494919061218c565b611a0b565b005b3480156104a757600080fd5b506104b0611c16565b6040516104bd91906126d2565b60405180910390f35b6104ce61211c565b8160006005600083815260200190815260200160002060006104ee611c3c565b73ffffffffffffffffffffffffffffffffffffffff1673ffffffffffffffffffffffffffffffffffffffff1681526020019081526020016000205411610569576040517f08c379a000000000000000000000000000000000000000000000000000000000815260040161056090612941565b60405180910390fd5b426008600083815260200190815260200160002060040154116105c1576040517f08c379a00000000000000000000000000000000000000000000000000000000081526004016105b890612881565b60405180910390fd5b50919050565b60086020528060005260406000206000915090508060000154908060010160009054906101000a900473ffffffffffffffffffffffffffffffffffffffff16908060020154908060030154908060040154908060050154908060060154908060070154908060080160009054906101000a900460ff16908060080160019054906101000a900460ff1690508a565b60046020528060005260406000206000915090508060000160009054906101000a900473ffffffffffffffffffffffffffffffffffffffff16908060010154908060020154908060030154908060040154908060050154908060060154905087565b42841180156106c557504283115b61071a576040517f08c379a0000000000000000000000000000000000000000000000000000000008152600401808060200182810382526050815260200180612b746050913960600191505060405180910390fd5b838311610772576040517f08c379a0000000000000000000000000000000000000000000000000000000008152600401808060200182810382526030815260200180612c766030913960400191505060405180910390fd5b6000821180156107825750600081115b6107d7576040517f08c379a0000000000000000000000000000000000000000000000000000000008152600401808060200182810382526036815260200180612be56036913960400191505060405180910390fd5b80821415610830576040517f08c379a0000000000000000000000000000000000000000000000000000000008152600401808060200182810382526028815260200180612c1b6028913960400191505060405180910390fd5b6108466001600354611c4490919063ffffffff16565b6003819055506040518060e0016040528061085f611c3c565b73ffffffffffffffffffffffffffffffffffffffff1681526020016003548152602001858152602001848152602001838152602001828152602001600081525060046000600354815260200190815260200160002060008201518160000160006101000a81548173ffffffffffffffffffffffffffffffffffffffff021916908373ffffffffffffffffffffffffffffffffffffffff1602179055506020820151816001015560408201518160020155606082015181600301556080820151816004015560a0820151816005015560c08201518160060155905050600354610945611c3c565b73ffffffffffffffffffffffffffffffffffffffff167f20bfd29f3d906f96fc35742fac45a554b19cbd4e21f8c4c1d84cb58fdfc32c8960405160405180910390a350505050565b60035481565b60066020528060005260406000206000915090508060000160009054906101000a900473ffffffffffffffffffffffffffffffffffffffff16908060010154908060020154905083565b60096020528060005260406000206000915090508060000154908060010160009054906101000a900460ff16905082565b610a16611c3c565b73ffffffffffffffffffffffffffffffffffffffff1660008054906101000a900473ffffffffffffffffffffffffffffffffffffffff1673ffffffffffffffffffffffffffffffffffffffff1614610ad6576040517f08c379a00000000000000000000000000000000000000000000000000000000081526004018080602001828103825260208152602001807f4f776e61626c653a2063616c6c6572206973206e6f7420746865206f776e657281525060200191505060405180910390fd5b60008173ffffffffffffffffffffffffffffffffffffffff166370a08231306040518263ffffffff1660e01b8152600401808273ffffffffffffffffffffffffffffffffffffffff16815260200191505060206040518083038186803b158015610b3f57600080fd5b505afa158015610b53573d6000803e3d6000fd5b505050506040513d6020811015610b6957600080fd5b810190808051906020019092919050505090508173ffffffffffffffffffffffffffffffffffffffff1663a9059cbb610ba0611c3c565b836040518363ffffffff1660e01b8152600401808373ffffffffffffffffffffffffffffffffffffffff16815260200182815260200192505050602060405180830381600087803b158015610bf457600080fd5b505af1158015610c08573d6000803e3d6000fd5b505050506040513d6020811015610c1e57600080fd5b8101908080519060200190929190505050505050565b60076020528060005260406000206000915054906101000a900460ff1681565b610c5c611c3c565b73ffffffffffffffffffffffffffffffffffffffff1660008054906101000a900473ffffffffffffffffffffffffffffffffffffffff1673ffffffffffffffffffffffffffffffffffffffff1614610d1c576040517f08c379a00000000000000000000000000000000000000000000000000000000081526004018080602001828103825260208152602001807f4f776e61626c653a2063616c6c6572206973206e6f7420746865206f776e657281525060200191505060405180910390fd5b600073ffffffffffffffffffffffffffffffffffffffff1660008054906101000a900473ffffffffffffffffffffffffffffffffffffffff1673ffffffffffffffffffffffffffffffffffffffff167f8be0079c531659141344cd1fd0a4f28419497f9722a3daafe3b4186f6b6457e060405160405180910390a360008060006101000a81548173ffffffffffffffffffffffffffffffffffffffff021916908373ffffffffffffffffffffffffffffffffffffffff160217905550565b6005602052816000526040600020602052806000526040600020600091509150505481565b60008060009054906101000a900473ffffffffffffffffffffffffffffffffffffffff16905090565b6000600460008481526020019081526020016000206040518060e00160405290816000820160009054906101000a900473ffffffffffffffffffffffffffffffffffffffff1673ffffffffffffffffffffffffffffffffffffffff1673ffffffffffffffffffffffffffffffffffffffff16815260200160018201548152602001600282015481526020016003820154815260200160048201548152602001600582015481526020016006820154815250509050600073ffffffffffffffffffffffffffffffffffffffff16816000015173ffffffffffffffffffffffffffffffffffffffff161415610f66576040517f08c379a0000000000000000000000000000000000000000000000000000000008152600401808060200182810382526021815260200180612b536021913960400191505060405180910390fd5b42816060015111610fc2576040517f08c379a0000000000000000000000000000000000000000000000000000000008152600401808060200182810382526023815260200180612b306023913960400191505060405180910390fd5b8060a00151610fde838360c00151611c4490919063ffffffff16565b1115611035576040517f08c379a0000000000000000000000000000000000000000000000000000000008152600401808060200182810382526027815260200180612b096027913960400191505060405180910390fd5b600260009054906101000a900473ffffffffffffffffffffffffffffffffffffffff1673ffffffffffffffffffffffffffffffffffffffff166323b872dd61107b611c3c565b30856040518463ffffffff1660e01b8152600401808473ffffffffffffffffffffffffffffffffffffffff1681526020018373ffffffffffffffffffffffffffffffffffffffff1681526020018281526020019350505050602060405180830381600087803b1580156110ed57600080fd5b505af1158015611101573d6000803e3d6000fd5b505050506040513d602081101561111757600080fd5b810190808051906020019092919050505050611140828260c00151611c4490919063ffffffff16565b60046000858152602001908152602001600020600601819055506111c48260056000868152602001908152602001600020600061117b611c3c565b73ffffffffffffffffffffffffffffffffffffffff1673ffffffffffffffffffffffffffffffffffffffff16815260200190815260200160002054611c4490919063ffffffff16565b6005600085815260200190815260200160002060006111e1611c3c565b73ffffffffffffffffffffffffffffffffffffffff1673ffffffffffffffffffffffffffffffffffffffff168152602001908152602001600020819055508183611229611c3c565b73ffffffffffffffffffffffffffffffffffffffff167f069f395fd833af2bf669bcfe3672d02bf3c3e5fe1ec9d2ba309f60f3855bd64f60405160405180910390a4505050565b600060056000838152602001908152602001600020600061128f611c3c565b73ffffffffffffffffffffffffffffffffffffffff1673ffffffffffffffffffffffffffffffffffffffff1681526020019081526020016000205411611320576040517f08c379a0000000000000000000000000000000000000000000000000000000008152600401808060200182810382526033815260200180612c436033913960400191505060405180910390fd5b6007600061132c611c3c565b73ffffffffffffffffffffffffffffffffffffffff1673ffffffffffffffffffffffffffffffffffffffff16815260200190815260200160002060009054906101000a900460ff16156113ca576040517f08c379a0000000000000000000000000000000000000000000000000000000008152600401808060200182810382526037815260200180612aac6037913960400191505060405180910390fd5b60006006600083815260200190815260200160002060000160009054906101000a900473ffffffffffffffffffffffffffffffffffffffff16905060006006600084815260200190815260200160002060020154905060006114b4826114a6600460008881526020019081526020016000206006015460056000898152602001908152602001600020600061145d611c3c565b73ffffffffffffffffffffffffffffffffffffffff1673ffffffffffffffffffffffffffffffffffffffff16815260200190815260200160002054611ccc90919063ffffffff16565b611d1690919063ffffffff16565b90506001600760006114c4611c3c565b73ffffffffffffffffffffffffffffffffffffffff1673ffffffffffffffffffffffffffffffffffffffff16815260200190815260200160002060006101000a81548160ff02191690831515021790555061153e816006600087815260200190815260200160002060020154611d9c90919063ffffffff16565b60066000868152602001908152602001600020600201819055508273ffffffffffffffffffffffffffffffffffffffff1663a9059cbb61157c611c3c565b836040518363ffffffff1660e01b8152600401808373ffffffffffffffffffffffffffffffffffffffff16815260200182815260200192505050602060405180830381600087803b1580156115d057600080fd5b505af11580156115e4573d6000803e3d6000fd5b505050506040513d60208110156115fa57600080fd5b81019080805190602001909291905050505050505050565b846004600082815260200190815260200160002060000160009054906101000a900473ffffffffffffffffffffffffffffffffffffffff1673ffffffffffffffffffffffffffffffffffffffff16611668611c3c565b73ffffffffffffffffffffffffffffffffffffffff16146116be576040517f08c379a00000000000000000000000000000000000000000000000000000000081526004016116b5906128a1565b60405180910390fd5b42841180156116cc57504283115b61170b576040517f08c379a0000000000000000000000000000000000000000000000000000000008152600401611702906128c1565b60405180910390fd5b83831161174d576040517f08c379a000000000000000000000000000000000000000000000000000000000815260040161174490612921565b60405180910390fd5b6000801916851415611794576040517f08c379a000000000000000000000000000000000000000000000000000000000815260040161178b906128e1565b60405180910390fd5b6117a18587868686611de6565b505050505050565b6004600084815260200190815260200160002060000160009054906101000a900473ffffffffffffffffffffffffffffffffffffffff1673ffffffffffffffffffffffffffffffffffffffff166117fe611c3c565b73ffffffffffffffffffffffffffffffffffffffff161461186a576040517f08c379a000000000000000000000000000000000000000000000000000000000815260040180806020018281038252602c815260200180612a80602c913960400191505060405180910390fd5b8173ffffffffffffffffffffffffffffffffffffffff166323b872dd61188e611c3c565b30846040518463ffffffff1660e01b8152600401808473ffffffffffffffffffffffffffffffffffffffff1681526020018373ffffffffffffffffffffffffffffffffffffffff1681526020018281526020019350505050602060405180830381600087803b15801561190057600080fd5b505af1158015611914573d6000803e3d6000fd5b505050506040513d602081101561192a57600080fd5b81019080805190602001909291905050505060405180606001604052808373ffffffffffffffffffffffffffffffffffffffff168152602001848152602001611992836006600088815260200190815260200160002060020154611c4490919063ffffffff16565b8152506006600085815260200190815260200160002060008201518160000160006101000a81548173ffffffffffffffffffffffffffffffffffffffff021916908373ffffffffffffffffffffffffffffffffffffffff1602179055506020820151816001015560408201518160020155905050505050565b611a13611c3c565b73ffffffffffffffffffffffffffffffffffffffff1660008054906101000a900473ffffffffffffffffffffffffffffffffffffffff1673ffffffffffffffffffffffffffffffffffffffff1614611ad3576040517f08c379a00000000000000000000000000000000000000000000000000000000081526004018080602001828103825260208152602001807f4f776e61626c653a2063616c6c6572206973206e6f7420746865206f776e657281525060200191505060405180910390fd5b600073ffffffffffffffffffffffffffffffffffffffff168173ffffffffffffffffffffffffffffffffffffffff161415611b59576040517f08c379a0000000000000000000000000000000000000000000000000000000008152600401808060200182810382526026815260200180612ae36026913960400191505060405180910390fd5b8073ffffffffffffffffffffffffffffffffffffffff1660008054906101000a900473ffffffffffffffffffffffffffffffffffffffff1673ffffffffffffffffffffffffffffffffffffffff167f8be0079c531659141344cd1fd0a4f28419497f9722a3daafe3b4186f6b6457e060405160405180910390a3806000806101000a81548173ffffffffffffffffffffffffffffffffffffffff021916908373ffffffffffffffffffffffffffffffffffffffff16021790555050565b600260009054906101000a900473ffffffffffffffffffffffffffffffffffffffff1681565b600033905090565b600080828401905083811015611cc2576040517f08c379a000000000000000000000000000000000000000000000000000000000815260040180806020018281038252601b8152602001807f536166654d6174683a206164646974696f6e206f766572666c6f77000000000081525060200191505060405180910390fd5b8091505092915050565b6000611d0e83836040518060400160405280601a81526020017f536166654d6174683a206469766973696f6e206279207a65726f000000000000815250611f96565b905092915050565b600080831415611d295760009050611d96565b6000828402905082848281611d3a57fe5b0414611d91576040517f08c379a0000000000000000000000000000000000000000000000000000000008152600401808060200182810382526021815260200180612bc46021913960400191505060405180910390fd5b809150505b92915050565b6000611dde83836040518060400160405280601e81526020017f536166654d6174683a207375627472616374696f6e206f766572666c6f77000081525061205c565b905092915050565b6000611df0611c3c565b90506040518061014001604052808781526020018273ffffffffffffffffffffffffffffffffffffffff168152602001868152602001858152602001848152602001600081526020016000815260200160008152602001600015158152602001831515815250600860008781526020019081526020016000206000820151816000015560208201518160010160006101000a81548173ffffffffffffffffffffffffffffffffffffffff021916908373ffffffffffffffffffffffffffffffffffffffff16021790555060408201518160020155606082015181600301556080820151816004015560a0820151816005015560c0820151816006015560e082015181600701556101008201518160080160006101000a81548160ff0219169083151502179055506101208201518160080160016101000a81548160ff021916908315150217905550905050848173ffffffffffffffffffffffffffffffffffffffff167f9a04d35e5beebc8236e4119d4176dc83cd0d7160c7d5843520171b176ede9a79888787604051611f869392919061284a565b60405180910390a3505050505050565b60008083118290612042576040517f08c379a00000000000000000000000000000000000000000000000000000000081526004018080602001828103825283818151815260200191508051906020019080838360005b83811015612007578082015181840152602081019050611fec565b50505050905090810190601f1680156120345780820380516001836020036101000a031916815260200191505b509250505060405180910390fd5b50600083858161204e57fe5b049050809150509392505050565b6000838311158290612109576040517f08c379a00000000000000000000000000000000000000000000000000000000081526004018080602001828103825283818151815260200191508051906020019080838360005b838110156120ce5780820151818401526020810190506120b3565b50505050905090810190601f1680156120fb5780820380516001836020036101000a031916815260200191505b509250505060405180910390fd5b5060008385039050809150509392505050565b6040518060400160405280600081526020016000151581525090565b60008135905061214781612a23565b92915050565b60008135905061215c81612a3a565b92915050565b60008135905061217181612a51565b92915050565b60008135905061218681612a68565b92915050565b60006020828403121561219e57600080fd5b60006121ac84828501612138565b91505092915050565b6000602082840312156121c757600080fd5b60006121d584828501612177565b91505092915050565b600080604083850312156121f157600080fd5b60006121ff85828601612177565b925050602061221085828601612138565b9150509250929050565b60008060006060848603121561222f57600080fd5b600061223d86828701612177565b935050602061224e86828701612138565b925050604061225f86828701612177565b9150509250925092565b600080600080600060a0868803121561228157600080fd5b600061228f88828901612177565b95505060206122a088828901612162565b94505060406122b188828901612177565b93505060606122c288828901612177565b92505060806122d38882890161214d565b9150509295509295909350565b600080604083850312156122f357600080fd5b600061230185828601612177565b925050602061231285828601612177565b9150509250929050565b6000806000806080858703121561233257600080fd5b600061234087828801612177565b945050602061235187828801612177565b935050604061236287828801612177565b925050606061237387828801612177565b91505092959194509250565b612388816129d1565b82525050565b612397816129e3565b82525050565b6123a6816129e3565b82525050565b6123b5816129ef565b82525050565b60006123c86027836129c0565b91507f44347070476f7665726e616e63653a2050726f706f73616c20646f6573206e6f60008301527f74206578697374000000000000000000000000000000000000000000000000006020830152604082019050919050565b600061242e603a836129c0565b91507f44347070476f7665726e616e63653a204163636573736564207265737472696360008301527f74656420746f206f6e6c792076616c6c69642063726561746f720000000000006020830152604082019050919050565b60006124946048836129c0565b91507f44347070476f7665726e616e63653a20737461727454696d65202620656e645460008301527f696d65206d7573742062652067726561746572207468616e20626c6f636b2e7460208301527f696d657374616d700000000000000000000000000000000000000000000000006040830152606082019050919050565b60006125206029836129c0565b91507f476f7665726e616e63653a20496e76616c69642070726f706f73616c2064657360008301527f63726970746f696f6e00000000000000000000000000000000000000000000006020830152604082019050919050565b6000612586602e836129c0565b91507f44347070476f7665726e616e63653a204574686572206465706f73697473206960008301527f73206e6f7420616c6c6f776564210000000000000000000000000000000000006020830152604082019050919050565b60006125ec6036836129c0565b91507f44347070476f7665726e616e63653a20656e6454496d65206d7573742062652060008301527f67726561746572207468616e20737461727454696d65000000000000000000006020830152604082019050919050565b6000612652601c836129c0565b91507f44347070476f7665726e616e63653a20496e76616c696420766f7465000000006000830152602082019050919050565b60408201600082015161269b60008501826126b4565b5060208201516126ae602085018261238e565b50505050565b6126bd81612a19565b82525050565b6126cc81612a19565b82525050565b60006020820190506126e7600083018461237f565b92915050565b6000606082019050612702600083018661237f565b61270f60208301856126c3565b61271c60408301846126c3565b949350505050565b600060e082019050612739600083018a61237f565b61274660208301896126c3565b61275360408301886126c3565b61276060608301876126c3565b61276d60808301866126c3565b61277a60a08301856126c3565b61278760c08301846126c3565b98975050505050505050565b60006020820190506127a8600083018461239d565b92915050565b6000610140820190506127c4600083018d6123ac565b6127d1602083018c61237f565b6127de604083018b6126c3565b6127eb606083018a6126c3565b6127f860808301896126c3565b61280560a08301886126c3565b61281260c08301876126c3565b61281f60e08301866126c3565b61282d61010083018561239d565b61283b61012083018461239d565b9b9a5050505050505050505050565b600060608201905061285f60008301866123ac565b61286c60208301856126c3565b61287960408301846126c3565b949350505050565b6000602082019050818103600083015261289a816123bb565b9050919050565b600060208201905081810360008301526128ba81612421565b9050919050565b600060208201905081810360008301526128da81612487565b9050919050565b600060208201905081810360008301526128fa81612513565b9050919050565b6000602082019050818103600083015261291a81612579565b9050919050565b6000602082019050818103600083015261293a816125df565b9050919050565b6000602082019050818103600083015261295a81612645565b9050919050565b60006040820190506129766000830184612685565b92915050565b600060208201905061299160008301846126c3565b92915050565b60006040820190506129ac60008301856126c3565b6129b9602083018461239d565b9392505050565b600082825260208201905092915050565b60006129dc826129f9565b9050919050565b60008115159050919050565b6000819050919050565b600073ffffffffffffffffffffffffffffffffffffffff82169050919050565b6000819050919050565b612a2c816129d1565b8114612a3757600080fd5b50565b612a43816129e3565b8114612a4e57600080fd5b50565b612a5a816129ef565b8114612a6557600080fd5b50565b612a7181612a19565b8114612a7c57600080fd5b5056fe44347070436f72653a204f6e6c792076616c69642063726561746f722063616e207365656420746f6b656e7344347070436f72653a204e6f7420656c696769626c6520746f20616e7920726577617264732066726f6d20746869732070726f6a6563744f776e61626c653a206e6577206f776e657220697320746865207a65726f206164647265737344347070436f72653a2050726f6a65637420686173206265656e2066756c6c792066756e64656444347070436f72653a20456e6454696d6520686173206265656e20657863656564656444347070436f72653a2050726f6a656374496420646f65736e277420657869737444347070436f72653a20737461727454696d6520616e6420656e6454696d652073686f756c642062652067726561746572207468616e206f7220657175616c20746f2063757272656e7420626c6f636b536166654d6174683a206d756c7469706c69636174696f6e206f766572666c6f7744347070436f72653a20536f6643617020616e642048617264436170206d7573742062652067726561746572207468616e207a65726f44347070436f72653a20536f6674436170206d757374206e6f7420657175616c204861726443617044347070436f72653a204e6f7420656c696769626c6520746f20726577617264732066726f6d20746869732070726f6a65637444347070436f72653a20656e6454696d65206d7573742062652067726561746572207468616e20737461727454696d65a26469706673582212208e0264432d3007388690a119df20fd7e7e97bf492b7f3c65a5886f011901f1e364736f6c63430007060033",
  "immutableReferences": {},
  "source": "// SPDX-License-Identifier: MIT\r\npragma solidity 0.7.6;\r\npragma abicoder v2;\r\n\r\nimport \"@openzeppelin/contracts/math/SafeMath.sol\";\r\nimport \"./D4ppCore.sol\";\r\n\r\ncontract D4ppGovernance is D4ppCore {\r\n    using SafeMath for uint;\r\n\r\n    /// @notice Records Proposal\r\n    struct Proposal {\r\n        // Propose subject\r\n        bytes32 description;\r\n        // Creator of the proposal\r\n        address proposer;\r\n        // Id of the project the call is to be made\r\n        uint projectId;\r\n        // The block at which voting begins\r\n        uint startTime;\r\n        // The block at which voting ends: votes must be cast prior to this block\r\n        uint endTime;\r\n        // Current number of votes in favor of this proposal\r\n        uint forVotes;\r\n        // Current number of votes in opposition to this proposal\r\n        uint againstVotes;\r\n        // Total number of votes that has been registered;\r\n        uint totalVotes;\r\n        // Flag marking whether the proposal has been executed\r\n        bool executed;\r\n        // Flag marking whether the proposal voting time has been extended\r\n        // Voting time can be extended once, if the proposal outcome has changed during CLOSING_PERIOD\r\n        bool extended;\r\n    }\r\n\r\n    /// @notice Ballot receipt record for a voter\r\n    struct Receipt {\r\n        // Project Id of the proposed vote\r\n        uint projectId;\r\n        // Whether or not a vote has been cast\r\n        bool hasVoted;\r\n    }\r\n\r\n\r\n    /// @notice The official record of all proposals ever proposed\r\n    mapping(uint => Proposal) public proposals;\r\n\r\n    /// @notice Receipts of ballots for the entire set of voters\r\n    mapping(address => Receipt) public receipts;\r\n\r\n    /// @notice An event emitted when a new proposal is created\r\n    event ProposalCreated(\r\n        bytes32 description,\r\n        address indexed proposer,\r\n        uint indexed projectId,\r\n        uint startTime,\r\n        uint endTime\r\n    );\r\n\r\n    /// @notice An event emitted when a vote has been cast on a proposal\r\n    event Voted(uint indexed proposalId, address indexed voter, bool indexed support, uint votes);\r\n\r\n    /// @notice An event emitted when a proposal has been executed\r\n    event ProposalExecuted(uint indexed proposalId);\r\n\r\n    /// @notice Only valid owner is allowed to call the fucntion\r\n    modifier onlyValidCreator(uint _projectId) {\r\n        require(\r\n            _msgSender() == projects[_projectId].creator,\r\n            \"D4ppGovernance: Accessed restricted to only vallid creator\"\r\n        );\r\n        _;\r\n    }\r\n\r\n    /// @notice Only vote while current time < endtime\r\n    modifier onlyWhileActive(uint _projectId) {\r\n        require(\r\n            grants[_projectId][_msgSender()] > 0,\r\n            \"D4ppGovernance: Invalid vote\"\r\n        );\r\n        require(\r\n            proposals[_projectId].endTime > block.timestamp,\r\n            \"D4ppGovernance: Proposal does not exist\"\r\n        );\r\n        _;\r\n    }\r\n\r\n    /// @param _token: Address of D4PP token\r\n    constructor(address _token) {\r\n        projectCount = 0;\r\n        require(_token != address(0), \"D4ppGovernance: token is the zero address\");\r\n        token = _token;\r\n        _initialize();\r\n    }\r\n\r\n    receive() external payable {\r\n        revert(\"D4ppGovernance: Ether deposits is not allowed!\");\r\n    }\r\n\r\n    function _initialize() internal {\r\n        address _proposer = address(0);\r\n        uint _projectId = 0;\r\n        uint _startTime = block.timestamp;\r\n        uint _endTime = block.timestamp;\r\n        bytes32 _description = bytes32(\"Initial proposal\");\r\n        // Create a dummy proposal so that indexes start from 1\r\n        proposals[_projectId] = Proposal(\r\n            _description,\r\n            _proposer,\r\n            _projectId,\r\n            _startTime,\r\n            _endTime,\r\n            0,\r\n            0,\r\n            1,\r\n            false,\r\n            false\r\n        );\r\n\r\n        receipts[_proposer] = Receipt(_projectId, true);\r\n        emit ProposalExecuted(_projectId);\r\n        emit ProposalCreated(\r\n            _description, \r\n            _proposer,\r\n            _projectId,\r\n            _startTime,\r\n            _endTime\r\n        );\r\n    }\r\n\r\n    function createProposal(uint _projectId, bytes32 _proposeDescription, uint _startTime, uint _endTime, bool _extended) public onlyValidCreator(_projectId) {\r\n        require(\r\n            _startTime > block.timestamp && \r\n            _endTime > block.timestamp,\r\n            \"D4ppGovernance: startTime & endTime must be greater than block.timestamp\"\r\n        );\r\n        require(\r\n            _endTime > _startTime,\r\n            \"D4ppGovernance: endTIme must be greater than startTime\"\r\n        );\r\n        require(\r\n            _proposeDescription != bytes32(\"\"), \r\n            \"Governance: Invalid proposal descriptoion\"\r\n        );\r\n        _propose(_proposeDescription, _projectId, _startTime, _endTime, _extended);\r\n    }\r\n\r\n    function _propose(bytes32 _description, uint _projectId, uint _startTime, uint _endTime, bool _extended) internal {\r\n        address _proposer = _msgSender();\r\n        proposals[_projectId] = Proposal(\r\n            _description,\r\n            _proposer,\r\n            _projectId,\r\n            _startTime,\r\n            _endTime,\r\n            0,\r\n            0,\r\n            0,\r\n            false,\r\n            _extended\r\n        );\r\n        emit ProposalCreated(\r\n            _description, \r\n            _proposer,\r\n            _projectId,\r\n            _startTime,\r\n            _endTime\r\n        );\r\n    }\r\n\r\n    function vote(uint _projectId) public onlyWhileActive(_projectId) returns(Receipt memory) {\r\n        \r\n    }\r\n\r\n}",
  "sourcePath": "C:/Users/DragonLord/Desktop/dApp/d4pp_project/contracts/D4ppGovernance.sol",
  "compiler": {
    "name": "solc",
    "version": "0.7.6+commit.7338295f.Emscripten.clang"
  },
  "schemaVersion": "3.3.3",
  "updatedAt": "2021-01-06T00:40:03.144Z",
  "devdoc": {
    "kind": "dev",
    "methods": {
      "constructor": {
        "params": {
          "_token": ": Address of D4PP token"
        }
      },
      "owner()": {
        "details": "Returns the address of the current owner."
      },
      "registerProject(uint256,uint256,uint256,uint256)": {
        "details": "Register new project",
        "params": {
          "_endTime": ": End time of when the crowdfund will end",
          "_softCap": ": ",
          "_startTime": ": Timestamp of when the crowdfund will start"
        }
      },
      "renounceOwnership()": {
        "details": "Leaves the contract without owner. It will not be possible to call `onlyOwner` functions anymore. Can only be called by the current owner. NOTE: Renouncing ownership will leave the contract without an owner, thereby removing any functionality that is only available to the owner."
      },
      "transferOwnership(address)": {
        "details": "Transfers ownership of the contract to a new account (`newOwner`). Can only be called by the current owner."
      }
    },
    "version": 1
  },
  "userdoc": {
    "events": {
      "GrantFunds(address,uint256,uint256)": {
        "notice": "An event emitted when a user grants funds to a specific project"
      },
      "ProjectCreated(address,uint256)": {
        "notice": "An event emitted when a Project is been created"
      },
      "ProposalCreated(bytes32,address,uint256,uint256,uint256)": {
        "notice": "An event emitted when a new proposal is created"
      },
      "ProposalExecuted(uint256)": {
        "notice": "An event emitted when a proposal has been executed"
      },
      "Voted(uint256,address,bool,uint256)": {
        "notice": "An event emitted when a vote has been cast on a proposal"
      }
    },
    "kind": "user",
    "methods": {
      "grants(uint256,address)": {
        "notice": "Stores a record of all the grants made"
      },
      "projectCount()": {
        "notice": "Keeps track of total projects count"
      },
      "projects(uint256)": {
        "notice": "Stores a record of all the registered projects"
      },
      "proposals(uint256)": {
        "notice": "The official record of all proposals ever proposed"
      },
      "receipts(address)": {
        "notice": "Receipts of ballots for the entire set of voters"
      },
      "rewardsPaid(address)": {
        "notice": "Keeps tracks of the paid rewards"
      },
      "rewardsPool(uint256)": {
        "notice": "Keeps track of tokens seeded to the rewardPool "
      },
      "token()": {
        "notice": "Stores D4PP Token address"
      }
    },
    "version": 1
  }
}