{
  "contractName": "D4ppCore",
  "abi": [
    {
      "anonymous": false,
      "inputs": [
        {
          "indexed": true,
          "internalType": "address",
          "name": "user",
          "type": "address"
        },
        {
          "indexed": true,
          "internalType": "address",
          "name": "beneficiary",
          "type": "address"
        },
        {
          "indexed": true,
          "internalType": "uint256",
          "name": "amount",
          "type": "uint256"
        }
      ],
      "name": "GrantedFunds",
      "type": "event"
    },
    {
      "anonymous": false,
      "inputs": [
        {
          "indexed": true,
          "internalType": "address",
          "name": "previousOwner",
          "type": "address"
        },
        {
          "indexed": true,
          "internalType": "address",
          "name": "newOwner",
          "type": "address"
        }
      ],
      "name": "OwnershipTransferred",
      "type": "event"
    },
    {
      "anonymous": false,
      "inputs": [
        {
          "indexed": true,
          "internalType": "address",
          "name": "creator",
          "type": "address"
        },
        {
          "indexed": true,
          "internalType": "uint256",
          "name": "projectId",
          "type": "uint256"
        }
      ],
      "name": "ProjectCreated",
      "type": "event"
    },
    {
      "inputs": [
        {
          "internalType": "address",
          "name": "",
          "type": "address"
        }
      ],
      "name": "grants",
      "outputs": [
        {
          "internalType": "address",
          "name": "user",
          "type": "address"
        },
        {
          "internalType": "uint256",
          "name": "amount",
          "type": "uint256"
        },
        {
          "internalType": "uint256",
          "name": "timestamp",
          "type": "uint256"
        }
      ],
      "stateMutability": "view",
      "type": "function"
    },
    {
      "inputs": [],
      "name": "owner",
      "outputs": [
        {
          "internalType": "address",
          "name": "",
          "type": "address"
        }
      ],
      "stateMutability": "view",
      "type": "function"
    },
    {
      "inputs": [
        {
          "internalType": "uint256",
          "name": "",
          "type": "uint256"
        }
      ],
      "name": "projects",
      "outputs": [
        {
          "internalType": "address",
          "name": "creator",
          "type": "address"
        },
        {
          "internalType": "uint256",
          "name": "projectId",
          "type": "uint256"
        },
        {
          "internalType": "uint256",
          "name": "startTime",
          "type": "uint256"
        },
        {
          "internalType": "uint256",
          "name": "duration",
          "type": "uint256"
        },
        {
          "internalType": "uint256",
          "name": "softCap",
          "type": "uint256"
        },
        {
          "internalType": "uint256",
          "name": "hardCap",
          "type": "uint256"
        },
        {
          "internalType": "uint256",
          "name": "currentRaised",
          "type": "uint256"
        }
      ],
      "stateMutability": "view",
      "type": "function"
    },
    {
      "inputs": [],
      "name": "renounceOwnership",
      "outputs": [],
      "stateMutability": "nonpayable",
      "type": "function"
    },
    {
      "inputs": [],
      "name": "token",
      "outputs": [
        {
          "internalType": "address",
          "name": "",
          "type": "address"
        }
      ],
      "stateMutability": "view",
      "type": "function"
    },
    {
      "inputs": [],
      "name": "totalProjectCount",
      "outputs": [
        {
          "internalType": "uint256",
          "name": "",
          "type": "uint256"
        }
      ],
      "stateMutability": "view",
      "type": "function"
    },
    {
      "inputs": [
        {
          "internalType": "address",
          "name": "newOwner",
          "type": "address"
        }
      ],
      "name": "transferOwnership",
      "outputs": [],
      "stateMutability": "nonpayable",
      "type": "function"
    },
    {
      "stateMutability": "payable",
      "type": "receive"
    },
    {
      "inputs": [
        {
          "internalType": "uint256",
          "name": "_startTime",
          "type": "uint256"
        },
        {
          "internalType": "uint256",
          "name": "_duration",
          "type": "uint256"
        },
        {
          "internalType": "uint256",
          "name": "_softCap",
          "type": "uint256"
        },
        {
          "internalType": "uint256",
          "name": "_hardCap",
          "type": "uint256"
        }
      ],
      "name": "registerProject",
      "outputs": [],
      "stateMutability": "nonpayable",
      "type": "function"
    },
    {
      "inputs": [
        {
          "internalType": "address",
          "name": "_token",
          "type": "address"
        },
        {
          "internalType": "uint256",
          "name": "_projectId",
          "type": "uint256"
        },
        {
          "internalType": "uint256",
          "name": "_amount",
          "type": "uint256"
        }
      ],
      "name": "grantFunds",
      "outputs": [],
      "stateMutability": "nonpayable",
      "type": "function"
    },
    {
      "inputs": [
        {
          "internalType": "address",
          "name": "_tokenAddress",
          "type": "address"
        }
      ],
      "name": "withdarAnyERC20Tokens",
      "outputs": [],
      "stateMutability": "nonpayable",
      "type": "function"
    }
  ],
  "bytecode": "0x608060405234801561001057600080fd5b5060006100216100cb60201b60201c565b9050806000806101000a81548173ffffffffffffffffffffffffffffffffffffffff021916908373ffffffffffffffffffffffffffffffffffffffff1602179055508073ffffffffffffffffffffffffffffffffffffffff16600073ffffffffffffffffffffffffffffffffffffffff167f8be0079c531659141344cd1fd0a4f28419497f9722a3daafe3b4186f6b6457e060405160405180910390a350600180819055506100d3565b600033905090565b6114f0806100e26000396000f3fe6080604052600436106100955760003560e01c806372c2cb511161005957806372c2cb511461026b5780638da5cb5b146102d0578063b869cea314610311578063f2fde38b1461039a578063fc0c546a146103eb576100eb565b8063107046bd146100f0578063229149ed1461017f5780635947b945146101d85780636a11eeb314610229578063715018a614610254576100eb565b366100eb576040517f08c379a000000000000000000000000000000000000000000000000000000000815260040180806020018281038252602e81526020018061145b602e913960400191505060405180910390fd5b600080fd5b3480156100fc57600080fd5b506101296004803603602081101561011357600080fd5b810190808035906020019092919050505061042c565b604051808873ffffffffffffffffffffffffffffffffffffffff16815260200187815260200186815260200185815260200184815260200183815260200182815260200197505050505050505060405180910390f35b34801561018b57600080fd5b506101d6600480360360808110156101a257600080fd5b810190808035906020019092919080359060200190929190803590602001909291908035906020019092919050505061048e565b005b3480156101e457600080fd5b50610227600480360360208110156101fb57600080fd5b81019080803573ffffffffffffffffffffffffffffffffffffffff16906020019092919050505061075b565b005b34801561023557600080fd5b5061023e610981565b6040518082815260200191505060405180910390f35b34801561026057600080fd5b50610269610987565b005b34801561027757600080fd5b506102ce6004803603606081101561028e57600080fd5b81019080803573ffffffffffffffffffffffffffffffffffffffff1690602001909291908035906020019092919080359060200190929190505050610b0d565b005b3480156102dc57600080fd5b506102e5610ff3565b604051808273ffffffffffffffffffffffffffffffffffffffff16815260200191505060405180910390f35b34801561031d57600080fd5b506103606004803603602081101561033457600080fd5b81019080803573ffffffffffffffffffffffffffffffffffffffff16906020019092919050505061101c565b604051808473ffffffffffffffffffffffffffffffffffffffff168152602001838152602001828152602001935050505060405180910390f35b3480156103a657600080fd5b506103e9600480360360208110156103bd57600080fd5b81019080803573ffffffffffffffffffffffffffffffffffffffff169060200190929190505050611066565b005b3480156103f757600080fd5b50610400611271565b604051808273ffffffffffffffffffffffffffffffffffffffff16815260200191505060405180910390f35b60046020528060005260406000206000915090508060000160009054906101000a900473ffffffffffffffffffffffffffffffffffffffff16908060010154908060020154908060030154908060040154908060050154908060060154905087565b428410156104e7576040517f08c379a000000000000000000000000000000000000000000000000000000000815260040180806020018281038252604a815260200180611411604a913960600191505060405180910390fd5b60008311610540576040517f08c379a00000000000000000000000000000000000000000000000000000000081526004018080602001828103825260328152602001806114896032913960400191505060405180910390fd5b6000821180156105505750600081115b6105a5576040517f08c379a000000000000000000000000000000000000000000000000000000000815260040180806020018281038252603c81526020018061137c603c913960400191505060405180910390fd5b808214156105fe576040517f08c379a000000000000000000000000000000000000000000000000000000000815260040180806020018281038252602e81526020018061134e602e913960400191505060405180910390fd5b610614600160035461129790919063ffffffff16565b6003819055506040518060e0016040528061062d61131f565b73ffffffffffffffffffffffffffffffffffffffff1681526020016003548152602001858152602001848152602001838152602001828152602001600081525060046000600354815260200190815260200160002060008201518160000160006101000a81548173ffffffffffffffffffffffffffffffffffffffff021916908373ffffffffffffffffffffffffffffffffffffffff1602179055506020820151816001015560408201518160020155606082015181600301556080820151816004015560a0820151816005015560c0820151816006015590505060035461071361131f565b73ffffffffffffffffffffffffffffffffffffffff167f20bfd29f3d906f96fc35742fac45a554b19cbd4e21f8c4c1d84cb58fdfc32c8960405160405180910390a350505050565b61076361131f565b73ffffffffffffffffffffffffffffffffffffffff1660008054906101000a900473ffffffffffffffffffffffffffffffffffffffff1673ffffffffffffffffffffffffffffffffffffffff1614610823576040517f08c379a00000000000000000000000000000000000000000000000000000000081526004018080602001828103825260208152602001807f4f776e61626c653a2063616c6c6572206973206e6f7420746865206f776e657281525060200191505060405180910390fd5b60008173ffffffffffffffffffffffffffffffffffffffff166370a08231306040518263ffffffff1660e01b8152600401808273ffffffffffffffffffffffffffffffffffffffff16815260200191505060206040518083038186803b15801561088c57600080fd5b505afa1580156108a0573d6000803e3d6000fd5b505050506040513d60208110156108b657600080fd5b810190808051906020019092919050505090508173ffffffffffffffffffffffffffffffffffffffff1663a9059cbb6108ed61131f565b836040518363ffffffff1660e01b8152600401808373ffffffffffffffffffffffffffffffffffffffff16815260200182815260200192505050602060405180830381600087803b15801561094157600080fd5b505af1158015610955573d6000803e3d6000fd5b505050506040513d602081101561096b57600080fd5b8101908080519060200190929190505050505050565b60035481565b61098f61131f565b73ffffffffffffffffffffffffffffffffffffffff1660008054906101000a900473ffffffffffffffffffffffffffffffffffffffff1673ffffffffffffffffffffffffffffffffffffffff1614610a4f576040517f08c379a00000000000000000000000000000000000000000000000000000000081526004018080602001828103825260208152602001807f4f776e61626c653a2063616c6c6572206973206e6f7420746865206f776e657281525060200191505060405180910390fd5b600073ffffffffffffffffffffffffffffffffffffffff1660008054906101000a900473ffffffffffffffffffffffffffffffffffffffff1673ffffffffffffffffffffffffffffffffffffffff167f8be0079c531659141344cd1fd0a4f28419497f9722a3daafe3b4186f6b6457e060405160405180910390a360008060006101000a81548173ffffffffffffffffffffffffffffffffffffffff021916908373ffffffffffffffffffffffffffffffffffffffff160217905550565b6000600460008481526020019081526020016000206040518060e00160405290816000820160009054906101000a900473ffffffffffffffffffffffffffffffffffffffff1673ffffffffffffffffffffffffffffffffffffffff1673ffffffffffffffffffffffffffffffffffffffff16815260200160018201548152602001600282015481526020016003820154815260200160048201548152602001600582015481526020016006820154815250509050600073ffffffffffffffffffffffffffffffffffffffff16816000015173ffffffffffffffffffffffffffffffffffffffff161415610c4b576040517f08c379a00000000000000000000000000000000000000000000000000000000081526004018080602001828103825260278152602001806113b86027913960400191505060405180910390fd5b42610c678260600151836040015161129790919063ffffffff16565b11610cbd576040517f08c379a00000000000000000000000000000000000000000000000000000000081526004018080602001828103825260328152602001806113df6032913960400191505060405180910390fd5b8060a00151610cd9838360c0015161129790919063ffffffff16565b1115610d4d576040517f08c379a000000000000000000000000000000000000000000000000000000000815260040180806020018281038252601d8152602001807f50726f6a65637420686173206265656e2066756c6c792066756e64656400000081525060200191505060405180910390fd5b8373ffffffffffffffffffffffffffffffffffffffff166323b872dd610d7161131f565b30856040518463ffffffff1660e01b8152600401808473ffffffffffffffffffffffffffffffffffffffff1681526020018373ffffffffffffffffffffffffffffffffffffffff1681526020018281526020019350505050602060405180830381600087803b158015610de357600080fd5b505af1158015610df7573d6000803e3d6000fd5b505050506040513d6020811015610e0d57600080fd5b810190808051906020019092919050505050610e36828260c0015161129790919063ffffffff16565b60046000858152602001908152602001600020600601819055506040518060600160405280610e6361131f565b73ffffffffffffffffffffffffffffffffffffffff168152602001610eda8460056000610e8e61131f565b73ffffffffffffffffffffffffffffffffffffffff1673ffffffffffffffffffffffffffffffffffffffff1681526020019081526020016000206001015461129790919063ffffffff16565b81526020014281525060056000610eef61131f565b73ffffffffffffffffffffffffffffffffffffffff1673ffffffffffffffffffffffffffffffffffffffff16815260200190815260200160002060008201518160000160006101000a81548173ffffffffffffffffffffffffffffffffffffffff021916908373ffffffffffffffffffffffffffffffffffffffff160217905550602082015181600101556040820151816002015590505081816000015173ffffffffffffffffffffffffffffffffffffffff16610fab61131f565b73ffffffffffffffffffffffffffffffffffffffff167f508556561e0c4228bfc0a5a87f803c3e9ca577e97723e64a933ba8e00fcdb83960405160405180910390a450505050565b60008060009054906101000a900473ffffffffffffffffffffffffffffffffffffffff16905090565b60056020528060005260406000206000915090508060000160009054906101000a900473ffffffffffffffffffffffffffffffffffffffff16908060010154908060020154905083565b61106e61131f565b73ffffffffffffffffffffffffffffffffffffffff1660008054906101000a900473ffffffffffffffffffffffffffffffffffffffff1673ffffffffffffffffffffffffffffffffffffffff161461112e576040517f08c379a00000000000000000000000000000000000000000000000000000000081526004018080602001828103825260208152602001807f4f776e61626c653a2063616c6c6572206973206e6f7420746865206f776e657281525060200191505060405180910390fd5b600073ffffffffffffffffffffffffffffffffffffffff168173ffffffffffffffffffffffffffffffffffffffff1614156111b4576040517f08c379a00000000000000000000000000000000000000000000000000000000081526004018080602001828103825260268152602001806113286026913960400191505060405180910390fd5b8073ffffffffffffffffffffffffffffffffffffffff1660008054906101000a900473ffffffffffffffffffffffffffffffffffffffff1673ffffffffffffffffffffffffffffffffffffffff167f8be0079c531659141344cd1fd0a4f28419497f9722a3daafe3b4186f6b6457e060405160405180910390a3806000806101000a81548173ffffffffffffffffffffffffffffffffffffffff021916908373ffffffffffffffffffffffffffffffffffffffff16021790555050565b600260009054906101000a900473ffffffffffffffffffffffffffffffffffffffff1681565b600080828401905083811015611315576040517f08c379a000000000000000000000000000000000000000000000000000000000815260040180806020018281038252601b8152602001807f536166654d6174683a206164646974696f6e206f766572666c6f77000000000081525060200191505060405180910390fd5b8091505092915050565b60003390509056fe4f776e61626c653a206e6577206f776e657220697320746865207a65726f206164647265737344347070476f7665726e616e63653a20536f6674436170206d757374206e6f7420657175616c204861726443617044347070476f7665726e616e63653a20536f6643617020616e642048617264436170206d7573742062652067726561746572207468616e207a65726f44347070476f7665726e616e63653a2050726f6a656374496420646f65736e277420657869737444347070476f7665726e616e63653a2050726f6a656374206475726174696f6e20686173206265656e20657863656564656444347070476f7665726e616e63653a20737461727454496d652073686f756c642062652067726561746572207468616e206f7220657175616c20746f2063757272656e7420626c6f636b44347070476f7665726e616e63653a204574686572206465706f73697473206973206e6f7420616c6c6f7765642144347070476f7665726e616e63653a206475726174696f6e206d7573742062652067726561746572207468616e207a65726fa2646970667358221220398c554c22751dd3c48e2c8b0363622400710496f279528bf620c741cad8cc6164736f6c63430007060033",
  "immutableReferences": {},
  "source": "// SPDX-License-Identifier: MIT\r\npragma solidity 0.7.6;\r\n\r\nimport \"@openzeppelin/contracts/GSN/Context.sol\";\r\nimport \"@openzeppelin/contracts/access/Ownable.sol\";\r\nimport \"@openzeppelin/contracts/utils/ReentrancyGuard.sol\";\r\nimport \"@openzeppelin/contracts/math/SafeMath.sol\";\r\nimport \"@openzeppelin/contracts/token/ERC20/IERC20.sol\";\r\n\r\n\r\ncontract D4ppCore is Ownable, ReentrancyGuard {\r\n    using SafeMath for uint256;\r\n\r\n    // The token being used\r\n    address public token;\r\n    uint public totalProjectCount;\r\n    \r\n    event ProjectCreated(address indexed creator, uint indexed projectId);\r\n    event GrantedFunds(address indexed user, address indexed beneficiary, uint indexed amount);\r\n\r\n    mapping(uint => Project) public projects;\r\n    mapping(address => Grant) public grants;\r\n\r\n    struct Project {\r\n        address creator;\r\n        uint projectId;\r\n        uint startTime;\r\n        uint duration;\r\n        uint softCap;\r\n        uint hardCap;\r\n        uint currentRaised;\r\n    }\r\n\r\n    struct Grant {\r\n        address user;\r\n        uint amount;\r\n        uint timestamp;\r\n    }\r\n\r\n    function registerProject(uint _startTime, uint _duration, uint _softCap, uint _hardCap) public {\r\n        require(_startTime >= block.timestamp, \"D4ppGovernance: startTIme should be greater than or equal to current block\");\r\n        require(_duration > 0, \"D4ppGovernance: duration must be greater than zero\");\r\n        require(_softCap > 0 && _hardCap > 0, \"D4ppGovernance: SofCap and HardCap must be greater than zero\");\r\n        require(_softCap != _hardCap, \"D4ppGovernance: SoftCap must not equal HardCap\");\r\n\r\n        totalProjectCount = totalProjectCount.add(1);\r\n        projects[totalProjectCount] = Project(\r\n            _msgSender(),\r\n            totalProjectCount,\r\n            _startTime,\r\n            _duration,\r\n            _softCap,\r\n            _hardCap,\r\n            0\r\n        );\r\n        emit ProjectCreated(_msgSender(), totalProjectCount);\r\n    }\r\n\r\n\r\n    function grantFunds(address _token, uint _projectId, uint _amount) public {\r\n        Project memory _project = projects[_projectId];\r\n        require(_project.creator != address(0), \"D4ppGovernance: ProjectId doesn't exist\");\r\n        require(\r\n            _project.startTime.add(_project.duration) > block.timestamp, \r\n            \"D4ppGovernance: Project duration has been exceeded\"\r\n        );\r\n        require(\r\n            _project.currentRaised.add(_amount) <= _project.hardCap,\r\n            \"Project has been fully funded\"\r\n        );\r\n        IERC20(_token).transferFrom(_msgSender(), address(this), _amount);\r\n        projects[_projectId].currentRaised = _project.currentRaised.add(_amount);\r\n        grants[_msgSender()] = Grant(\r\n            _msgSender(), \r\n            grants[_msgSender()].amount.add(_amount), \r\n            block.timestamp\r\n        );\r\n        emit GrantedFunds(_msgSender(), _project.creator, _amount);\r\n    }\r\n\r\n    function withdarAnyERC20Tokens(address _tokenAddress) public onlyOwner {\r\n        uint _balance = IERC20(_tokenAddress).balanceOf(address(this));\r\n        IERC20(_tokenAddress).transfer(_msgSender(), _balance);\r\n    }\r\n\r\n    receive() external payable {\r\n        revert(\"D4ppGovernance: Ether deposits is not allowed!\");\r\n    }\r\n}",
  "sourcePath": "C:\\Users\\DragonLord\\Desktop\\dApp\\d4pp_project\\contracts\\D4ppCore.sol",
  "compiler": {
    "name": "solc",
    "version": "0.7.6+commit.7338295f.Emscripten.clang"
  },
  "schemaVersion": "3.3.3",
  "updatedAt": "2021-01-04T11:54:23.561Z",
  "devdoc": {
    "kind": "dev",
    "methods": {
      "owner()": {
        "details": "Returns the address of the current owner."
      },
      "renounceOwnership()": {
        "details": "Leaves the contract without owner. It will not be possible to call `onlyOwner` functions anymore. Can only be called by the current owner. NOTE: Renouncing ownership will leave the contract without an owner, thereby removing any functionality that is only available to the owner."
      },
      "transferOwnership(address)": {
        "details": "Transfers ownership of the contract to a new account (`newOwner`). Can only be called by the current owner."
      }
    },
    "version": 1
  },
  "userdoc": {
    "kind": "user",
    "methods": {},
    "version": 1
  }
}