{
  "contractName": "Governance",
  "abi": [
    {
      "inputs": [
        {
          "internalType": "address",
          "name": "_token",
          "type": "address"
        }
      ],
      "stateMutability": "nonpayable",
      "type": "constructor"
    },
    {
      "anonymous": false,
      "inputs": [
        {
          "indexed": true,
          "internalType": "address",
          "name": "user",
          "type": "address"
        },
        {
          "indexed": true,
          "internalType": "address",
          "name": "beneficiary",
          "type": "address"
        },
        {
          "indexed": true,
          "internalType": "uint256",
          "name": "amount",
          "type": "uint256"
        }
      ],
      "name": "GrantedFunds",
      "type": "event"
    },
    {
      "anonymous": false,
      "inputs": [
        {
          "indexed": true,
          "internalType": "address",
          "name": "previousOwner",
          "type": "address"
        },
        {
          "indexed": true,
          "internalType": "address",
          "name": "newOwner",
          "type": "address"
        }
      ],
      "name": "OwnershipTransferred",
      "type": "event"
    },
    {
      "anonymous": false,
      "inputs": [
        {
          "indexed": true,
          "internalType": "address",
          "name": "creator",
          "type": "address"
        },
        {
          "indexed": true,
          "internalType": "uint256",
          "name": "projectId",
          "type": "uint256"
        }
      ],
      "name": "ProjectCreated",
      "type": "event"
    },
    {
      "anonymous": false,
      "inputs": [
        {
          "indexed": false,
          "internalType": "bytes32",
          "name": "description",
          "type": "bytes32"
        },
        {
          "indexed": true,
          "internalType": "address",
          "name": "proposer",
          "type": "address"
        },
        {
          "indexed": true,
          "internalType": "uint256",
          "name": "projectId",
          "type": "uint256"
        },
        {
          "indexed": false,
          "internalType": "uint256",
          "name": "startTime",
          "type": "uint256"
        },
        {
          "indexed": false,
          "internalType": "uint256",
          "name": "endTime",
          "type": "uint256"
        }
      ],
      "name": "ProposalCreated",
      "type": "event"
    },
    {
      "anonymous": false,
      "inputs": [
        {
          "indexed": true,
          "internalType": "uint256",
          "name": "proposalId",
          "type": "uint256"
        }
      ],
      "name": "ProposalExecuted",
      "type": "event"
    },
    {
      "anonymous": false,
      "inputs": [
        {
          "indexed": true,
          "internalType": "uint256",
          "name": "proposalId",
          "type": "uint256"
        },
        {
          "indexed": true,
          "internalType": "address",
          "name": "voter",
          "type": "address"
        },
        {
          "indexed": true,
          "internalType": "bool",
          "name": "support",
          "type": "bool"
        },
        {
          "indexed": false,
          "internalType": "uint256",
          "name": "votes",
          "type": "uint256"
        }
      ],
      "name": "Voted",
      "type": "event"
    },
    {
      "inputs": [
        {
          "internalType": "address",
          "name": "",
          "type": "address"
        }
      ],
      "name": "canWithdrawAfter",
      "outputs": [
        {
          "internalType": "uint256",
          "name": "",
          "type": "uint256"
        }
      ],
      "stateMutability": "view",
      "type": "function"
    },
    {
      "inputs": [
        {
          "internalType": "address",
          "name": "_token",
          "type": "address"
        },
        {
          "internalType": "uint256",
          "name": "_projectId",
          "type": "uint256"
        },
        {
          "internalType": "uint256",
          "name": "_amount",
          "type": "uint256"
        }
      ],
      "name": "grantFunds",
      "outputs": [],
      "stateMutability": "nonpayable",
      "type": "function"
    },
    {
      "inputs": [
        {
          "internalType": "address",
          "name": "",
          "type": "address"
        }
      ],
      "name": "latestProposalIds",
      "outputs": [
        {
          "internalType": "uint256",
          "name": "",
          "type": "uint256"
        }
      ],
      "stateMutability": "view",
      "type": "function"
    },
    {
      "inputs": [],
      "name": "owner",
      "outputs": [
        {
          "internalType": "address",
          "name": "",
          "type": "address"
        }
      ],
      "stateMutability": "view",
      "type": "function"
    },
    {
      "inputs": [
        {
          "internalType": "uint256",
          "name": "",
          "type": "uint256"
        }
      ],
      "name": "projects",
      "outputs": [
        {
          "internalType": "address",
          "name": "creator",
          "type": "address"
        },
        {
          "internalType": "uint256",
          "name": "projectId",
          "type": "uint256"
        },
        {
          "internalType": "uint256",
          "name": "startTime",
          "type": "uint256"
        },
        {
          "internalType": "uint256",
          "name": "duration",
          "type": "uint256"
        },
        {
          "internalType": "uint256",
          "name": "softCap",
          "type": "uint256"
        },
        {
          "internalType": "uint256",
          "name": "hardCap",
          "type": "uint256"
        },
        {
          "internalType": "uint256",
          "name": "currentRaised",
          "type": "uint256"
        }
      ],
      "stateMutability": "view",
      "type": "function"
    },
    {
      "inputs": [
        {
          "internalType": "uint256",
          "name": "",
          "type": "uint256"
        }
      ],
      "name": "proposals",
      "outputs": [
        {
          "internalType": "bytes32",
          "name": "description",
          "type": "bytes32"
        },
        {
          "internalType": "address",
          "name": "proposer",
          "type": "address"
        },
        {
          "internalType": "uint256",
          "name": "projectId",
          "type": "uint256"
        },
        {
          "internalType": "uint256",
          "name": "startTime",
          "type": "uint256"
        },
        {
          "internalType": "uint256",
          "name": "endTime",
          "type": "uint256"
        },
        {
          "internalType": "uint256",
          "name": "forVotes",
          "type": "uint256"
        },
        {
          "internalType": "uint256",
          "name": "againstVotes",
          "type": "uint256"
        },
        {
          "internalType": "uint256",
          "name": "totalVotes",
          "type": "uint256"
        },
        {
          "internalType": "bool",
          "name": "executed",
          "type": "bool"
        },
        {
          "internalType": "bool",
          "name": "extended",
          "type": "bool"
        }
      ],
      "stateMutability": "view",
      "type": "function"
    },
    {
      "inputs": [
        {
          "internalType": "address",
          "name": "",
          "type": "address"
        }
      ],
      "name": "receipts",
      "outputs": [
        {
          "internalType": "bool",
          "name": "hasVoted",
          "type": "bool"
        },
        {
          "internalType": "bool",
          "name": "support",
          "type": "bool"
        }
      ],
      "stateMutability": "view",
      "type": "function"
    },
    {
      "inputs": [
        {
          "internalType": "uint256",
          "name": "_startTime",
          "type": "uint256"
        },
        {
          "internalType": "uint256",
          "name": "_duration",
          "type": "uint256"
        },
        {
          "internalType": "uint256",
          "name": "_softCap",
          "type": "uint256"
        },
        {
          "internalType": "uint256",
          "name": "_hardCap",
          "type": "uint256"
        }
      ],
      "name": "registerProject",
      "outputs": [],
      "stateMutability": "nonpayable",
      "type": "function"
    },
    {
      "inputs": [],
      "name": "renounceOwnership",
      "outputs": [],
      "stateMutability": "nonpayable",
      "type": "function"
    },
    {
      "inputs": [],
      "name": "token",
      "outputs": [
        {
          "internalType": "address",
          "name": "",
          "type": "address"
        }
      ],
      "stateMutability": "view",
      "type": "function"
    },
    {
      "inputs": [],
      "name": "totalProjectCount",
      "outputs": [
        {
          "internalType": "uint256",
          "name": "",
          "type": "uint256"
        }
      ],
      "stateMutability": "view",
      "type": "function"
    },
    {
      "inputs": [
        {
          "internalType": "address",
          "name": "newOwner",
          "type": "address"
        }
      ],
      "name": "transferOwnership",
      "outputs": [],
      "stateMutability": "nonpayable",
      "type": "function"
    },
    {
      "inputs": [
        {
          "internalType": "address",
          "name": "_tokenAddress",
          "type": "address"
        }
      ],
      "name": "withdarAnyERC20Tokens",
      "outputs": [],
      "stateMutability": "nonpayable",
      "type": "function"
    },
    {
      "stateMutability": "payable",
      "type": "receive"
    },
    {
      "inputs": [
        {
          "internalType": "uint256",
          "name": "_targetId",
          "type": "uint256"
        },
        {
          "internalType": "bytes32",
          "name": "_proposeDescription",
          "type": "bytes32"
        }
      ],
      "name": "createProposal",
      "outputs": [],
      "stateMutability": "nonpayable",
      "type": "function"
    }
  ],
  "bytecode": "0x608060405234801561001057600080fd5b50604051611b95380380611b958339818101604052602081101561003357600080fd5b810190808051906020019092919050505060006100546101dc60201b60201c565b9050806000806101000a81548173ffffffffffffffffffffffffffffffffffffffff021916908373ffffffffffffffffffffffffffffffffffffffff1602179055508073ffffffffffffffffffffffffffffffffffffffff16600073ffffffffffffffffffffffffffffffffffffffff167f8be0079c531659141344cd1fd0a4f28419497f9722a3daafe3b4186f6b6457e060405160405180910390a35060018081905550600073ffffffffffffffffffffffffffffffffffffffff168173ffffffffffffffffffffffffffffffffffffffff16141561017f576040517f08c379a0000000000000000000000000000000000000000000000000000000008152600401808060200182810382526029815260200180611b6c6029913960400191505060405180910390fd5b80600260006101000a81548173ffffffffffffffffffffffffffffffffffffffff021916908373ffffffffffffffffffffffffffffffffffffffff16021790555060006003819055506101d66101e460201b60201c565b50610463565b600033905090565b6000806000429050600042905060007f496e697469616c2070726f706f73616c0000000000000000000000000000000090506040518061014001604052808281526020018673ffffffffffffffffffffffffffffffffffffffff16815260200185815260200184815260200183815260200160008152602001600081526020016001815260200160001515815260200160001515815250600560008681526020019081526020016000206000820151816000015560208201518160010160006101000a81548173ffffffffffffffffffffffffffffffffffffffff021916908373ffffffffffffffffffffffffffffffffffffffff16021790555060408201518160020155606082015181600301556080820151816004015560a0820151816005015560c0820151816006015560e082015181600701556101008201518160080160006101000a81548160ff0219169083151502179055506101208201518160080160016101000a81548160ff021916908315150217905550905050604051806040016040528060011515815260200160011515815250600660008773ffffffffffffffffffffffffffffffffffffffff1673ffffffffffffffffffffffffffffffffffffffff16815260200190815260200160002060008201518160000160006101000a81548160ff02191690831515021790555060208201518160000160016101000a81548160ff021916908315150217905550905050838573ffffffffffffffffffffffffffffffffffffffff167f9a04d35e5beebc8236e4119d4176dc83cd0d7160c7d5843520171b176ede9a7983868660405180848152602001838152602001828152602001935050505060405180910390a35050505050565b6116fa806104726000396000f3fe6080604052600436106100e15760003560e01c80636a11eeb31161007f5780638da5cb5b116100595780638da5cb5b146104de578063a72edda31461051f578063f2fde38b14610584578063fc0c546a146105d557610137565b80636a11eeb314610437578063715018a61461046257806372c2cb511461047957610137565b806317977c61116100bb57806317977c61146102b8578063229149ed1461031d5780634de4797b146103765780635947b945146103e657610137565b8063013cf08b1461013c578063107046bd146101e45780631617f2ae1461027357610137565b36610137576040517f08c379a000000000000000000000000000000000000000000000000000000000815260040180806020018281038252602e815260200180611665602e913960400191505060405180910390fd5b600080fd5b34801561014857600080fd5b506101756004803603602081101561015f57600080fd5b8101908080359060200190929190505050610616565b604051808b81526020018a73ffffffffffffffffffffffffffffffffffffffff168152602001898152602001888152602001878152602001868152602001858152602001848152602001831515815260200182151581526020019a505050505050505050505060405180910390f35b3480156101f057600080fd5b5061021d6004803603602081101561020757600080fd5b81019080803590602001909291905050506106a4565b604051808873ffffffffffffffffffffffffffffffffffffffff16815260200187815260200186815260200185815260200184815260200183815260200182815260200197505050505050505060405180910390f35b34801561027f57600080fd5b506102b66004803603604081101561029657600080fd5b810190808035906020019092919080359060200190929190505050610706565b005b3480156102c457600080fd5b50610307600480360360208110156102db57600080fd5b81019080803573ffffffffffffffffffffffffffffffffffffffff16906020019092919050505061077a565b6040518082815260200191505060405180910390f35b34801561032957600080fd5b506103746004803603608081101561034057600080fd5b8101908080359060200190929190803590602001909291908035906020019092919080359060200190929190505050610792565b005b34801561038257600080fd5b506103c56004803603602081101561039957600080fd5b81019080803573ffffffffffffffffffffffffffffffffffffffff169060200190929190505050610a5f565b60405180831515815260200182151581526020019250505060405180910390f35b3480156103f257600080fd5b506104356004803603602081101561040957600080fd5b81019080803573ffffffffffffffffffffffffffffffffffffffff169060200190929190505050610a9d565b005b34801561044357600080fd5b5061044c610cc3565b6040518082815260200191505060405180910390f35b34801561046e57600080fd5b50610477610cc9565b005b34801561048557600080fd5b506104dc6004803603606081101561049c57600080fd5b81019080803573ffffffffffffffffffffffffffffffffffffffff1690602001909291908035906020019092919080359060200190929190505050610e4f565b005b3480156104ea57600080fd5b506104f36111fe565b604051808273ffffffffffffffffffffffffffffffffffffffff16815260200191505060405180910390f35b34801561052b57600080fd5b5061056e6004803603602081101561054257600080fd5b81019080803573ffffffffffffffffffffffffffffffffffffffff169060200190929190505050611227565b6040518082815260200191505060405180910390f35b34801561059057600080fd5b506105d3600480360360208110156105a757600080fd5b81019080803573ffffffffffffffffffffffffffffffffffffffff16906020019092919050505061123f565b005b3480156105e157600080fd5b506105ea61144a565b604051808273ffffffffffffffffffffffffffffffffffffffff16815260200191505060405180910390f35b60056020528060005260406000206000915090508060000154908060010160009054906101000a900473ffffffffffffffffffffffffffffffffffffffff16908060020154908060030154908060040154908060050154908060060154908060070154908060080160009054906101000a900460ff16908060080160019054906101000a900460ff1690508a565b60046020528060005260406000206000915090508060000160009054906101000a900473ffffffffffffffffffffffffffffffffffffffff16908060010154908060020154908060030154908060040154908060050154908060060154905087565b6000801916811415610763576040517f08c379a000000000000000000000000000000000000000000000000000000000815260040180806020018281038252602881526020018061155e6028913960400191505060405180910390fd5b61077561076e611470565b8383611478565b505050565b60076020528060005260406000206000915090505481565b428410156107eb576040517f08c379a000000000000000000000000000000000000000000000000000000000815260040180806020018281038252604a81526020018061161b604a913960600191505060405180910390fd5b60008311610844576040517f08c379a00000000000000000000000000000000000000000000000000000000081526004018080602001828103825260328152602001806116936032913960400191505060405180910390fd5b6000821180156108545750600081115b6108a9576040517f08c379a000000000000000000000000000000000000000000000000000000000815260040180806020018281038252603c815260200180611586603c913960400191505060405180910390fd5b80821415610902576040517f08c379a000000000000000000000000000000000000000000000000000000000815260040180806020018281038252602e815260200180611530602e913960400191505060405180910390fd5b610918600160035461148190919063ffffffff16565b6003819055506040518060e00160405280610931611470565b73ffffffffffffffffffffffffffffffffffffffff1681526020016003548152602001858152602001848152602001838152602001828152602001600081525060046000600354815260200190815260200160002060008201518160000160006101000a81548173ffffffffffffffffffffffffffffffffffffffff021916908373ffffffffffffffffffffffffffffffffffffffff1602179055506020820151816001015560408201518160020155606082015181600301556080820151816004015560a0820151816005015560c08201518160060155905050600354610a17611470565b73ffffffffffffffffffffffffffffffffffffffff167f20bfd29f3d906f96fc35742fac45a554b19cbd4e21f8c4c1d84cb58fdfc32c8960405160405180910390a350505050565b60066020528060005260406000206000915090508060000160009054906101000a900460ff16908060000160019054906101000a900460ff16905082565b610aa5611470565b73ffffffffffffffffffffffffffffffffffffffff1660008054906101000a900473ffffffffffffffffffffffffffffffffffffffff1673ffffffffffffffffffffffffffffffffffffffff1614610b65576040517f08c379a00000000000000000000000000000000000000000000000000000000081526004018080602001828103825260208152602001807f4f776e61626c653a2063616c6c6572206973206e6f7420746865206f776e657281525060200191505060405180910390fd5b60008173ffffffffffffffffffffffffffffffffffffffff166370a08231306040518263ffffffff1660e01b8152600401808273ffffffffffffffffffffffffffffffffffffffff16815260200191505060206040518083038186803b158015610bce57600080fd5b505afa158015610be2573d6000803e3d6000fd5b505050506040513d6020811015610bf857600080fd5b810190808051906020019092919050505090508173ffffffffffffffffffffffffffffffffffffffff1663a9059cbb610c2f611470565b836040518363ffffffff1660e01b8152600401808373ffffffffffffffffffffffffffffffffffffffff16815260200182815260200192505050602060405180830381600087803b158015610c8357600080fd5b505af1158015610c97573d6000803e3d6000fd5b505050506040513d6020811015610cad57600080fd5b8101908080519060200190929190505050505050565b60035481565b610cd1611470565b73ffffffffffffffffffffffffffffffffffffffff1660008054906101000a900473ffffffffffffffffffffffffffffffffffffffff1673ffffffffffffffffffffffffffffffffffffffff1614610d91576040517f08c379a00000000000000000000000000000000000000000000000000000000081526004018080602001828103825260208152602001807f4f776e61626c653a2063616c6c6572206973206e6f7420746865206f776e657281525060200191505060405180910390fd5b600073ffffffffffffffffffffffffffffffffffffffff1660008054906101000a900473ffffffffffffffffffffffffffffffffffffffff1673ffffffffffffffffffffffffffffffffffffffff167f8be0079c531659141344cd1fd0a4f28419497f9722a3daafe3b4186f6b6457e060405160405180910390a360008060006101000a81548173ffffffffffffffffffffffffffffffffffffffff021916908373ffffffffffffffffffffffffffffffffffffffff160217905550565b6000600460008481526020019081526020016000206040518060e00160405290816000820160009054906101000a900473ffffffffffffffffffffffffffffffffffffffff1673ffffffffffffffffffffffffffffffffffffffff1673ffffffffffffffffffffffffffffffffffffffff16815260200160018201548152602001600282015481526020016003820154815260200160048201548152602001600582015481526020016006820154815250509050600073ffffffffffffffffffffffffffffffffffffffff16816000015173ffffffffffffffffffffffffffffffffffffffff161415610f8d576040517f08c379a00000000000000000000000000000000000000000000000000000000081526004018080602001828103825260278152602001806115c26027913960400191505060405180910390fd5b42610fa98260600151836040015161148190919063ffffffff16565b11610fff576040517f08c379a00000000000000000000000000000000000000000000000000000000081526004018080602001828103825260328152602001806115e96032913960400191505060405180910390fd5b8060a0015161101b838360c0015161148190919063ffffffff16565b111561108f576040517f08c379a000000000000000000000000000000000000000000000000000000000815260040180806020018281038252601d8152602001807f50726f6a65637420686173206265656e2066756c6c792066756e64656400000081525060200191505060405180910390fd5b8373ffffffffffffffffffffffffffffffffffffffff166323b872dd6110b3611470565b30856040518463ffffffff1660e01b8152600401808473ffffffffffffffffffffffffffffffffffffffff1681526020018373ffffffffffffffffffffffffffffffffffffffff1681526020018281526020019350505050602060405180830381600087803b15801561112557600080fd5b505af1158015611139573d6000803e3d6000fd5b505050506040513d602081101561114f57600080fd5b810190808051906020019092919050505050611178828260c0015161148190919063ffffffff16565b600460008581526020019081526020016000206006018190555081816000015173ffffffffffffffffffffffffffffffffffffffff166111b6611470565b73ffffffffffffffffffffffffffffffffffffffff167f508556561e0c4228bfc0a5a87f803c3e9ca577e97723e64a933ba8e00fcdb83960405160405180910390a450505050565b60008060009054906101000a900473ffffffffffffffffffffffffffffffffffffffff16905090565b60086020528060005260406000206000915090505481565b611247611470565b73ffffffffffffffffffffffffffffffffffffffff1660008054906101000a900473ffffffffffffffffffffffffffffffffffffffff1673ffffffffffffffffffffffffffffffffffffffff1614611307576040517f08c379a00000000000000000000000000000000000000000000000000000000081526004018080602001828103825260208152602001807f4f776e61626c653a2063616c6c6572206973206e6f7420746865206f776e657281525060200191505060405180910390fd5b600073ffffffffffffffffffffffffffffffffffffffff168173ffffffffffffffffffffffffffffffffffffffff16141561138d576040517f08c379a000000000000000000000000000000000000000000000000000000000815260040180806020018281038252602681526020018061150a6026913960400191505060405180910390fd5b8073ffffffffffffffffffffffffffffffffffffffff1660008054906101000a900473ffffffffffffffffffffffffffffffffffffffff1673ffffffffffffffffffffffffffffffffffffffff167f8be0079c531659141344cd1fd0a4f28419497f9722a3daafe3b4186f6b6457e060405160405180910390a3806000806101000a81548173ffffffffffffffffffffffffffffffffffffffff021916908373ffffffffffffffffffffffffffffffffffffffff16021790555050565b600260009054906101000a900473ffffffffffffffffffffffffffffffffffffffff1681565b600033905090565b60009392505050565b6000808284019050838110156114ff576040517f08c379a000000000000000000000000000000000000000000000000000000000815260040180806020018281038252601b8152602001807f536166654d6174683a206164646974696f6e206f766572666c6f77000000000081525060200191505060405180910390fd5b809150509291505056fe4f776e61626c653a206e6577206f776e657220697320746865207a65726f206164647265737344347070476f7665726e616e63653a20536f6674436170206d757374206e6f7420657175616c2048617264436170476f7665726e616e63653a20496e76616c69642070726f706f73616c20646174612070617373656444347070476f7665726e616e63653a20536f6643617020616e642048617264436170206d7573742062652067726561746572207468616e207a65726f44347070476f7665726e616e63653a2050726f6a656374496420646f65736e277420657869737444347070476f7665726e616e63653a2050726f6a656374206475726174696f6e20686173206265656e20657863656564656444347070476f7665726e616e63653a20737461727454496d652073686f756c642062652067726561746572207468616e206f7220657175616c20746f2063757272656e7420626c6f636b44347070476f7665726e616e63653a204574686572206465706f73697473206973206e6f7420616c6c6f7765642144347070476f7665726e616e63653a206475726174696f6e206d7573742062652067726561746572207468616e207a65726fa2646970667358221220d1964229260272cf8ef73a4c7c46d75a08ea37ba0b0d2e5ce9731c44030c242e64736f6c6343000706003344347070476f7665726e616e63653a20746f6b656e20697320746865207a65726f2061646472657373",
  "immutableReferences": {},
  "source": "// SPDX-License-Identifier: MIT\r\npragma solidity 0.7.6;\r\n\r\nimport \"@openzeppelin/contracts/math/SafeMath.sol\";\r\nimport \"./D4ppGovernance.sol\";\r\n\r\ncontract Governance is D4ppGovernance {\r\n    using SafeMath for uint;\r\n\r\n    /// @notice Possible states that a proposal may be in\r\n    enum ProposalState { Pending, Active, Defeated, Timelocked, AwaitingExecution, Executed, Expired }\r\n\r\n    struct Proposal {\r\n        // Propose subject\r\n        bytes32 description;\r\n        // Creator of the proposal\r\n        address proposer;\r\n        // Id of the project the call is to be made\r\n        uint projectId;\r\n        // The block at which voting begins\r\n        uint startTime;\r\n        // The block at which voting ends: votes must be cast prior to this block\r\n        uint endTime;\r\n        // Current number of votes in favor of this proposal\r\n        uint forVotes;\r\n        // Current number of votes in opposition to this proposal\r\n        uint againstVotes;\r\n        // Total number of votes that has been registered;\r\n        uint totalVotes;\r\n        // Flag marking whether the proposal has been executed\r\n        bool executed;\r\n        // Flag marking whether the proposal voting time has been extended\r\n        // Voting time can be extended once, if the proposal outcome has changed during CLOSING_PERIOD\r\n        bool extended;\r\n    }\r\n\r\n    /// @notice Ballot receipt record for a voter\r\n    struct Receipt {\r\n        // Whether or not a vote has been cast\r\n        bool hasVoted;\r\n        // Whether or not the voter supports the proposal\r\n        bool support;\r\n    }\r\n\r\n\r\n    /// @notice The official record of all proposals ever proposed\r\n    mapping(uint => Proposal) public proposals;\r\n\r\n    /// @notice Receipts of ballots for the entire set of voters\r\n    mapping(address => Receipt) public receipts;\r\n\r\n    /// @notice The latest proposal for each proposer\r\n    mapping(address => uint) public latestProposalIds;\r\n\r\n    /// @notice Timestamp when a user can withdraw tokens\r\n    mapping(address => uint) public canWithdrawAfter;\r\n\r\n\r\n    /// @notice An event emitted when a new proposal is created\r\n    event ProposalCreated(\r\n        bytes32 description,\r\n        address indexed proposer,\r\n        uint indexed projectId,\r\n        uint startTime,\r\n        uint endTime\r\n    );\r\n\r\n    /// @notice An event emitted when a vote has been cast on a proposal\r\n    event Voted(uint indexed proposalId, address indexed voter, bool indexed support, uint votes);\r\n\r\n    /// @notice An event emitted when a proposal has been executed\r\n    event ProposalExecuted(uint indexed proposalId);\r\n\r\n    constructor(address _token) {\r\n        require(_token != address(0), \"D4ppGovernance: token is the zero address\");\r\n        token = _token;\r\n        totalProjectCount = 0;\r\n        _initialize();\r\n    }\r\n\r\n    function _initialize() internal {\r\n        address _proposer = address(0);\r\n        uint _projectId = 0;\r\n        uint _startTime = block.timestamp;\r\n        uint _endTime = block.timestamp;\r\n        bytes32 _description = bytes32(\"Initial proposal\");\r\n        // Create a dummy proposal so that indexes start from 1\r\n        proposals[_projectId] = Proposal(\r\n            _description,\r\n            _proposer,\r\n            _projectId,\r\n            _startTime,\r\n            _endTime,\r\n            0,\r\n            0,\r\n            1,\r\n            false,\r\n            false\r\n        );\r\n\r\n        receipts[_proposer] = Receipt (true, true);\r\n        \r\n        emit ProposalCreated(\r\n            _description, \r\n            _proposer,\r\n            _projectId,\r\n            _startTime,\r\n            _endTime\r\n        );\r\n    }\r\n\r\n    function createProposal(uint _targetId, bytes32 _proposeDescription) public {\r\n        require(_proposeDescription != bytes32(\"\"), \"Governance: Invalid proposal data passed\");\r\n        _propose(_msgSender(), _targetId, _proposeDescription);\r\n    }\r\n\r\n    function _propose(address _proposer, uint _targetId, bytes32 _description) internal returns(uint) {\r\n        \r\n    }\r\n\r\n}",
  "sourcePath": "C:/Users/DragonLord/Desktop/dApp/d4pp_project/contracts/Governance.sol",
  "compiler": {
    "name": "solc",
    "version": "0.7.6+commit.7338295f.Emscripten.clang"
  },
  "schemaVersion": "3.3.3",
  "updatedAt": "2021-01-03T12:52:48.990Z",
  "devdoc": {
    "kind": "dev",
    "methods": {
      "owner()": {
        "details": "Returns the address of the current owner."
      },
      "renounceOwnership()": {
        "details": "Leaves the contract without owner. It will not be possible to call `onlyOwner` functions anymore. Can only be called by the current owner. NOTE: Renouncing ownership will leave the contract without an owner, thereby removing any functionality that is only available to the owner."
      },
      "transferOwnership(address)": {
        "details": "Transfers ownership of the contract to a new account (`newOwner`). Can only be called by the current owner."
      }
    },
    "version": 1
  },
  "userdoc": {
    "events": {
      "ProposalCreated(bytes32,address,uint256,uint256,uint256)": {
        "notice": "An event emitted when a new proposal is created"
      },
      "ProposalExecuted(uint256)": {
        "notice": "An event emitted when a proposal has been executed"
      },
      "Voted(uint256,address,bool,uint256)": {
        "notice": "An event emitted when a vote has been cast on a proposal"
      }
    },
    "kind": "user",
    "methods": {
      "canWithdrawAfter(address)": {
        "notice": "Timestamp when a user can withdraw tokens"
      },
      "latestProposalIds(address)": {
        "notice": "The latest proposal for each proposer"
      },
      "proposals(uint256)": {
        "notice": "The official record of all proposals ever proposed"
      },
      "receipts(address)": {
        "notice": "Receipts of ballots for the entire set of voters"
      }
    },
    "version": 1
  }
}